:020000040000fa
:080000000002040000000000f2
:020000040000fa
:100400000f8320000ebf20000e01880000000000b6
:1004100000012000200288000c000700e0ce200030
:100420000100200011000700000020000000e00093
:10043000020032000000020000000000980b0200e1
:10044000000000000040da000000fe004440a90067
:10045000e00320000000e000030032000000200064
:10046000a00188004440a800000006009101880017
:10047000800078000000eb0015003700e2804000ab
:1004800032a0b4009101ba00e280400032a0b40072
:100490009102ba00e280400032a0b4000002eb00fa
:1004a000472bde00f507b200602ce10004003a00a3
:1004b0000059eb008301e900fdff3e000400370016
:1004c0006128e100010032000082eb000400070017
:1004d0001101ba000200e000e8ff3a000000060047
:1004e0003159ba008301e9000c0032002159ba00e9
:1004f0008301e900080032000400e00003003a0034
:10050000e280400032a0b400f5ff370011d9ba00f4
:100510008301e900faff3a008100e800e180400031
:1005200032a0b400000006000040da000000fe0027
:020000040000fa
:100008009402000094020000940200009402000090
:100018009402000094020000940200009402000080
:100028009402000094020000940200009402000070
:100038009402000094020000940200009402000060
:100048009402000094020000940200009402000050
:100058009402000094020000940200009402000040
:100068009402000094020000940200009402000030
:100078009402000094020000940200009402000020
:100088009402000094020000940200009402000010
:10009800940200004a090000940200009402000043
:1000a80094020000940200009402000094020000f0
:1000b80094020000940200009402000094020000e0
:1000c80094020000940200009402000094020000d0
:1000d80094020000940200009402000094020000c0
:1000e80094020000940200009402000094020000b0
:1000f80094020000940200009402000094020000a0
:10010800940200009402000094020000940200008f
:10011800940200009402000094020000940200007f
:10012800940200009402000094020000940200006f
:10013800940200009402000094020000940200005f
:10014800940200009402000094020000940200004f
:10015800940200009402000094020000940200003f
:10016800940200009402000094020000940200002f
:10017800940200009402000094020000940200001f
:10018800940200009402000094020000940200000f
:1001980094020000940200009402000094020000ff
:1001a80094020000940200009402000094020000ef
:1001b80094020000940200009402000094020000df
:1001c80094020000940200009402000094020000cf
:1001d80094020000940200009402000094020000bf
:1001e80094020000940200009402000094020000af
:0801f8009402000094020000d3
:020000040000fa
:10020800940200009402000094020000940200008e
:10021800940200009402000094020000940200007e
:10022800940200009402000094020000940200006e
:10023800940200009402000094020000940200005e
:10024800940200009402000094020000940200004e
:10025800940200009402000094020000940200003e
:10026800940200009402000094020000940200002e
:10027800940200009402000094020000940200001e
:10028800940200009402000094020000940200000e
:10029800940200004a090000940200009402000041
:1002a80094020000940200009402000094020000ee
:1002b80094020000940200009402000094020000de
:1002c80094020000940200009402000094020000ce
:1002d80094020000940200009402000094020000be
:1002e80094020000940200009402000094020000ae
:1002f800940200009402000094020000940200009e
:10030800940200009402000094020000940200008d
:10031800940200009402000094020000940200007d
:10032800940200009402000094020000940200006d
:10033800940200009402000094020000940200005d
:10034800940200009402000094020000940200004d
:10035800940200009402000094020000940200003d
:10036800940200009402000094020000940200002d
:10037800940200009402000094020000940200001d
:10038800940200009402000094020000940200000d
:1003980094020000940200009402000094020000fd
:1003a80094020000940200009402000094020000ed
:1003b80094020000940200009402000094020000dd
:1003c80094020000940200009402000094020000cd
:1003d80094020000940200009402000094020000bd
:1003e80094020000940200009402000094020000ad
:0803f8009402000094020000d1
:020000040000fa
:0200000401f009
:04001c00fdff0000e4
:020000040000fa
:0200000401f009
:04001800ffff0000e6
:020000040000fa
:0200000401f009
:040014005fff00008a
:020000040000fa
:0200000401f009
:04001000fbff0000f2
:020000040000fa
:0200000401f009
:04000c00d9ff000018
:020000040000fa
:0200000401f009
:04000800ffff0000f6
:020000040000fa
:0200000401f009
:04000000ffff0000fe
:020000040000fa
:1005300050410000434b0000455400002053000090
:10054000454e00005400000050410000434b0000a5
:1005500045540000204e00004f540000205300007e
:10056000454e000054000000486500006c6c00001f
:100570006f200000576f0000726c000064210000c3
:100580000000000000000000123400005678000057
:100590009a0000000a0700000401000000080000a3
:0c05a000050200000b090000060300002b
:020000040000fa
:1005ac000200fa00cf04070000027800e00f5200ae
:1005bc0001003a00ab040700cd82a80080002000a7
:1005cc0001002000f4040700f1c0b30010c0b30018
:1005dc002500070000202100a1072000ee040700e1
:1005ec00d1c8b300a0c2b3001f000700e1c3b30021
:1005fc00b0c2b3001c000700e1c1b300d0c2b3000d
:10060c00190007008040eb00c0c2b30016000700c1
:10061c0001c4b30050c1b30013000700d1c3b30031
:10062c0010c1b3001000070040c1b3002100070047
:10063c0000427800044f78009e4278000582fb004f
:10064c0063026200e00f520005003a001e4278007f
:10065c00634f72009e40780040c1b3000200070057
:10066c000080fa00000006000200fa00004f78003b
:10067c0011479800cd82a9009e4278000582fb00ac
:10068c0004024200044278000474a1000440780083
:10069c00820407001e40900080040700cd82a80051
:1006ac008000200001002000bb0407000080fa003d
:1006bc00000006000400fa0020479800cd82a90033
:1006cc002e4290000482fb00040242008442780017
:1006dc0004c8b30004c27200044078006f04070021
:1006ec000040eb006d04070000027800044f780016
:1006fc00cd82a8001e427800044078000080fa00e9
:10070c00000006000400fa002047980031479800ca
:10071c002e409000e7ff070000427800044f78005d
:10072c003e4290001e427200844078002e409000a1
:10073c00cdff07000080fa00000006000400fa005c
:10074c0020479800314798002e409000d9ff0700b1
:10075c0000427800044f78003e42900084c2ea00c8
:10076c001e42780004c26200844078002e40900043
:10077c00bdff07000080fa00000006001000fa0020
:10078c00881f780040079800214f98006207980056
:10079c00730798000042eb00044f78000042eb0016
:1007ac00644798000042eb00144798002400200096
:1007bc002407980001c8b30040c0b300dfff070056
:1007cc0001c8b300a0c0b300a7ff07008040eb0036
:1007dc0010c0b300a4ff07000002eb001407980040
:1007ec000a0037001e029000ce02900004824200e4
:1007fc00144278008440780090c0b3009aff070040
:10080c001e0290000402e800140798002e4a900083
:10081c008482fb001e029000848f5200f1ff3c008a
:10082c00c1c0b30010c0b3008fff070001c8b300f4
:10083c00d0c0b300b3ff0700047d2000140798005c
:10084c000700370040c0b3009aff07000042780051
:10085c00044f78001e0290000402e900140798006f
:10086c001e4278008482fb00040320000482620094
:10087c00e00f520003003a001e029000e00f5200fd
:10088c00f0ff3c0001c8b300d0c0b300abff0700c1
:10089c001e029000e00f52003400320014002000c1
:1008ac0024079800a0c0b30082ff07000042780024
:1008bc0064479800c0c0b3007eff07000042780078
:1008cc00144798001e42900067426200144798003b
:1008dc001e429000e04f520005003a006e4290001c
:1008ec00350020000522dd00144798000900370070
:1008fc006e4290000482fb000402e900044278007e
:10090c00350020000522dd009e42900004c242000a
:10091c00144798007e0290009e429000054a780091
:10092c000002eb00140798000a0037001e0290002a
:10093c00ee0290000484420090c0b3005dff0700fb
:10094c0000427800044c78001e0290000402e8007b
:10095c00140798006e4290008482fb001e029000e7
:10096c00848f5200f1ff3c00050037000002eb00c1
:10097c0024079800fe0290000042eb00844a7800a5
:10098c002e029000040078004f0478000080fa00da
:10099c00000006000600fa002007980071c0b300a2
:1009ac00d0c0b30030ff0700ae02900064c2b300a9
:1009bc00844a78000e82e800840178002e019000b1
:1009cc0011c0b3002e0090006cff070000027800ed
:1009dc00040f78001e027800e10f520005003a0067
:1009ec002e429000f04f52000200320024002000f2
:1009fc00040f78001e027800040078000080fa00d2
:100a0c00000006000800fa00300798000042eb00d6
:100a1c00444798008040eb00d0c0b30012ff0700a1
:100a2c00be02900034c9b300844a78003e029000a4
:100a3c008402e80004c2b300844a780065024700cf
:100a4c00840178003e01900021c0b3003e0090006c
:100a5c004aff070000027800040f78001e0278009d
:100a6c00e10f520020003a00de42900084c2b30035
:100a7c0084cf52001a003a000002eb0014079800d1
:100a8c000a0037001e029000be0290000482420051
:100a9c0014427800ce42900004c26a004447980089
:100aac001e0290000402e800140798001e02900039
:100abc00e30f5200f3ff34001e029000be029000c0
:100acc0004824200944278004e42900084cf52003f
:100adc000500320024002000040f780002003700cb
:100aec0024002000040f78001e0278000400780017
:100afc000080fa00000006001600fa00200f980093
:100b0c006402470004007800a2ff0700000278008e
:100b1c00040f78001e027800e10f520019003a0011
:100b2c006402470004007800b6ff0700000278005a
:100b3c00040f78001e027800e10f520011003a00f9
:100b4c000002eb00140798000b0037001e02900007
:100b5c00ae0a900084824200640347001e0290009b
:100b6c000402430014427800844a78001e0290006c
:100b7c000402e800140798001e029000e30f5200d4
:100b8c00f2ff34001e027800040078000080fa00a6
:100b9c00000006000000fa00520307000002780073
:100bac00e00f520001003a002e0307001d0207005f
:100bbc0000027800e00f520001003a00000207002a
:100bcc00730007000080fa00000006000400fa0021
:100bdc001007980054168000040f780084ff2f0033
:100bec009e0262001e02900067026200048f720077
:100bfc001e027800641688000080fa0000000600cf
:100c0c000200fa00004f78001e4078002303070012
:100c1c000000eb00edff070040002000ebff070099
:100c2c000000eb00e9ff070080122000010020000b
:100c3c00590307000080fa00000006000200fa00c9
:100c4c00004f78001e4078001403070010002000ad
:100c5c00deff070050002000dcff07001000200022
:100c6c00daff070080122000010020004a03070071
:100c7c000080fa00000006000a00fa003007980015
:100c8c004107980004002100040f78000002eb00db
:100c9c002407980022003700be0290001e02780044
:100cac00110009008482d800000278001407980013
:100cbc00be0290001e027800110009008482d80048
:100ccc0001027800340798001e0278004422de00ee
:100cdc00040f78001e029000e90f520004003e0041
:100cec001e0290000403b0001407980003003700a4
:100cfc001e0290007403b000140798002e0290009e
:100d0c00ce029000848242001e02900004427800c1
:100d1c00844a78002e0290000402e8002407980010
:100d2c001e027800e00f5200dbff3a002e0290000a
:100d3c00ce029000848242000042eb00844a78008c
:100d4c000080fa00000006000a00fa003007980044
:100d5c00014f9800124f98008e0078003e009000d2
:100d6c00c5ff07000e4a9000650020008522dd00bb
:100d7c001e4a900004c2420004407800380007006c
:100d8c000e0078001c0007000080fa00000006002e
:100d9c000000fa0080c3b30099ff070000c42900cb
:100dac0001002000fc02070080c3b30094ff070081
:100dbc0000f4210001002000f702070080c3b300fb
:100dcc008fff070080c3b3008dff0700c0c0b300c6
:100ddc008bff070060c0b30089ff070010c0b30091
:100dec0087ff070000e8230001002000ea0207004b
:100dfc000080fa00000006000400fa0010079800ba
:100e0c000002eb00040f78001e029000e00f52006d
:100e1c0011003200070037001e0278009e0290007d
:100e2c0004824200144278000440780083ff0700db
:100e3c001e0fe8001e0278009e0290000482420001
:100e4c0014427800e04f5200030032001e0278007a
:100e5c00ef0f5200f0ff34000080fa000000060093
:100e6c000200fa00004f780004c8b3001e42720062
:100e7c000440780062ff07000019200001002000e8
:100e8c00c50207000080fa00000006000400fa000a
:100e9c00004f7800110798001e427800e04f520076
:100eac0003003a000040eb00edff070002003700a2
:100ebc0000c4b300eaff07001e009000ceff07003d
:100ecc000080fa00000006000000fa0010c0b30019
:100edc004bff070000e8230001002000ae020700d2
:100eec000080fa00000006000c00fa004007980091
:100efc00214f9800324f98008485250024079800d4
:100f0c000042eb00644798002e4a9000e04f5200dc
:100f1c0003003a000040eb00d1ff0700020037004d
:100f2c0000c4b300ceff07000002eb00040f7800f2
:100f3c00240037001e027800ce029000048242008a
:100f4c0014427800244798002e4290000482fb0043
:100f5c004422de00344798003e429000e94f520094
:100f6c0004003e003e4290000443b0004447980009
:100f7c00030037003e4290007443b0004447980091
:100f8c002e4290006f426200344798003e4290001f
:100f9c00e94f520004003e003e4290000443b00072
:100fac0054479800030037003e4290007443b00051
:100fbc005447980064024700040078008eff070035
:100fcc001e0fe8003e4a90000482fb009e0f520068
:100fdc00d8ff3c000080fa00000006000800fa0070
:100fec0030079800cde2a900c4e2a8003d0207003a
:100ffc0000027800e00f520001003a0019020700cd
:10100c0001c7b30070c0b300670007003e0090003a
:10101c001900070021c0b30050c0b30062000700e4
:10102c0061c2b30060c0b3005f0007000042eb0078
:10103c00044078001ce8b700940580000440a00030
:10104c000450a0000460a0009405880087a0a900ab
:10105c008240a80097a0a800f1c2b30040c0b30022
:10106c005100070000a82100610020004a0207007f
:10107c000080fa00000006000200fa00000f780061
:10108c0052c0b3009e007800a0c0b3003700070028
:10109c0052c0b3009e00780000c1b30033000700bb
:1010ac000080fa00000006000200fa00c4e2a90069
:1010bc0000c0eb00f901070000027800044f780033
:1010cc00c4e2a8001e427800044078000080fa00b8
:1010dc00000006000800fa00004f78001107980085
:1010ec002207980063479800c4e2a9001e407800cc
:1010fc00ea0107006e419000ae0090001e009000c7
:10110c00ff010700c4e2a8000080fa0000000600fe
:10111c000600fa00004f780011079800424798002b
:10112c009e4278007fc26200ce4190001e0190006a
:10113c008000eb0004407800e6ff07000080fa0016
:10114c00000006000400fa002047980012c0b3000b
:10115c008e0078002e409000edff07001e427800b4
:10116c00044078000080fa00000006000600fa0037
:10117c00004f780011079800424798001e427800f3
:10118c00ff42620004c2b30004c27200ce41900060
:10119c000001eb009e00900004407800cdff07009a
:1011ac000080fa00000006000400fa0020479800b6
:1011bc00314798003e429000044f780012c0b300b3
:1011cc008e0078002e409000e8ff07000080fa00a7
:1011dc00000006000200fa00000f780003c1b30003
:1011ec001e0178008000eb0010c6b300b9ff0700a9
:1011fc000080fa00000006000400fa00000f7800de
:10120c001107980000000000c481200014427800ef
:10121c00e04f5200fcff3a00cde2a90014c0b3002d
:10122c00044078001ce8b700e1c0b3000040eb00bc
:10123c00ddff07008041eb000001eb008000eb00bc
:10124c0010ceb300a3ff070003c1b3000001eb00f5
:10125c009e00780000cab3009eff07000200070042
:10126c000080fa00000006000000fa00cde2a800a1
:10127c000005200001002000c7010700cde2a900f5
:10128c000080fa00000006003600f800809fbe00c7
:10129c00829fbe00849fbe00869fbe003400f80073
:1012ac0000002000a00188000200fa0064168000f3
:1012bc004c22de0061426200044f7800cd82a8000f
:1012cc0079ff070000427800144798001e429000f6
:1012dc008482fb000402200004826200e00f5200b2
:1012ec00090032008129280010c0b300e7fe070076
:1012fc0001c2b30070c0b300abff07000042eb00ab
:10130c00044078001ce8b7001e4290000482fb00e9
:10131c0070026200e00f520007003200412a2800e0
:10132c0010c0b300d9fe070001c1b30070c0b300f8
:10133c009dff0700ccff07001e4290008482fb003b
:10134c000404200004826200e00f52000900320005
:10135c00d08120009fff0700d481200084007800fa
:10136c0010c0b300c9fe070001c4b30070c0b300c5
:10137c008dff07009e42780061c262000482fb0070
:10138c00610262004c22dd0066168000f5ff2e0023
:10139c0085026300048272006416880087a0a9008d
:1013ac000080fa003400f9004f03be004f02be006b
:1013bc004f01be004f00be003600f9000040060091
:1013cc000000fa000002eb0004278800040024004f
:1013dc001427880004052000041688000446240005
:1013ec00441688003d0007000002eb001419880029
:1013fc000002eb00241988000002eb00041988009d
:10140c00a4a020004419880021e3a800c4e2a8008d
:10141c00cd82a80014002000044088000080fa004f
:10142c00000006000000fa00044080000400780070
:10143c000080fa00000006000400fa002047980023
:10144c0014168000044f78009e42780004cfb3003d
:10145c0084c262002e4290006f42620004c272008d
:10146c00044f78009e4278000582fb002416880009
:10147c000080fa00000006000400fa001007980033
:10148c0054168000040f780074f82f009e0262003e
:10149c001e0290004323dd00840720000402630039
:1014ac00048f72001e027800641688000080fa0017
:1014bc00000006000000fa001416800070026200a2
:1014cc0004f0a7000402ea000402ea004f22de0046
:1014dc00040078000080fa00000006000400fa0006
:1014ec0050168000100798009e02900004382000cf
:1014fc0004827200140798001e0290006416880083
:10150c000042eb000440780002e8b7000002eb0058
:10151c00040f7800070037001e0278008402420096
:10152c004480200004824200451f2000050a7800f8
:10153c001e0fe8001e027800eb0f5200f6ff34007d
:10154c000080fa00000006000800fa000082eb00a0
:10155c001407980050168000200798002480200063
:10156c00144278000482fb0005082000042add00e8
:10157c000482ea00ae029000048262002407980004
:10158c00ae00900061168800800020000100200051
:10159c00010107000002eb00040f78003500370052
:1015ac0024802000144278000482fb004222dd00db
:1015bc001e024200340798001e0278000442780094
:1015cc0064424200044078009bff0700b9ff07000b
:1015dc0000027800e00f52001f003a003e0290001b
:1015ec0084024200448020000482420014027800ed
:1015fc008402e9003e029000040342004480200073
:10160c0004024300050a78003e0290008402420066
:10161c00448020000482420014027800e00f520043
:10162c0013003a00a52c28003e02900004824200d0
:10163c00144278000482fb00140798003e029000cc
:10164c00840242004480200004824200853821003c
:10165c00050a7800060037003e0290008402420022
:10166c004480200004824200451f2000050a7800b7
:10167c001e0fe8001e027800e30f5200c8ff340072
:10168c0024802000144278000482fb00050820000e
:10169c00042add00ae029000048272002407980038
:1016ac002e029000641688002480200014427800da
:1016bc000482fb008402e8003400200011000900c1
:1016cc008402d800010278000442780004407800bb
:1016dc0002e8b7001e029000044278000440780033
:1016ec000080fa00000006000000fa002023a80089
:1016fc000001200001002000a70007002023a90002
:10170c00000000000419800061026200e00f52002a
:10171c00fcff320004188000040078000080fa00fe
:10172c00000006003600fa007c024700452b28001a
:10173c000c000900355a78000e0278009402b000b3
:10174c0002000900005aeb00c50220008502470088
:10175c00442c280004000900b45a78000002eb0065
:10176c00040f7800050037000e82e8009e0242004c
:10177c0000c2eb00844a78001e0fe8001e027800bd
:10178c00ef0f5200f8ff34000002eb00040f78005a
:10179c000bff0700fffc0700c40220000e024200f2
:1017ac00040078000dfe0700140320000e02420016
:1017bc0052c0b30084007800a0c0b30054fe0700f0
:1017cc00140320000e02420052c0b3008040eb0014
:1017dc0004007800c4fd070000402200410f2000e7
:1017ec006d000700140320000e02420052c0b3002b
:1017fc008400780000c1b30045fe070014032000ec
:10180c000e02420052c0b3008040eb00040078008e
:10181c00b5fd07007c024700c50220008e82420005
:10182c00850078000400780073fe07000002eb00ce
:10183c00040f7800070037001e02780004007800bf
:10184c000dff070000202100a10720005200070017
:10185c001e0fe8001e027800e30f5200f6ff340062
:10186c00f2ff37000000fa00040220001410880078
:10187c000002eb00241088000002eb0034108800fa
:10188c00040420004410880014c0b3000440780005
:10189c002ee8b7000080fa00000006000400fa00f1
:1018ac002047980004108000044f78002e429000ce
:1018bc000482fb000410880000000000441080002b
:1018cc0061026200e00f5200fcff32000410800045
:1018dc00044f78001e427800044078000080fa0023
:1018ec00000006000000fa00e48220001442780098
:1018fc000402fb00040078000080fa0000000600df
:10190c000a00fa002007980031079800024f98004f
:10191c000002eb00040f7800190037002e02900033
:10192c00e00f5200090032001e027800ae02900057
:10193c00048242001442780004407800d7ff07006c
:10194c000042780024479800040037000040eb0068
:10195c00d2ff070000427800244798003e02900016
:10196c00e00f5200050032001e027800be0290000b
:10197c0004824200ae429000054a78001e0fe80037
:10198c000e4a90000482fb009e0f5200e3ff3c00c5
:08199c000080fa0000000600c3
:020000040000fa
:1019a400f03fb1000180b10006003500ee030900ec
:1019b40000000000403fb1000180b100fbff3d008a
:1019c4001000b000203fb000020035000080090084
:0819d400000000000000060005
:020000040000fa
:1019dc00000800001c000000000000002e080000a1
:1019ec0002000000000000001c08000012000000b3
:0819fc000000000000000000e3
:00000001FF
