:020000040000fa
:080000000002040000000000f2
:020000040000fa
:100400000f9620000ebf20000e01880000000000a3
:1004100000012000200288000c000700c06c2100b1
:100420000100200011000700000020000000e00093
:10043000020032000000020000000000b4170200b9
:10044000000000000040da000000fe004440a90067
:10045000601020000000e0000300320000002000d7
:10046000a00188004440a800000006009101880017
:10047000800078000000eb0015003700e2804000ab
:1004800032a0b4009101ba00e280400032a0b40072
:100490009102ba00e280400032a0b4000002eb00fa
:1004a000472bde00f507b200602ce10004003a00a3
:1004b0000059eb008301e900fdff3e000400370016
:1004c0006128e100010032000082eb000400070017
:1004d0001101ba000200e000e8ff3a000000060047
:1004e0003159ba008301e9000c0032002159ba00e9
:1004f0008301e900080032000400e00003003a0034
:10050000e280400032a0b400f5ff370011d9ba00f4
:100510008301e900faff3a008100e800e180400031
:1005200032a0b400000006000040da000000fe0027
:020000040000fa
:100008009402000094020000940200009402000090
:100018009402000094020000940200009402000080
:100028009402000094020000940200000006000000
:10003800940200009402000094020000d20600001e
:100048009402000094020000940200009402000050
:100058009402000094020000940200009402000040
:100068009402000094020000940200009402000030
:100078009402000094020000940200009402000020
:100088009402000094020000940200005c0a000040
:1000980094020000e01300009402000094020000a3
:1000a80094020000940200009402000094020000f0
:1000b80094020000940200009402000094020000e0
:1000c80094020000940200009402000094020000d0
:1000d80094020000940200009402000094020000c0
:1000e80094020000940200009402000094020000b0
:1000f80094020000940200009402000094020000a0
:10010800940200009402000094020000940200008f
:10011800940200009402000094020000940200007f
:10012800940200009402000094020000940200006f
:10013800940200009402000094020000940200005f
:10014800940200009402000094020000940200004f
:10015800940200009402000094020000940200003f
:10016800940200009402000094020000940200002f
:10017800940200009402000094020000940200001f
:10018800940200009402000094020000940200000f
:1001980094020000940200009402000094020000ff
:1001a80094020000940200009402000094020000ef
:1001b80094020000940200009402000094020000df
:1001c80094020000940200009402000094020000cf
:1001d80094020000940200009402000094020000bf
:1001e80094020000940200009402000094020000af
:0801f8009402000094020000d3
:020000040000fa
:10020800940200009402000094020000940200008e
:10021800940200009402000094020000940200007e
:1002280094020000940200009402000000060000fe
:10023800940200009402000094020000d20600001c
:10024800940200009402000094020000940200004e
:10025800940200009402000094020000940200003e
:10026800940200009402000094020000940200002e
:10027800940200009402000094020000940200001e
:100288009402000094020000940200005c0a00003e
:1002980094020000e01300009402000094020000a1
:1002a80094020000940200009402000094020000ee
:1002b80094020000940200009402000094020000de
:1002c80094020000940200009402000094020000ce
:1002d80094020000940200009402000094020000be
:1002e80094020000940200009402000094020000ae
:1002f800940200009402000094020000940200009e
:10030800940200009402000094020000940200008d
:10031800940200009402000094020000940200007d
:10032800940200009402000094020000940200006d
:10033800940200009402000094020000940200005d
:10034800940200009402000094020000940200004d
:10035800940200009402000094020000940200003d
:10036800940200009402000094020000940200002d
:10037800940200009402000094020000940200001d
:10038800940200009402000094020000940200000d
:1003980094020000940200009402000094020000fd
:1003a80094020000940200009402000094020000ed
:1003b80094020000940200009402000094020000dd
:1003c80094020000940200009402000094020000cd
:1003d80094020000940200009402000094020000bd
:1003e80094020000940200009402000094020000ad
:0803f8009402000094020000d1
:020000040000fa
:0200000401f009
:04001c00fdff0000e4
:020000040000fa
:0200000401f009
:04001800ffff0000e6
:020000040000fa
:0200000401f009
:040014005fff00008a
:020000040000fa
:0200000401f009
:04001000fbff0000f2
:020000040000fa
:0200000401f009
:04000c00d9ff000018
:020000040000fa
:0200000401f009
:04000800ffff0000f6
:020000040000fa
:0200000401f009
:04000000ffff0000fe
:020000040000fa
:10053000526100006e6400006f6d0000697a000077
:10054000650000005365000074000000456e000067
:1005500067610000676500000043000068650000f7
:10056000636b0000004400006561000063740000dc
:1005700069760000617400006500000043790000a6
:10058000636c000065000000507200006f76000090
:10059000696400006500000044650000706c0000a4
:1005a0006f790000004600004c4900005000000038
:1005b000456a000065630000740000005665000095
:1005c0006e740000004600006c6f00006f64000055
:1005d00000430000726100006e6b000000410000eb
:1005e0006c690000676e0000004100007574000037
:1005f000686500006e7400006963000061740000ab
:10060000696f00006e000000416900007262000026
:1006100061670000005400006872000075730000fc
:10062000746500007200000056610000706f0000e9
:10063000726900007a6500007200000050690000d5
:100640006c6f000074000000496d000070650000d0
:100650006c6c000065720000004300006f6d0000cc
:1006600062750000737400006f72000000440000a7
:1006700069730000746900006c6c00006572000012
:100680000053000068690000656c0000647300009e
:10069000004e000065740000776f0000726b000070
:1006a00000520000656600006c6500006374000085
:1006b0006f72000000530000657100007565000056
:1006c0006e6300006572000000500000657200005b
:1006d000636f00006c610000746f00007200000026
:1006e000594f0000555200002053000048490000b7
:1006f00050000000666f000072000000746f000080
:10070000002000003d200000000000000a0700005b
:100710000401000000080000050200000b090000b1
:1007200006030000474100004d450000204f000037
:0c073000564500005221000000000000af
:020000040000fa
:10073c000200fa000002eb00244088000002eb00eb
:10074c00040f7800070037001e027800c322dd007a
:10075c00a480200004824200e5002000050a7800f5
:10076c001e0fe8001e027800e70f5200f6ff34005f
:10077c000002eb00040f78000500370024852000f0
:10078c009e0242000042eb00844a78001e0fe800f3
:10079c001e027800e30f5200f8ff34000080fa00cc
:1007ac00000006000000fa00e1ff07004508070002
:1007bc00ff02070011c0b3000040eb007d050700ed
:1007cc00d4050700fb000700440107000080fa0075
:1007dc00000006000200fa00000f78000f09070065
:1007ec00000278000508800005026a0004408800b9
:1007fc001e0078001040880014002000244088005f
:10080c0084c0b3000440780008e8b7001800070063
:10081c000080fa00000006000200fa00044080008c
:10082c00c222de000440800084826a000440800002
:10083c004322de0084826a00044080004522de00f0
:10084c0004826a00610f6200044080008402d100bf
:10085c001e0278004f22dd000482720004408800e2
:10086c0004408000040078000080fa0000000600bc
:10087c000200fa00e8ff070000027800040f78007d
:10088c001e0278000442780067426200a5842000b2
:10089c00a4429800e0ff070000027800040f7800e3
:1008ac009e027800e4002000110009008482d80028
:1008bc000102780084027800a4842000050a7800e4
:1008cc00a484200014027800e10f520005003a00c5
:1008dc00a4842000140278008402e800a484200080
:1008ec00050a7800ccff070000027800040f78009e
:1008fc00a484200014027800e10f5200170032008b
:10090c00e10f520003003900e20f52000a003200de
:10091c00160037009e0278000471220011000900b5
:10092c008482d8000102780084027800a48420001c
:10093c0025029800110037009e027800a4002000c8
:10094c00110009008482d80001027800840278002a
:10095c00a48420002502980008003700a4842000fd
:10096c008002eb002502980004003700a4842000cc
:10097c008002eb002502980000000000a4842000f7
:10098c0024039000a484200024429000a58420001d
:10099c009502780086017800044178008500780083
:1009ac000000eb003d09070084c0b3000440780050
:1009bc0006e8b7000002eb00040888009460a80069
:1009cc000080fa00000006000a00fa0020079800d8
:1009dc0061479800420798000002eb00040f780072
:1009ec003d0037001e027800c322dd00a4802000e9
:1009fc000482420014027800ee0f520035003a00d7
:100a0c001e027800c322dd00a48020000482420074
:100a1c00ae029000050a78001e027800c322dd00a9
:100a2c00c480200004824200ee429000054a780007
:100a3c001e027800c322dd00048120008482420063
:100a4c0094c1b300844a78002e029000e20f520049
:100a5c0019003600ae029000a489200004824200e6
:100a6c001442780004407800c50707000042780063
:100a7c00244798002e429000e04f520007003a00a5
:100a8c001e027800c322dd00e480200004824200b4
:100a9c0015002000050a7800120037001e027800ad
:100aac00c322dd00e4802000048242008002eb00bf
:100abc00050a78000b0037001e027800c322dd0007
:100acc00e480200004824200ce029000050a7800e7
:100adc00040037001e0fe8001e027800e70f5200da
:100aec00c0ff34000080fa00000006000800fa0085
:100afc001007980041479800320798000002eb005d
:100b0c00040f7800210037001e0278004322dd001c
:100b1c008482e800a4802000048242009442780081
:100b2c004e42900084cf520017003a001e0278000b
:100b3c00c322dd00a48020000482420094027800cd
:100b4c001e029000848f52000f003a001e027800a3
:100b5c004322dd00e4024200a48020000482420013
:100b6c00940278003e029000848f520006003a00f6
:100b7c001e027800c322dd00a48020000482420003
:100b8c00e5002000050a78001e0fe8001e02780020
:100b9c00e70f5200dcff34000080fa000000060072
:100bac000000fa009460a90031ff07000080fa00f1
:100bbc00000006000000fa000082eb001408880018
:100bcc000002eb00040888002405800004c0a1008a
:100bdc0004d0a00004e0a000240588008460a900d3
:100bec009460a90004032800240888000080fa00ff
:100bfc00000006003600f800809fbe00829fbe00f9
:100c0c00849fbe00869fbe003400f80000002000c8
:100c1c00a00188000000fa0024408000e10f52007f
:100c2c0025003a0064802000144278000442e90058
:100c3c000440780006e8b700648020001442780075
:100c4c00e04f52001c003a009460a900a4842000dc
:100c5c0024039000a484200024429000a58420004a
:100c6c0095027800860178000441780085007800b0
:100c7c00200020008908070084802000144278009e
:100c8c000442e9000440780008e8b70084802000a2
:100c9c0014427800e04f520006003a00a4fe070010
:100cac0055030700213928000040eb0029030700f9
:100cbc0001003700eefe07008460a9000080fa00f6
:100ccc003400f9004f03be004f02be004f01be00be
:100cdc004f00be003600f900004006000000fa008c
:100cec0004022000440888000042eb000440780015
:100cfc0006e1b7003405800004c0a00004d0a100b8
:100d0c0004e0a0003405880084e0a90094e0a80069
:100d1c00f4072000540888000080fa000000060048
:100d2c000200fa000002eb00040f780080c0b30050
:100d3c001307070000427800e04f520006003a000b
:100d4c0084852000144278000442e90004407800b5
:100d5c0058e8b7000300370094c1b3000440780092
:100d6c0058e8b7008485200014427800e04f520008
:100d7c0005003a0014002000040f780094c1b30061
:100d8c000440780058e8b7001e0278000400780090
:100d9c000080fa00000006003600f800809fbe00bc
:100dac00829fbe00849fbe00869fbe003400f80068
:100dbc0000002000a00188000200fa0024408000fe
:100dcc00e10f520032003a000002eb00040f7800f1
:100ddc002a0037001e027800c322dd00a480200008
:100dec000482420014027800ee0f520022003200fe
:100dfc001e0078003500070000027800e00f52005a
:100e0c001d0032001e0278004322dd00e402420085
:100e1c00a480200004824200140378001e02780093
:100e2c004322dd008482e800a4802000048242007a
:100e3c00144278009e027800c32bdd00a5802000b0
:100e4c008582430095027800860178000441780081
:100e5c008500780010002000100807001e027800a2
:100e6c00c322dd00a480200004824200e5002000a3
:100e7c00050a78007efe07001e0fe8001e027800af
:100e8c00e70f5200d3ff340028010700060037009b
:100e9c00a3ff070000027800e00f520002003200ae
:100eac00100020004bfe070084e0a9000080fa002f
:100ebc003400f9004f03be004f02be004f01be00cc
:100ecc004f00be003600f900004006000400fa0096
:100edc00100798000002eb00040f78001e0290002f
:100eec00c322dd00a480200004824200140278009a
:100efc00e10f520010003200e10f520003003900e4
:100f0c00e20f520017003200210037001e02900041
:100f1c004322dd00e4024200a4802000048242004f
:100f2c001402780004007800220007000002780008
:100f3c00040f78001b0037001e0290004322dd00d6
:100f4c00e4024200a48020000482420014027800d3
:100f5c00040078007a00070000027800040f780083
:100f6c00100037001e0290004322dd00e402420014
:100f7c00a48020000482420014027800040078004f
:100f8c00d200070000027800040f7800050037003b
:100f9c001e0090009400070000027800040f7800f7
:100fac00000000001e027800040078000080fa00a7
:100fbc00000006000c00fa00500798000002eb003d
:100fcc00140798000082eb0024079800843e200050
:100fdc0034079800ab06070000427800044f9800d5
:100fec000e4a9000e14f42003e0032000e4a900043
:100ffc000482fb00ea0f520010003200eb0f52008b
:10100c0028003a000002eb00040f780005003700be
:10101c00248520009e0242000042eb00844a7800a6
:10102c001e0fe8001e027800e30f5200f8ff340098
:10103c000002eb00b4428800270037000002eb00ee
:10104c00240798000002eb00040f78001100370011
:10105c00248520001e024200144278008482fb008a
:10106c003e02900004aab90004027800ae0290007f
:10107c000482420024079800be029000a4002000c5
:10108c00110009008482d80000027800340798000f
:10109c001e0fe8001e027800e30f5200ecff340034
:1010ac000d003700b54280002485200004824200e8
:1010bc008e4a9000054a7800b44280008402e80011
:1010cc0044002000110009008402d80001027800bd
:1010dc00b442880000000000248520000400780041
:1010ec0047030700ae0290005e029000848f52000e
:1010fc000f003a000002eb00040f780005003700e7
:10110c00248520009e0242000042eb00844a7800b5
:10111c001e0fe8001e027800e30f5200f8ff3400a7
:10112c0010c0b300e8020700140020001407980058
:10113c001e029000040078000080fa0000000600f7
:10114c000c00fa00500798000002eb0014079800fe
:10115c000002eb00240798006602470004007800a8
:10116c00c204070000027800e10f52001a003a0096
:10117c000002eb00040f78000f00370066024700f6
:10118c001e024200944278005e0290004222dd0072
:10119c001e034200a4852000040243001442780080
:1011ac0084cf520003003a002e0290000402e800a3
:1011bc00240798001e0fe8001e027800e30f52006f
:1011cc00eeff34002e029000e40f520002003a00b1
:1011dc0014002000140798001e02900004007800f0
:1011ec000080fa00000006000400fa0010079800c6
:1011fc000002eb00040f78001e029000c322dd00f9
:10120c00a48020000482420094027800a48920006b
:10121c00048242001442780004407800d80507008c
:10122c00004278008482fb001e0290004322dd0005
:10123c0064034200a48020000402430014027800de
:10124c00848f520017003a001e0290004322dd00ea
:10125c00e6024200a480200004824200144278007e
:10126c000442e9009e029000432bdd000581200022
:10127c0085024300844a78001e0290004322dd0060
:10128c00e6024200a480200004824200144278004e
:10129c00e04f520009003a0014002000040f7800bf
:1012ac00060037001e029000c322dd0004812000de
:1012bc008482420094c1b300844a78001e027800f4
:1012cc00040078000080fa00000006000600fa0016
:1012dc00200798000002eb00040f78004f0607006f
:1012ec0000027800140798009e029000640620000b
:1012fc00110009008482d800000278000402e80082
:10130c00140798009e0290002e029000848f5200c9
:10131c0002003a0014002000040f78001e0278002e
:10132c00040078000080fa00000006000000fa00bb
:10133c00758020009542780064802000144278006b
:10134c0084cf52000d0039007480200014427800c4
:10135c00e74f52000e0036007480200014427800d3
:10136c008482fb0084802000144278000482fb00fd
:10137c0068024200848f520005003d0074802000fa
:10138c00144278000482fb000400780088050700f2
:10139c0074802000144278000442e8006f4262001e
:1013ac000440780007e8b7000080fa00000006004f
:1013bc000000fa004806070000027800e00f520017
:1013cc0001003a00240607005805070000027800c7
:1013dc00e00f520001003a003a0507000041eb0013
:1013ec0011c2b300808a2000240207000041eb00e8
:1013fc0011c2b300908c2000200207000042eb00c9
:10140c0004407800ece8b7000042eb0004407800a0
:10141c00ede8b7000042eb0004407800eae8b700c2
:10142c000042eb0004407800ebe8b7000042eb0010
:10143c0004407800eee8b7000042eb00044078006e
:10144c00efe8b7000042eb0004407800f0e8b7008a
:10145c000042eb0004407800f1e8b70003000700fd
:10146c00170107000080fa00000006000000fa00d7
:10147c00f40f2000a40888000002eb0094088800f8
:10148c008405800004c0a10004d0a10004e0a000e9
:10149c00840588008760a9009760a800f4072000e5
:1014ac00b40888000080fa00000006003600f8003e
:1014bc00809fbe00829fbe00849fbe00869fbe00a0
:1014cc003400f80000002000a00188000000fa00a1
:1014dc00e48e200014427800e14f520009003200e3
:1014ec00258f200095427800b4c3b30084cf5200fe
:1014fc0009003a00c48e200014427800e14f5200db
:10150c0005003a000040eb00290007000042eb0008
:10151c0004407800eee8b700f48e20001442780006
:10152c00e14f520009003200258f200095427800cf
:10153c00b4c3b30084cf520009003a00d48e20000b
:10154c0014427800e14f520005003a0010c0b3007d
:10155c00170007000042eb0004407800efe8b700ea
:10156c00248f2000144278000482fb008402e800df
:10157c00c4032000110009008402d8000102780085
:10158c000442780004407800f2e8b7008760a900b4
:10159c000080fa003400f9004f03be004f02be0079
:1015ac004f01be004f00be003600f900004006009f
:1015bc000e00fa00404f98000042eb00244f9800b8
:1015cc004e4a9000e04f52000c003a00848a2000f2
:1015dc00040f7800a48e200014079800ecc8bf00fc
:1015ec00404798000042eb0064479800018f2000b0
:1015fc0091407800514798000c003700948c2000e3
:10160c00040f7800b48e200014079800d48e2000ac
:10161c00144278004447980004c4b300644798000f
:10162c00158f200095427800554798006e40900029
:10163c00bd0007004e429000e14f520013003a00eb
:10164c005e429000f04f5200100036001e029000d7
:10165c0014407800204f98002e4a90000482fb0022
:10166c008402e8005e4290000482fb000402e80061
:10167c00110009008402d8000102780004427800ad
:10168c009e029000844a78000200370004c1b30027
:10169c00544798000002eb004407980013003700f1
:1016ac002e4a90000482fb001e0242001442780075
:1016bc00044078002e0007002e4a90000482fb00a4
:1016cc008402e8005e4290000482fb000402e80001
:1016dc00110009008402d80001027800244f980000
:1016ec004e0290000402e800440798004e0290005d
:1016fc00ef0f5200eaff34000080fa0000000600f1
:10170c000400fa001007980054168000040f7800ab
:10171c0084ff2f009e0262001e029000670262008e
:10172c00048f72001e027800641688000080fa0094
:10173c00000006000200fa00004f78001e407800fe
:10174c00530507000000eb00edff070040002000f0
:10175c00ebff07000000eb00e9ff07008012200000
:10176c0001002000ef0507000080fa0000000600d1
:10177c000200fa00004f78001e427800e04f520041
:10178c00030032001e4078004105070002003700bc
:10179c0000c2b3003e05070010002000d8ff070070
:1017ac0050002000d6ff070010002000d4ff0700d7
:1017bc008012200001002000da0507000080fa00ea
:1017cc00000006000a00fa00300798004107980054
:1017dc0004002100040f78000002eb00240798009d
:1017ec0022003700be0290001e0278001100090092
:1017fc008482d8000002780014079800be02900082
:10180c001e027800110009008482d80001027800c1
:10181c00340798001e0278004422de00040f780082
:10182c001e029000e90f520004003e001e029000c0
:10183c000403b00014079800030037001e02900048
:10184c007403b000140798002e029000ce02900092
:10185c00848242001e02900004427800844a780080
:10186c002e0290000402e800240798001e02780063
:10187c00e00f5200dbff3a002e029000ce029000e7
:10188c00848242000042eb00844a78000080fa0017
:10189c00000006000a00fa0030079800014f98007b
:1018ac008e0078003e009000c6ff07008e00780086
:1018bc000e489000270007000080fa000000060088
:1018cc000000fa0080c3b3009aff070000c429008f
:1018dc00010020009305070080c3b30095ff0700ab
:1018ec0000f42100010020008e05070080c3b30026
:1018fc0090ff070080c3b3008eff0700c0c0b30089
:10190c008cff070060c0b3008aff070010c0b30053
:10191c0088ff070000e82300010020008105070074
:10192c000080fa00000006000200fa00004f780068
:10193c0004c8b3001e427200044078007dff07000b
:10194c000019200001002000760507000080fa0035
:10195c00000006000c00fa00004f98005107980098
:10196c000e4a9000e04f520009003a00848a200091
:10197c00040f7800e48e200014079800048f2000d8
:10198c0024079800a48e2000340798000800370024
:10199c00948c2000040f7800f48e2000140798001b
:1019ac00148f200024079800b48e20003407980070
:1019bc00be0290000042eb00844a78000041eb002c
:1019cc0001c2b3001e007800ac0007009e00780036
:1019dc005e009000d200070000427800ae0290003a
:1019ec00844a78009e02900014c0b300844a7800a8
:1019fc000080fa00000006000000fa0010c0b300de
:101a0c004cff070000e823000100200045050700fb
:101a1c000080fa00000006000c00fa004007980055
:101a2c0051079800843e2000040f78000042eb0020
:101a3c00244798004e009000200798001c003700a7
:101a4c00ae0290001e027800110009008482d800ba
:101a5c000002780064479800ae0290001e027800e5
:101a6c00110009008482d800010278002407980034
:101a7c009e027800a4002000110009008482d80086
:101a8c0000027800040f78002e4290000482fb00c4
:101a9c00de029000848242006e4290000443b0004b
:101aac00844a78002e4290000442e80024479800b3
:101abc001e027800e00f5200e1ff3a002e42900027
:101acc000482fb00de029000848242000042eb00a4
:101adc00844a78000080fa00000006003000fa000a
:101aec0050179800416f9800721798005e12900082
:101afc0084024200848f200004824200140f78007c
:101b0c005e12900084024200449120000482420044
:101b1c009402780015079800540220000e0242002f
:101b2c00840078007e109000bbff07006502470020
:101b3c000041eb0001c2b300040078004f00070025
:101b4c0065024700840078001e00780074000700ce
:101b5c0000427800444798004e4290000482fb00fb
:101b6c008402470004c2b300d44298004e42900055
:101b7c000442e800444798004e4290000482fb0067
:101b8c00e502470004824200840078001e009000a9
:101b9c006300070000427800ce42900004c242006d
:101bac00444798005e129000e20f52002d003e0058
:101bbc004e4290000482fb008402470004c2b30032
:101bcc00d44298004e4290000442e80044479800ea
:101bdc004e4290000482fb00e502470084824200e2
:101bec005e12900004034200448f20000402430064
:101bfc001402780085007800040078004800070083
:101c0c0000427800ce42900004c242004447980043
:101c1c004e4290000482fb008402470004c2b300d1
:101c2c00d44298004e4290000442e8004447980089
:101c3c004e4290000482fb00e50247008482420081
:101c4c00540220000e024200850078000400780047
:101c5c003300070000427800ce42900004c24200dc
:101c6c004447980065024700840078000040eb0070
:101c7c0038ff07000080fa00000006000600fa009a
:101c8c001007980041479800524798000002eb005b
:101c9c00040f7800060037001e0278009e029000a8
:101cac00848242005e429000844a78001e0fe80055
:101cbc004e4290000482fb009e0f5200f6ff3c0047
:101ccc000080fa00000006000200fa00004f7800c5
:101cdc001e427800e04f520008003a000041eb0031
:101cec0001c2b300808a2000e4ff070014c0b300d7
:101cfc0004407800eee8b700070037000041eb0025
:101d0c0001c2b300908c2000dcff070014c0b300ac
:101d1c0004407800efe8b7000080fa0000000600ed
:101d2c000600fa0010079800210798000042eb000b
:101d3c00044f78000b0037009e4278000582fb00b0
:101d4c00ae029000848242001e4378000682fb00a3
:101d5c001e0390000402430014427800844a780069
:101d6c001e4fe8009e4278000582fb009e02900008
:101d7c000482420014427800e04f5200030032000b
:101d8c001e427800ff4f5200ebff36001e437800d6
:101d9c000682fb00ae029000848242000042eb00ff
:101dac00844a78001e427800044078000080fa00d3
:101dbc00000006000200fa00004f7800114798005e
:101dcc001e427800e04f520006003a001e40900080
:101ddc00ece8b7000042eb0004407800eae8b700fa
:101dec00050037001e409000ede8b7000042eb0004
:101dfc0004407800ebe8b7000080fa000000060011
:101e0c002a00fa00401798000042eb002447980083
:101e1c00630247000041eb0001c2b30004007800ec
:101e2c0096ff07000002eb00040f78000a00370051
:101e3c001e027800ce1290000482420014427800f8
:101e4c000443b000350220008e8242009e82420084
:101e5c00844a78001e0fe8001e027800e30f52003f
:101e6c00f3ff3400340220000e0242009e024200b6
:101e7c000042eb00844a7800a4488000e30247004b
:101e8c008500780004007800a5ff07000042780068
:101e9c00ae42900004c24200244798002e429000ab
:101eac000482fb00e30247000482420084007800b5
:101ebc00103828009aff070000427800ae429000cc
:101ecc0004c24200244798002e4290000482fb007a
:101edc00e302470084824200340220000e024200da
:101eec0085007800040078008dff07000042780020
:101efc00ae42900004c2420024479800630247009f
:101f0c008400780010c0b30092fe07000080fa0035
:101f1c00000006000200fa006f03070000027800c0
:101f2c00e00f520001003a004b030700cd82a800dd
:101f3c008000200001002000fa030700f1c0b3006c
:101f4c0010c0b3002500070000202100a1072000cd
:101f5c00f4030700d1c8b300a0c2b3001f000700f0
:101f6c00e1c3b300b0c2b3001c000700e1c1b30071
:101f7c00d0c2b300190007008040eb00c0c2b30010
:101f8c001600070001c4b30050c1b30013000700d2
:101f9c00d1c3b30010c1b3001000070040c1b3009f
:101fac002100070000427800044f78009e42780020
:101fbc000582fb0063026200e00f520005003a004c
:101fcc001e427800634f72009e40780040c1b300ff
:101fdc00020007000080fa00000006000200fa0070
:101fec00004f780011479800cd82a9009e427800de
:101ffc000582fb0004024200044278000474a10034
:10200c0004407800220307001e40900020030700c4
:10201c00cd82a8008000200001002000c103070031
:10202c000080fa00000006000400fa002047980027
:10203c00cd82a9002e4290000482fb0004024200d3
:10204c008442780004c8b30004c2720004407800d3
:10205c000f0307000040eb000d030700000278009f
:10206c00044f7800cd82a8001e427800044078000e
:10207c000080fa00000006000400fa0020479800d7
:10208c00314798002e409000e7ff0700004278008f
:10209c00044f78003e4290001e427200844078004b
:1020ac002e409000cdff07000080fa0000000600d3
:1020bc000400fa0020479800314798002e40900009
:1020cc00d9ff070000427800044f78003e42900090
:1020dc0084c2ea001e42780004c262008440780088
:1020ec002e409000bdff07000080fa0000000600a3
:1020fc001000fa00881f780040079800214f9800c4
:10210c0062079800730798000042eb00044f7800b8
:10211c000042eb00644798000042eb001447980023
:10212c00240020002407980001c8b30040c0b3006d
:10213c00dfff070001c8b300a0c0b300a7ff070072
:10214c008040eb0010c0b300a4ff07000002eb00be
:10215c00140798000a0037001e029000ce0290006f
:10216c0004824200144278008440780090c0b3008e
:10217c009aff07001e0290000402e8001407980062
:10218c002e4a90008482fb001e029000848f520025
:10219c00f1ff3c00c1c0b30010c0b3008fff0700bb
:1021ac0001c8b300d0c0b300b3ff0700047d20000a
:1021bc00140798000700370040c0b3009aff0700cf
:1021cc0000427800044f78001e0290000402e900df
:1021dc00140798001e4278008482fb000403200040
:1021ec0004826200e00f520003003a001e029000cd
:1021fc00e00f5200f0ff3c0001c8b300d0c0b300a8
:10220c00abff07001e029000e00f520034003200ba
:10221c001400200024079800a0c0b30082ff070020
:10222c000042780064479800c0c0b3007eff0700ee
:10223c0000427800144798001e42900067426200ea
:10224c00144798001e429000e04f520005003a00df
:10225c006e429000350020000522dd0014479800e6
:10226c00090037006e4290000482fb000402e90072
:10227c0004427800350020000522dd009e429000cb
:10228c0004c24200144798007e0290009e429000c7
:10229c00054a78000002eb00140798000a0037008a
:1022ac001e029000ee0290000484420090c0b30025
:1022bc005dff070000427800044c78001e0290007d
:1022cc000402e800140798006e4290008482fb0020
:1022dc001e029000848f5200f1ff3c000500370075
:1022ec000002eb0024079800fe0290000042eb0075
:1022fc00844a78002e029000040078004f04780085
:10230c000080fa00000006000600fa002007980082
:10231c0071c0b300d0c0b30030ff0700ae02900014
:10232c0064c2b300844a78000e82e800840178000d
:10233c002e01900011c0b3002e0090006cff07001e
:10234c0000027800040f78001e027800e10f5200a2
:10235c0005003a002e429000f04f5200020032006d
:10236c0024002000040f78001e027800040078007e
:10237c000080fa00000006000800fa003007980000
:10238c000042eb00444798008040eb00d0c0b30003
:10239c0012ff0700be02900034c9b300844a7800d3
:1023ac003e0290008402e80004c2b300844a780024
:1023bc0065024700840178003e01900021c0b30003
:1023cc003e0090004aff070000027800040f7800de
:1023dc001e027800e10f520020003a00de4290000d
:1023ec0084c2b30084cf52001a003a000002eb0002
:1023fc00140798000a0037001e029000be029000dd
:10240c000482420014427800ce42900004c26a005a
:10241c00444798001e0290000402e800140798003c
:10242c001e029000e30f5200f3ff34001e029000d6
:10243c00be02900004824200944278004e4290000a
:10244c0084cf52000500320024002000040f7800d5
:10245c000200370024002000040f78001e027800d0
:10246c00040078000080fa00000006001600fa0054
:10247c00200f98006402470004007800a2ff0700b8
:10248c0000027800040f78001e027800e10f520061
:10249c0019003a006402470004007800b6ff0700f8
:1024ac0000027800040f78001e027800e10f520041
:1024bc0011003a000002eb00140798000b003700e3
:1024cc001e029000ae0a9000848242006403470012
:1024dc001e0290000402430014427800844a7800e3
:1024ec001e0290000402e800140798001e029000df
:1024fc00e30f5200f2ff34001e0278000400780053
:10250c000080fa00000006000200fa00000f7800bc
:10251c00cde2a900c4e2a800ef0107000002780098
:10252c00e00f520001003a00cb01070001c7b300d5
:10253c0070c0b300670007001e0078001900070088
:10254c0021c0b30050c0b3006200070061c2b300e9
:10255c0060c0b3005f0007000042eb00044078004d
:10256c004ce9b700940580000440a0000450a00082
:10257c000460a0009405880087a0a9008240a800f0
:10258c0097a0a800f1c2b30040c0b30051000700ef
:10259c0000a8210061002000620207000080fa0000
:1025ac00000006000200fa00000f780052c0b300d1
:1025bc009e007800a0c0b3003700070052c0b300e3
:1025cc009e00780000c1b300330007000080fa00c1
:1025dc00000006000200fa00c4e2a90000c0eb00f3
:1025ec00ab01070000027800044f7800c4e2a80099
:1025fc001e427800044078000080fa0000000600bb
:10260c000800fa00004f7800110798002207980084
:10261c0063479800c4e2a9001e4078009c010700a3
:10262c006e419000ae0090001e009000b1010700ba
:10263c00c4e2a8000080fa00000006000600fa00c0
:10264c00004f780011079800424798009e4278008e
:10265c007fc26200ce4190001e0190008000eb0012
:10266c0004407800e6ff07000080fa000000060036
:10267c000400fa002047980012c0b3008e007800c6
:10268c002e409000edff07001e42780004407800b9
:10269c000080fa00000006000600fa00004f7800e7
:1026ac0011079800424798001e427800ff426200d2
:1026bc0004c2b30004c27200ce4190000001eb00d2
:1026cc009e00900004407800cdff07000080fa00c7
:1026dc00000006000400fa002047980031479800db
:1026ec003e429000044f780012c0b3008e00780078
:1026fc002e409000e8ff07000080fa000000060062
:10270c000200fa00000f780003c1b3001e0178002c
:10271c008000eb0010c6b300b9ff07000080fa0080
:10272c00000006000400fa00000f78001107980062
:10273c0000000000c494200014427800e04f5200c6
:10274c00fcff3a00cde2a90014c0b30004407800ad
:10275c004ce9b700e1c0b3000040eb00ddff07001f
:10276c008041eb000001eb008000eb0010ceb300c9
:10277c00a3ff070003c1b3000001eb009e0078002b
:10278c0000cab3009eff0700020007000080fa0099
:10279c00000006000000fa00cde2a80000052000b1
:1027ac0001002000df010700cde2a9000080fa0043
:1027bc00000006003600f800809fbe00829fbe001d
:1027cc00849fbe00869fbe003400f80000002000ed
:1027dc00a00188000200fa00641680004c22de0082
:1027ec0061426200044f7800cd82a80079ff070097
:1027fc0000427800144798001e4290008482fb002f
:10280c000402200004826200e00f52000600320035
:10281c0001c2b30070c0b300aeff07000042eb0072
:10282c00044078004ce9b7001e4290000482fb0083
:10283c0070026200e00f52000400320001c1b300cc
:10284c0070c0b300a3ff0700d2ff07001e42900028
:10285c008482fb000404200004826200e00f52001a
:10286c0005003200d0942000a5ff070001c4b3007e
:10287c0070c0b30097ff07009e42780061c26200ef
:10288c000482fb00610262004c22dd0066168000af
:10289c00f5ff2e0085026300048272006416880026
:1028ac0087a0a9000080fa003400f9004f03be0095
:1028bc004f02be004f01be004f00be003600f900b3
:1028cc00004006000000fa000002eb00042788001c
:1028dc000400240014278800040520000416880036
:1028ec0004402400441688004b0007000002eb0053
:1028fc00141988000002eb00241988000002eb0078
:10290c0004198800a4a020004419880021e3a80021
:10291c00c4e2a800cd82a8003f00070014002000ec
:10292c00844988000080fa00000006000000fa00cc
:10293c0084498000040078000080fa000000060042
:10294c000400fa002047980014168000044f780009
:10295c009e42780004cfb30084c262002e429000e5
:10296c006f42620004c27200044f78009e427800ed
:10297c000582fb00241688000080fa000000060087
:10298c000200fa00004f78001e407800ecff0700b0
:10299c00001920000100200062010700130007004d
:1029ac0000427800044078000080fa000000060025
:1029bc000400fa001007980054168000040f7800e9
:1029cc0074f82f009e0262001e0290004323dd006b
:1029dc008407200004026300048f72001e0278003a
:1029ec00641688000080fa00000006000200fa005d
:1029fc00141680004422de00614262000482fb0057
:102a0c00040f78001e02780004427800044078001d
:102a1c000080fa00000006000400fa005016800046
:102a2c00100798009e029000043820000482720067
:102a3c00140798001e029000641688000042eb00f8
:102a4c000440780032e9b7000002eb00040f780074
:102a5c00070037001e0278008402420044932000d5
:102a6c000482420095012000050a78001e0fe80040
:102a7c001e027800eb0f5200f6ff34000080fa00c3
:102a8c00000006000800fa0000c2eb002447980082
:102a9c0050168000200798002493200014427800e0
:102aac000482fb0005082000042add000482ea00f1
:102abc00ae0290000482620024079800ae009000e1
:102acc00611688000002eb00040f78003700370015
:102adc0024932000144278000482fb004222dd0083
:102aec001e024200340798001e027800044278004f
:102afc00644242000440780091ff07000019200056
:102b0c000100200007010700b8ff07000042780011
:102b1c00e04f52001e003a003e0290008402420038
:102b2c004493200004824200140278008402e900dd
:102b3c003e02900004034200449320000402430030
:102b4c00050a78003e029000840242004493200063
:102b5c000482420014027800e00f520012003a0086
:102b6c00653828003e0290000482420094427800ae
:102b7c00254798003e0290008402420044932000b6
:102b8c0004824200451f2000050a78000600370029
:102b9c003e029000840242004493200004824200d2
:102bac0095012000050a78001e0fe8001e0278002f
:102bbc00e30f5200c6ff3400249320001442780027
:102bcc000482fb0005082000042add00ae02900000
:102bdc0004827200240798002e0090006016880072
:102bec0024932000144278000482fb008402e80045
:102bfc0034002000110009008402d8000102780082
:102c0c00044278000440780032e9b7002e4290006c
:102c1c00044078000080fa00000006000000fa0072
:102c2c002023a8000001200001002000bd000700a7
:102c3c002023a9000000000004198000610262003a
:102c4c00e00f5200fcff32000418800004007800f2
:102c5c000080fa00000006000000fa0004022000c8
:102c6c00141088000002eb00241088000002eb0016
:102c7c0034108800040420004410880014c0b300f1
:102c8c00044078005ee9b7000080fa0000000600fe
:102c9c000400fa002047980004108000044f7800cc
:102cac002e4290000482fb000410880000000000fb
:102cbc004410800061026200e00f5200fcff320001
:102ccc0004108000044f78001e4278000440780005
:102cdc000080fa00000006000000fa00e4952000d5
:102cec00144278000402fb00040078000080fa0013
:102cfc00000006000a00fa0020079800310798002f
:102d0c00024f98000002eb00040f78001900370006
:102d1c002e029000e00f5200090032001e027800d3
:102d2c00ae02900004824200144278000440780005
:102d3c00d7ff0700004278002447980004003700b2
:102d4c000040eb00d2ff07000042780024479800b7
:102d5c003e029000e00f5200050032001e02780087
:102d6c00be02900004824200ae429000054a7800f8
:102d7c001e0fe8000e4a90000482fb009e0f5200ca
:0c2d8c00e3ff3c000080fa00000006009d
:020000040000fa
:102d9800300900001c00000000000000f4080000da
:102da8003c000000020000007e837a0083a28200bb
:102db800c482e90082be8200b382a60082de82005d
:102dc8009882ad0082cc8200d882d30082e3820050
:102dd800ef820b0083f58200378314008349830058
:102de80065832d00835b830024830400831e830096
:102df8007083510083418300a80800004c00000044
:102e0800000000005e090000020000000000000051
:102e18004c0900001200000000000000000800003b
:102e28005a000000000000005a0800004e00000090
:102e38000200000000000000000000000000000088
:102e4800000000000000000000000000000000007a
:102e5800000000000000000000000000000000006a
:102e6800000000000000000000000000000000005a
:102e7800000000000000000000000000000000004a
:102e8800000000000000000000ffff00ff0b020030
:102e98000d000f0003090c000e0a010000000000dd
:020000040000fa
:102ea8001800fa00000f9800110f98004257980078
:102eb800330f98000e0a9000e10f52000e00320006
:102ec800e10f520003003900e20f52000f003200f8
:102ed800130037003e099000ce5090001e08900065
:102ee800baf607003e099000ce5090001e089000e8
:102ef800fbfa07000a0037003e099000ce50900008
:102f08001e089000faf60700050037003e099000f9
:102f1800ce5090001e089000f5f607000000000053
:082f28000080fa000000060021
:020000040000fa
:102f3000f03fb1000180b10006003500ee0309004a
:102f400000000000403fb1000180b100fbff3d00e8
:102f50001000b000203fb0000200350000800900e2
:082f6000000000000000060063
:020000040000fa
:0c2f68000000fa0010f60700ffff370021
:00000001FF
