:020000040000fa
:080000000002040000000000f2
:020000040000fa
:100400008f8d20000ebf20000e018800000000002c
:1004100000012000200288000c000700801e21003f
:100420000100200011000700000020000000e00093
:10043000020032000000020000000000581202001a
:10044000000000000040da000000fe004440a90067
:10045000800220000000e0000300320000002000c5
:10046000a00188004440a800000006009101880017
:10047000800078000000eb0015003700e2804000ab
:1004800032a0b4009101ba00e280400032a0b40072
:100490009102ba00e280400032a0b4000002eb00fa
:1004a000472bde00f507b200602ce10004003a00a3
:1004b0000059eb008301e900fdff3e000400370016
:1004c0006128e100010032000082eb000400070017
:1004d0001101ba000200e000e8ff3a000000060047
:1004e0003159ba008301e9000c0032002159ba00e9
:1004f0008301e900080032000400e00003003a0034
:10050000e280400032a0b400f5ff370011d9ba00f4
:100510008301e900faff3a008100e800e180400031
:1005200032a0b400000006000040da000000fe0027
:020000040000fa
:100008009402000094020000940200009402000090
:100018009402000094020000940200009402000080
:10002800940200009402000094020000cc04000036
:10003800940200009402000094020000820500006f
:100048009402000094020000940200009402000050
:100058009402000094020000940200009402000040
:100068009402000094020000940200009402000030
:100078009402000094020000940200009402000020
:100088009402000094020000940200009402000010
:1000980094020000a60e00009402000094020000e2
:1000a80094020000940200009402000094020000f0
:1000b80094020000940200009402000094020000e0
:1000c80094020000940200009402000094020000d0
:1000d80094020000940200009402000094020000c0
:1000e80094020000940200009402000094020000b0
:1000f80094020000940200009402000094020000a0
:10010800940200009402000094020000940200008f
:10011800940200009402000094020000940200007f
:10012800940200009402000094020000940200006f
:10013800940200009402000094020000940200005f
:10014800940200009402000094020000940200004f
:10015800940200009402000094020000940200003f
:10016800940200009402000094020000940200002f
:10017800940200009402000094020000940200001f
:10018800940200009402000094020000940200000f
:1001980094020000940200009402000094020000ff
:1001a80094020000940200009402000094020000ef
:1001b80094020000940200009402000094020000df
:1001c80094020000940200009402000094020000cf
:1001d80094020000940200009402000094020000bf
:1001e80094020000940200009402000094020000af
:0801f8009402000094020000d3
:020000040000fa
:10020800940200009402000094020000940200008e
:10021800940200009402000094020000940200007e
:10022800940200009402000094020000cc04000034
:10023800940200009402000094020000820500006d
:10024800940200009402000094020000940200004e
:10025800940200009402000094020000940200003e
:10026800940200009402000094020000940200002e
:10027800940200009402000094020000940200001e
:10028800940200009402000094020000940200000e
:1002980094020000a60e00009402000094020000e0
:1002a80094020000940200009402000094020000ee
:1002b80094020000940200009402000094020000de
:1002c80094020000940200009402000094020000ce
:1002d80094020000940200009402000094020000be
:1002e80094020000940200009402000094020000ae
:1002f800940200009402000094020000940200009e
:10030800940200009402000094020000940200008d
:10031800940200009402000094020000940200007d
:10032800940200009402000094020000940200006d
:10033800940200009402000094020000940200005d
:10034800940200009402000094020000940200004d
:10035800940200009402000094020000940200003d
:10036800940200009402000094020000940200002d
:10037800940200009402000094020000940200001d
:10038800940200009402000094020000940200000d
:1003980094020000940200009402000094020000fd
:1003a80094020000940200009402000094020000ed
:1003b80094020000940200009402000094020000dd
:1003c80094020000940200009402000094020000cd
:1003d80094020000940200009402000094020000bd
:1003e80094020000940200009402000094020000ad
:0803f8009402000094020000d1
:020000040000fa
:0200000401f009
:04001c00fdff0000e4
:020000040000fa
:0200000401f009
:04001800ffff0000e6
:020000040000fa
:0200000401f009
:040014005fff00008a
:020000040000fa
:0200000401f009
:04001000fbff0000f2
:020000040000fa
:0200000401f009
:04000c00d9ff000018
:020000040000fa
:0200000401f009
:04000800ffff0000f6
:020000040000fa
:0200000401f009
:04000000ffff0000fe
:020000040000fa
:100530005265000071200000436f00006d700000e4
:100540006c6500007465000064210000005200002a
:100550006571000020460000616900006c650000c4
:1005600064210000000000000a07000004010000f0
:1005700000080000050200000b090000060300004f
:020000040000fa
:100580000200fa000002eb00244088000002eb00a9
:10059000040f7800070037001e027800c322dd0038
:1005a000a480200004824200e5002000050a7800b3
:1005b0001e0fe8001e027800e70f5200f6ff34001d
:1005c0000002eb00040f78000500370024852000ae
:1005d0009e0242000042eb00844a78001e0fe800b1
:1005e0001e027800e30f5200f8ff34001b060700dc
:1005f000190407009b020700d7000700110107003c
:100600000080fa00000006000200fa00000f7800e7
:10061000dc060700000278000508800005026a0079
:10062000044088001e00780010408800140020005c
:100630002440880084c0b3000440780008e8b70074
:10064000180007000080fa00000006000200fa000f
:1006500004408000c222de000440800084826a00e0
:10066000044080004322de0084826a00044080004f
:100670004522de0004826a00610f620004408000af
:100680008402d1001e0278004f22dd000482720035
:100690000440880004408000040078000080fa00d4
:1006a000000006000200fa00e8ff070000027800e0
:1006b000040f78001e02780004427800674262004e
:1006c000a5842000a4429800e0ff07000002780003
:1006d000040f78009e027800e40020001100090059
:1006e0008482d8000102780084027800a48420006b
:1006f000050a7800d5ff070000027800040f780093
:10070000a484200014027800e10f52001700320088
:10071000e10f520003003900ea0f52000a003200d4
:10072000160037009e0278000471220011000900b3
:100730008482d8000102780084027800a48420001a
:1007400025029800120037009e027800a4002000c5
:10075000110009008482d800010278008402780028
:10076000a48420002502980009003700a4842000fa
:100770008002eb0025029800050037001e02780079
:10078000e1026200a484200025029800000000001d
:10079000a484200024039000a4842000244290001c
:1007a000a584200095027800860178000441780035
:1007b000850078000000eb00ce06070084c0b3007f
:1007c0000440780006e8b7000002eb000408880047
:1007d0009460a8000080fa00000006000800fa00fb
:1007e0001007980041479800320798000002eb007c
:1007f000040f7800210037001e027800c322dd00bc
:10080000a48020000482420014027800ee0f5200ff
:1008100019003a001e027800c322dd00a4802000e7
:10082000048242009e029000050a78001e027800b1
:10083000c322dd00c480200004824200ce4290002a
:10084000054a78001e027800c322dd00e480200003
:1008500004824200be029000050a78001e02780061
:10086000c322dd00048120008482420094c1b300d1
:10087000844a7800040037001e0fe8001e0278004a
:10088000e70f5200dcff34000080fa000000060091
:100890000800fa00100798004147980032079800b6
:1008a0000002eb00040f7800210037001e027800e0
:1008b0004322dd008482e800a480200004824200fc
:1008c000944278004e42900084cf520017003a00c4
:1008d0001e027800c322dd00a480200004824200b2
:1008e000940278001e029000848f52000f003a009c
:1008f0001e0278004322dd00e4024200a4802000b2
:1009000004824200940278003e029000848f5200dc
:1009100006003a001e027800c322dd00a4802000f9
:1009200004824200e5002000050a78001e0fe8005e
:100930001e027800e70f5200dcff34000080fa004e
:10094000000006000000fa009460a90055ff0700af
:100950000080fa00000006000000fa000082eb00b0
:10096000140888000002eb000408880024058000b9
:1009700004c0a10004d0a00004e0a0002405880069
:100980008460a9009460a90004032800240888005a
:100990000080fa00000006003600f800809fbe00cc
:1009a000829fbe00849fbe00869fbe003400f80078
:1009b00000002000a00188000000fa002440800010
:1009c000e10f520016003a006480200014427800c3
:1009d0000442e9000440780006e8b7006480200083
:1009e00014427800e04f52000d003a009460a900d4
:1009f000a484200024039000a484200024429000ba
:100a0000a5842000950278008601780004417800d2
:100a100085007800200020003606070021ff07002f
:100a20008460a9000080fa003400f9004f03be0082
:100a30004f02be004f01be004f00be003600f9005d
:100a4000004006000000fa0004022000440888006c
:100a50000042eb000440780006e1b7003405800056
:100a600004c0a00004d0a10004e0a0003405880068
:100a700084e0a90094e0a800f4072000540888004e
:100a80000080fa00000006000200fa000002eb00fd
:100a9000040f780080c0b3000e0507002c05070086
:100aa00000027800e00f520006003a008485200022
:100ab000144278000442e9000440780058e8b70086
:100ac0000300370094c1b3000440780058e8b70031
:100ad0008485200014427800e04f520005003a005f
:100ae00014002000040f780094c1b3000440780083
:100af00058e8b7001e027800040078000080fa0071
:100b0000000006003600f800809fbe00829fbe00f5
:100b1000849fbe00869fbe003400f80000002000c5
:100b2000a00188000200fa0024408000e10f52007a
:100b300032003a000002eb00040f78002900370071
:100b40001e027800c322dd00a4802000048242003f
:100b500014027800ee0f5200210032001e007800cf
:100b60003500070000027800e00f52001c00320040
:100b70001e0278004322dd00e4024200a48020002f
:100b800004824200140378001e0278004322dd0034
:100b90008482e800a480200004824200144278008d
:100ba0009e027800c32bdd00a580200085824300d3
:100bb000950278008601780004417800850078006d
:100bc00010002000cb0507001e027800c322dd00c4
:100bd000a480200004824200e5002000050a78007d
:100be0001e0fe8001e027800e70f5200d4ff340009
:100bf000ea0007000a01070006003700a2ff07000d
:100c000000027800e00f52000200320010002000c5
:100c10007dfe070084e0a9000080fa003400f9009e
:100c20004f03be004f02be004f01be004f00be008a
:100c30003600f900004006000400fa001007980092
:100c40000002eb00040f78001e029000c322dd00ba
:100c5000a48020000482420014027800e10f5200b8
:100c600010003200e10f520003003900ea0f520079
:100c700017003200210037001e0290004322dd00e1
:100c8000e4024200a48020000482420014027800a2
:100c9000040078002200070000027800040f7800aa
:100ca0001b0037001e0290004322dd00e4024200d8
:100cb000a48020000482420014027800040078001e
:100cc0003d00070000027800040f78001000370094
:100cd0001e0290004322dd00e4024200a4802000b6
:100ce0000482420014027800040078009500070096
:100cf00000027800040f7800050037001e00900005
:100d00005700070000027800040f78000000000080
:100d10001e027800040078000080fa00000006003f
:100d20000600fa00200798000002eb00040f78008c
:100d300054852000144278008482fb00843e200009
:100d400004aab90004037800448520001442780006
:100d50008482fb004406200004aab9000402780043
:100d60000403430034852000144278000482fb0011
:100d70006a22b9000402780084024300248520001e
:100d8000144278000482fb00048242001407980099
:100d90009e0290002e029000848f520002003a00c2
:100da00014002000040f78001e0278000400780070
:100db0000080fa00000006000c00fa0050079800be
:100dc0000002eb00140798000002eb0024079800d3
:100dd0006602470004007800f8010700000278006e
:100de000e10f52001a003a000002eb00040f7800f5
:100df0000f003700660247001e024200944278004e
:100e00005e0290004222dd001e034200a485200005
:100e1000040243001442780084cf520003003a00d9
:100e20002e0290000402e800240798001e0fe8003c
:100e30001e027800e30f5200eeff34002e029000f5
:100e4000e40f520002003a0014002000140798003a
:100e50001e029000040078000080fa0000000600e6
:100e60000400fa00100798000002eb00040f78005d
:100e70001e029000c322dd00a480200004824200f4
:100e800094027800a4892000048242001442780071
:100e9000044078000f0407002d04070000027800ca
:100ea0009e029000c32add0064834200a5802000da
:100eb0008502430095027800850f520017003a0022
:100ec0001e0290004322dd00e6024200a4802000c2
:100ed00004824200144278000442e9009e0290001d
:100ee000432bdd000581200085024300844a780001
:100ef0001e0290004322dd00e6024200a480200092
:100f00000482420014427800e04f520009003a0087
:100f100014002000040f7800060037001e02900025
:100f2000c322dd00048120008482420094c1b3000a
:100f3000844a78001e027800040078000080fa00dd
:100f4000000006000600fa00200798008d04070044
:100f500000027800140798009e02900064062000aa
:100f6000110009008482d800000278000402e80021
:100f7000140798009e0290002e029000848f520069
:100f800002003a0014002000040f78001e027800ce
:100f9000040078000080fa00000006000000fa005b
:100fa000758020009542780064802000144278000b
:100fb00084cf52000d003900748020001442780064
:100fc000e74f52000e003600748020001442780073
:100fd0008482fb0084802000144278000482fb009d
:100fe00068024200848f520005003d00748020009a
:100ff000144278000482fb0004007800c503070057
:1010000074802000144278000442e8006f426200bd
:101010000440780007e8b7000080fa0000000600ee
:101020000200fa00ef03070000427800044f780046
:10103000b542800024852000048242001e4a7800c8
:10104000b44280008402e80044002000110009003e
:101050008402d80001027800b44288000080fa00bf
:10106000000006000200fa00750407000002780084
:10107000e00f520001003a0051040700cd82a800a1
:101080008000200001002000fb040700f1c0b30035
:1010900010c0b3002500070000202100a107200098
:1010a000f5040700d1c8b300a0c2b3001f000700b9
:1010b000e1c3b300b0c2b3001c000700e1c1b3003c
:1010c000d0c2b300190007008040eb00c0c2b300db
:1010d0001600070001c4b30050c1b300130007009d
:1010e000d1c3b30010c1b3001000070040c1b3006a
:1010f0002100070000427800044f78009e427800eb
:101100000582fb0063026200e00f520005003a0016
:101110001e427800634f72009e40780040c1b300c9
:10112000020007000080fa00000006000200fa003a
:10113000004f780011479800cd82a9009e427800a8
:101140000582fb0004024200044278000474a100fe
:1011500004407800280407001e4090002604070081
:10116000cd82a8008000200001002000c2040700fa
:101170000080fa00000006000400fa0020479800f2
:10118000cd82a9002e4290000482fb00040242009e
:101190008442780004c8b30004c27200044078009e
:1011a000150407000040eb0013040700000278005c
:1011b000044f7800cd82a8001e42780004407800d9
:1011c0000080fa00000006000400fa0020479800a2
:1011d000314798002e409000e7ff0700004278005a
:1011e000044f78003e4290001e4272008440780016
:1011f0002e409000cdff07000080fa00000006009e
:101200000400fa0020479800314798002e409000d3
:10121000d9ff070000427800044f78003e4290005a
:1012200084c2ea001e42780004c262008440780052
:101230002e409000bdff07000080fa00000006006d
:101240001000fa00881f780040079800214f98008e
:1012500062079800730798000042eb00044f780083
:101260000042eb00644798000042eb0014479800ee
:10127000240020002407980001c8b30040c0b30038
:10128000dfff070001c8b300a0c0b300a7ff07003d
:101290008040eb0010c0b300a4ff07000002eb0089
:1012a000140798000a0037001e029000ce0290003a
:1012b00004824200144278008440780090c0b30059
:1012c0009aff07001e0290000402e800140798002d
:1012d0002e4a90008482fb001e029000848f5200f0
:1012e000f1ff3c00c1c0b30010c0b3008fff070086
:1012f00001c8b300d0c0b300b3ff0700047d2000d5
:10130000140798000700370040c0b3009aff070099
:1013100000427800044f78001e0290000402e900a9
:10132000140798001e4278008482fb00040320000a
:1013300004826200e00f520003003a001e02900097
:10134000e00f5200f0ff3c0001c8b300d0c0b30072
:10135000abff07001e029000e00f52003400320085
:101360001400200024079800a0c0b30082ff0700eb
:101370000042780064479800c0c0b3007eff0700b9
:1013800000427800144798001e42900067426200b5
:10139000144798001e429000e04f520005003a00aa
:1013a0006e429000350020000522dd0014479800b1
:1013b000090037006e4290000482fb000402e9003d
:1013c00004427800350020000522dd009e42900096
:1013d00004c24200144798007e0290009e42900092
:1013e000054a78000002eb00140798000a00370055
:1013f0001e029000ee0290000484420090c0b300f0
:101400005dff070000427800044c78001e02900047
:101410000402e800140798006e4290008482fb00ea
:101420001e029000848f5200f1ff3c00050037003f
:101430000002eb0024079800fe0290000042eb003f
:10144000844a78002e029000040078004f0478004f
:101450000080fa00000006000600fa00200798004d
:1014600071c0b300d0c0b30030ff0700ae029000df
:1014700064c2b300844a78000e82e80084017800d8
:101480002e01900011c0b3002e0090006cff0700e9
:1014900000027800040f78001e027800e10f52006d
:1014a00005003a002e429000f04f52000200320038
:1014b00024002000040f78001e0278000400780049
:1014c0000080fa00000006000800fa0030079800cb
:1014d0000042eb00444798008040eb00d0c0b300ce
:1014e00012ff0700be02900034c9b300844a78009e
:1014f0003e0290008402e80004c2b300844a7800ef
:1015000065024700840178003e01900021c0b300cd
:101510003e0090004aff070000027800040f7800a8
:101520001e027800e10f520020003a00de429000d7
:1015300084c2b30084cf52001a003a000002eb00cc
:10154000140798000a0037001e029000be029000a7
:101550000482420014427800ce42900004c26a0025
:10156000444798001e0290000402e8001407980007
:101570001e029000e30f5200f3ff34001e029000a1
:10158000be02900004824200944278004e429000d5
:1015900084cf52000500320024002000040f7800a0
:1015a0000200370024002000040f78001e0278009b
:1015b000040078000080fa00000006001600fa001f
:1015c000200f98006402470004007800a2ff070083
:1015d00000027800040f78001e027800e10f52002c
:1015e00019003a006402470004007800b6ff0700c3
:1015f00000027800040f78001e027800e10f52000c
:1016000011003a000002eb00140798000b003700ad
:101610001e029000ae0a90008482420064034700dc
:101620001e0290000402430014427800844a7800ad
:101630001e0290000402e800140798001e029000a9
:10164000e30f5200f2ff34001e027800040078001d
:101650000080fa00000006000000fa00f80207000f
:1016600000027800e00f520001003a00d4020700a7
:101670001302070000027800e00f520001003a0058
:10168000f6010700730007000080fa000000060062
:101690000400fa001007980054168000040f780028
:1016a00084ff2f009e0262001e029000670262000b
:1016b000048f72001e027800641688000080fa0011
:1016c000000006000200fa00004f78001e4078007b
:1016d000c90207000000eb00edff070040002000fa
:1016e000ebff07000000eb00e9ff0700801220007d
:1016f00001002000600307000080fa0000000600df
:101700000200fa00004f78001e407800ba0207007d
:1017100010002000deff070050002000dcff070063
:1017200010002000daff07008012200001002000d6
:10173000510307000080fa00000006000a00fa00ca
:10174000300798004107980004002100040f78003a
:101750000002eb002407980022003700be02900030
:101760001e027800110009008482d800000278006f
:1017700014079800be0290001e02780011000900b4
:101780008482d80001027800340798001e02780095
:101790004422de00040f78001e029000e90f520080
:1017a00004003e001e0290000403b00014079800dd
:1017b000030037001e0290007403b0001407980065
:1017c0002e029000ce029000848242001e02900001
:1017d00004427800844a78002e0290000402e80057
:1017e000240798001e027800e00f5200dbff3a0049
:1017f0002e029000ce029000848242000042eb0054
:10180000844a78000080fa00000006000a00fa000e
:1018100030079800014f9800124f98008e00780012
:101820003e009000c5ff07000e4a900065002000b2
:101830008522dd001e4a900004c242000440780068
:10184000380007000e0078001c0007000080fa0036
:10185000000006000000fa0080c3b30099ff0700f3
:1018600000c42900010020000303070080c3b30067
:1018700094ff070000f4210001002000fe02070091
:1018800080c3b3008fff070080c3b3008dff070044
:10189000c0c0b3008bff070060c0b30089ff070022
:1018a00010c0b30087ff070000e8230001002000fc
:1018b000f10207000080fa00000006000400fa00b0
:1018c000100798000002eb00040f78001e02900041
:1018d000e00f520011003200070037001e027800ae
:1018e0009e02900004824200144278000440780076
:1018f00083ff07001e0fe8001e0278009e02900082
:101900000482420014427800e04f5200030032008b
:101910001e027800ef0f5200f0ff34000080fa0042
:10192000000006000200fa00004f780004c8b3006f
:101930001e4272000440780062ff07000019200078
:1019400001002000cc0207000080fa000000060021
:101950000400fa00004f7800110798001e4278003a
:10196000e04f520003003a000040eb00edff07009b
:101970000200370000c4b300eaff07001e00900019
:10198000ceff07000080fa00000006000000fa0009
:1019900010c0b3004bff070000e823000100200047
:1019a000b50207000080fa00000006000c00fa00f3
:1019b00040079800214f9800324f980084852500f9
:1019c000240798000042eb00644798002e4a9000dc
:1019d000e04f520003003a000040eb00d1ff070047
:1019e0000200370000c4b300ceff07000002eb0086
:1019f000040f7800240037001e027800ce02900009
:101a00000482420014427800244798002e4290003d
:101a10000482fb004422de00344798003e429000de
:101a2000e94f520004003e003e4290000443b000e3
:101a300044479800030037003e4290007443b000d2
:101a4000444798002e4290006f426200344798004d
:101a50003e429000e94f520004003e003e4290009a
:101a60000443b00054479800030037003e42900002
:101a70007443b000544798006402470004007800a3
:101a80008eff07001e0fe8003e4a90000482fb0014
:101a90009e0f5200d8ff3c000080fa0000000600b4
:101aa0000200fa00000f7800cde2a900c4e2a8000d
:101ab000e301070000027800e00f520001003a0045
:101ac000bf01070001c7b30070c0b3006700070083
:101ad0001e0078001900070021c0b30050c0b300f9
:101ae0006200070061c2b30060c0b3005f0007007e
:101af0000042eb0004407800c4e8b7009405800081
:101b00000440a0000450a0000460a00094058800d8
:101b100087a0a9008240a80097a0a800f1c2b30046
:101b200040c0b3005100070000a821006100200060
:101b3000510207000080fa00000006000200fa00cf
:101b4000000f780052c0b3009e007800a0c0b30020
:101b50003700070052c0b3009e00780000c1b300f8
:101b6000330007000080fa00000006000200fa00bf
:101b7000c4e2a90000c0eb009f010700000278004a
:101b8000044f7800c4e2a8001e42780004407800a8
:101b90000080fa00000006000800fa00004f7800fc
:101ba000110798002207980063479800c4e2a90033
:101bb0001e407800900107006e419000ae0090003a
:101bc0001e009000a5010700c4e2a8000080fa00f2
:101bd000000006000600fa00004f78001107980088
:101be000424798009e4278007fc26200ce4190003a
:101bf0001e0190008000eb0004407800e6ff070023
:101c00000080fa00000006000400fa002047980057
:101c100012c0b3008e0078002e409000edff070048
:101c20001e427800044078000080fa0000000600a0
:101c30000600fa00004f780011079800424798000c
:101c40001e427800ff42620004c2b30004c2720068
:101c5000ce4190000001eb009e009000044078000f
:101c6000cdff07000080fa00000006000400fa0023
:101c700020479800314798003e429000044f78007a
:101c800012c0b3008e0078002e409000e8ff0700dd
:101c90000080fa00000006000200fa00000f780041
:101ca00003c1b3001e0178008000eb0010c6b30032
:101cb000b9ff07000080fa00000006000400fa00e7
:101cc000000f78001107980000000000448c2000ed
:101cd00014427800e04f5200fcff3a00cde2a90028
:101ce00014c0b30004407800c4e8b700e1c0b300fa
:101cf0000040eb00ddff07008041eb000001eb003e
:101d00008000eb0010ceb300a3ff070003c1b300b7
:101d10000001eb009e00780000cab3009eff0700a0
:101d2000020007000080fa00000006000000fa0030
:101d3000cde2a8000005200001002000ce01070030
:101d4000cde2a9000080fa00000006003600f8008d
:101d5000809fbe00829fbe00849fbe00869fbe0003
:101d60003400f80000002000a00188000200fa0002
:101d7000641680004c22de0061426200044f78004d
:101d8000cd82a80079ff0700004278001447980030
:101d90001e4290008482fb00040220000482620044
:101da000e00f52000600320001c2b30070c0b30061
:101db000aeff07000042eb0004407800c4e8b70023
:101dc0001e4290000482fb0070026200e00f52008d
:101dd0000400320001c1b30070c0b300a3ff0700cc
:101de000d2ff07001e4290008482fb000404200002
:101df00004826200e00f520005003200508c200087
:101e0000a5ff070001c4b30070c0b30097ff07002f
:101e10009e42780061c262000482fb00610262009f
:101e20004c22dd0066168000f5ff2e00850263005f
:101e3000048272006416880087a0a9000080fa005e
:101e40003400f9004f03be004f02be004f01be0038
:101e50004f00be003600f900004006000000fa0006
:101e60000002eb00042788000400240014278800e7
:101e7000040520000416880004402400441688004d
:101e80003d0007000002eb00141988000002eb007f
:101e9000241988000002eb0004198800a4a0200087
:101ea0004419880021e3a800c4e2a800cd82a8005c
:101eb00014002000444588000080fa00000006005d
:101ec0000000fa0044458000040078000080fa0019
:101ed000000006000400fa00204798001416800055
:101ee000044f78009e42780004cfb30084c26200a1
:101ef0002e4290006f42620004c27200044f7800cc
:101f00009e4278000582fb00241688000080fa00bb
:101f1000000006000400fa00100798005416800024
:101f2000040f780074f82f009e0262001e029000d9
:101f30004323dd008407200004026300048f720045
:101f40001e027800641688000080fa000000060077
:101f50000200fa00141680004422de006142620092
:101f60000482fb00040f78001e0278000400780051
:101f70000080fa00000006000400fa0050168000fd
:101f8000100798009e02900004382000048272001e
:101f9000140798001e029000641688000042eb00af
:101fa00004407800aae8b7000002eb00040f7800b4
:101fb000070037001e02780084024200c48a200015
:101fc00004824200451f2000050a78001e0fe80029
:101fd0001e027800eb0f5200f6ff34000080fa007a
:101fe000000006000800fa000082eb0014079800c9
:101ff0005016800020079800a48a20001442780020
:102000000482fb0005082000042add000482ea00a7
:10201000ae0290000482620024079800ae00900097
:1020200061168800800020000100200012010700d6
:102030000002eb00040f780035003700a48a20006e
:10204000144278000482fb004222dd001e0242009e
:10205000340798001e02780004427800644242006f
:10206000044078009bff0700b9ff070000027800da
:10207000e00f52001f003a003e029000840242002e
:10208000c48a200004824200140278008402e9001d
:102090003e02900004034200c48a20000402430070
:1020a000050a78003e02900084024200c48a2000a3
:1020b0000482420014027800e00f520013003a003c
:1020c000452b28003e029000048242001442780012
:1020d0000482fb00140798003e0290008402420034
:1020e000c48a20000482420085382100050a780055
:1020f000060037003e02900084024200c48a20009d
:1021000004824200451f2000050a78001e0fe800e7
:102110001e027800e30f5200c8ff3400a48a20009a
:10212000144278000482fb0005082000042add0028
:10213000ae02900004827200240798002e029000e4
:1021400064168800a48a2000144278000482fb00f0
:102150008402e80034002000110009008402d80045
:10216000010278000442780004407800aae8b70031
:102170001e02900004427800044078000080fa00bb
:10218000000006000000fa002023a8000001200043
:1021900001002000b80007002023a9000000000073
:1021a0000419800061026200e00f5200fcff32005f
:1021b00004188000040078000080fa000000060087
:1021c0000000fa0004022000141088000002eb0056
:1021d000241088000002eb00341088000404200062
:1021e0004410880014c0b30004407800d6e8b7005b
:1021f0000080fa00000006000400fa002047980062
:1022000004108000044f78002e4290000482fb00ee
:102210000410880000000000441080006102620089
:10222000e00f5200fcff320004108000044f7800e1
:102230001e427800044078000080fa00000006008a
:102240000000fa00648d2000144278000402fb00b4
:10225000040078000080fa00000006000a00fa007e
:102260002007980031079800024f98000002eb0009
:10227000040f7800190037002e029000e00f520082
:10228000090032001e027800ae0290000482420073
:102290001442780004407800d7ff0700004278001d
:1022a00024479800040037000040eb00d2ff0700ed
:1022b00000427800244798003e029000e00f520050
:1022c000050032001e027800be0290000482420027
:1022d000ae429000054a78001e0fe8000e4a9000ba
:1022e0000482fb009e0f5200e3ff3c000080fa00d6
:1022f000000006001800fa00000f9800110f980067
:1023000042579800330f98000e0a9000e10f5200d8
:1023100021003200e10f520003003900e20f5200a9
:1023200021003200280037003e099000ce50900076
:102330001e08900029f9070024c7b300044f780055
:102340000e02e800840078001e089000fbfc0700e5
:1023500024c6b300544798004e5290000482fb00fc
:10236000e60247008500780004007800f3fc0700cf
:1023700064c7b300244f98006b02470084007800c4
:102380003e089000edfc07008e0078000040eb0056
:102390006ffd07000c0037008129280010c0b30032
:1023a0006bfd0700080037003e099000ce509000fa
:1023b0001e08900036f90700712a280010c0b300eb
:1023c00063fd0700000000000080fa000000060026
:020000040000fa
:1023d000a80800001c00000000000000d608000053
:1023e0000200000000000000c4080000120000000d
:1023f00000000000000800005a000000000000007b
:102400005a0800004e00000002000000000000001a
:1024100000000000000000000000000000000000bc
:1024200000000000000000000000000000000000ac
:10243000000000000000000000000000000000009c
:10244000000000000000000000000000000000008c
:10245000000000000000000000000000000000007c
:1024600000ffff000b020d00000f0300090cff002e
:082470000e0a0100000000004b
:020000040000fa
:10247800f03fb1000180b10006003500ee0309000d
:1024880000000000403fb1000180b100fbff3d00ab
:102498001000b000203fb0000200350000800900a5
:0824a800000000000000060026
:020000040000fa
:1024b0000200fa0032f807001e0fe800feff3700a6
:00000001FF
