:020000040000fa
:080000000002040000000000f2
:020000040000fa
:100400000f8220000ebf20000e01880000000000b7
:1004100000012000200288000c000700600221007b
:100420000100200011000700000020000000e00093
:10043000020032000000020000000000c80e0200ae
:10044000000000000040da000000fe004440a90067
:10045000200620000000e000030032000000200021
:10046000a00188004440a800000006009101880017
:10047000800078000000eb0015003700e2804000ab
:1004800032a0b4009101ba00e280400032a0b40072
:100490009102ba00e280400032a0b4000002eb00fa
:1004a000472bde00f507b200602ce10004003a00a3
:1004b0000059eb008301e900fdff3e000400370016
:1004c0006128e100010032000082eb000400070017
:1004d0001101ba000200e000e8ff3a000000060047
:1004e0003159ba008301e9000c0032002159ba00e9
:1004f0008301e900080032000400e00003003a0034
:10050000e280400032a0b400f5ff370011d9ba00f4
:100510008301e900faff3a008100e800e180400031
:1005200032a0b400000006000040da000000fe0027
:020000040000fa
:100008009402000094020000940200009402000090
:100018009402000094020000940200009402000080
:100028009402000094020000940200009402000070
:100038009402000094020000940200009402000060
:100048009402000094020000940200009402000050
:100058009402000094020000940200009402000040
:100068009402000094020000940200009402000030
:100078009402000094020000940200009402000020
:100088009402000094020000940200009402000010
:1000980094020000f8070000940200009402000097
:1000a80094020000940200009402000094020000f0
:1000b80094020000940200009402000094020000e0
:1000c80094020000940200009402000094020000d0
:1000d80094020000940200009402000094020000c0
:1000e80094020000940200009402000094020000b0
:1000f80094020000940200009402000094020000a0
:10010800940200009402000094020000940200008f
:10011800940200009402000094020000940200007f
:10012800940200009402000094020000940200006f
:10013800940200009402000094020000940200005f
:10014800940200009402000094020000940200004f
:10015800940200009402000094020000940200003f
:10016800940200009402000094020000940200002f
:10017800940200009402000094020000940200001f
:10018800940200009402000094020000940200000f
:1001980094020000940200009402000094020000ff
:1001a80094020000940200009402000094020000ef
:1001b80094020000940200009402000094020000df
:1001c80094020000940200009402000094020000cf
:1001d80094020000940200009402000094020000bf
:1001e80094020000940200009402000094020000af
:0801f8009402000094020000d3
:020000040000fa
:10020800940200009402000094020000940200008e
:10021800940200009402000094020000940200007e
:10022800940200009402000094020000940200006e
:10023800940200009402000094020000940200005e
:10024800940200009402000094020000940200004e
:10025800940200009402000094020000940200003e
:10026800940200009402000094020000940200002e
:10027800940200009402000094020000940200001e
:10028800940200009402000094020000940200000e
:1002980094020000f8070000940200009402000095
:1002a80094020000940200009402000094020000ee
:1002b80094020000940200009402000094020000de
:1002c80094020000940200009402000094020000ce
:1002d80094020000940200009402000094020000be
:1002e80094020000940200009402000094020000ae
:1002f800940200009402000094020000940200009e
:10030800940200009402000094020000940200008d
:10031800940200009402000094020000940200007d
:10032800940200009402000094020000940200006d
:10033800940200009402000094020000940200005d
:10034800940200009402000094020000940200004d
:10035800940200009402000094020000940200003d
:10036800940200009402000094020000940200002d
:10037800940200009402000094020000940200001d
:10038800940200009402000094020000940200000d
:1003980094020000940200009402000094020000fd
:1003a80094020000940200009402000094020000ed
:1003b80094020000940200009402000094020000dd
:1003c80094020000940200009402000094020000cd
:1003d80094020000940200009402000094020000bd
:1003e80094020000940200009402000094020000ad
:0803f8009402000094020000d1
:020000040000fa
:0200000401f009
:04001c00fdff0000e4
:020000040000fa
:0200000401f009
:04001800ffff0000e6
:020000040000fa
:0200000401f009
:040014005fff00008a
:020000040000fa
:0200000401f009
:04001000fbff0000f2
:020000040000fa
:0200000401f009
:04000c00d9ff000018
:020000040000fa
:0200000401f009
:04000800ffff0000f6
:020000040000fa
:0200000401f009
:04000000ffff0000fe
:020000040000fa
:10053000524600004944000020450000525200008d
:100540004f52000020200000200000004e4f00000d
:10055000204300004152000044200000464f0000ac
:10056000554e000044000000484500004c4c00007f
:100570004f200000574f0000524c00004421000063
:10058000000000000000000050410000434b00004c
:100590004554000020530000454e00005400000068
:1005a00050410000434b000045540000204e000025
:1005b0004f54000020530000454e0000540000003e
:1005c0005458000020460000494600004f2000001b
:1005d000465500004c4c0000000000000a070000d7
:1005e0000401000000080000050200000b090000e3
:0405f00006030000fe
:020000040000fa
:1005f4000000fa00cde2a900c4e2a8005f060700eb
:1006040000027800e00f520001003a003b060700a8
:1006140001c7b30070c0b3001b020700940580003b
:100624000440a0000450a0000460a00094058800c9
:1006340087a0a9008240a80097a0a8000080fa0023
:10064400000006000000fa0021c0b30050c0b3004f
:100654000d02070061c2b30060c0b3000a020700c4
:1006640001c1b30010c1b300070207000042eb0050
:10067400044078001ee8b700f1c4b3000040eb006a
:1006840001020700cde2a8000080fa000000060085
:100694000600fa0021c0b30050c0b300fa010700fd
:1006a40061c2b30060c0b300f7010700f1c3b30037
:1006b40020c0b300f401070074ceb300444798008f
:1006c4004e429000344798003e42900024479800e0
:1006d4002e429000144798001e429000044f780068
:1006e4000041eb0051c0b3000e007800f700070092
:1006f40024ccb300444798004e42900034479800fd
:100704003e429000244798002e42900014479800df
:100714001e429000044f780012c0b30051c0b300d1
:100724000e007800e900070034ccb300044f7800d1
:1007340022c0b30011c0b3000e007800e30007002c
:1007440044ccb300044f780032c0b30011c0b300ee
:100754000e007800dd00070054ccb300044f78008d
:1007640042c0b30011c0b3000e007800d7000700e8
:1007740064ccb300044f780052c0b30011c0b3007e
:100784000e007800d100070001c1b30010c1b3000e
:10079400bd01070001c1b30020c1b300ba010700c5
:1007a40001c1b30030c1b300b701070001c1b300f8
:1007b40040c1b300b401070001c1b30050c1b3008c
:1007c400b101070001c1b30060c1b300ae0107006d
:1007d4000042eb00044078001ee8b700f1c4b30007
:1007e4000040eb00a8010700cde2a8000080fa0059
:1007f400000006000800fa006047980021c0b3001a
:1008040050c0b300a001070061c2b30060c0b300d0
:100814009d010700c1c4b3000040eb009a0107002a
:10082400f1c2b30040c0b300970107006e429000cc
:100834000482fb00cfa2de00560020000700200047
:10084400860f5200878f5a0061003e000460010049
:100854000500370013003700210037002f00370050
:100864003d0037004b00370074ceb3004447980076
:100874004e429000344798003e429000244798002e
:100884002e429000144798001e429000044f7800b6
:100894000e007800f30007000e007800e700070060
:1008a4004b00370024ccb300444798004e429000dc
:1008b400344798003e429000244798002e4290000e
:1008c400144798001e429000044f78000e007800f0
:1008d400e40007000e007800d80007003c00370051
:1008e40024ccb300444798004e429000344798000b
:1008f4003e429000244798002e42900014479800ee
:1009040034ccb300044f78000e007800d500070003
:100914000e007800c90007002d00370024ccb30076
:10092400444798004e429000344798003e4290005d
:10093400244798002e4290001447980044ccb300fa
:10094400044f78000e007800c60007000e007800ff
:10095400ba0007001e00370024ccb30044479800b7
:100964004e429000344798003e429000244798003d
:100974002e4290001447980054ccb300044f7800e2
:100984000e007800b70007000e007800ab000700e7
:100994000f00370024ccb300444798004e42900027
:1009a400344798003e429000244798002e4290001d
:1009b4001447980064ccb300044f78000e0078000c
:1009c400a80007000e0078009c000700000000004b
:1009d4000042eb00044078001ee8b700e1c4b30015
:1009e4000040eb00280107000080fa000000060028
:1009f4000400fa00000f7800214798002e4190006f
:100a04009e00780000c1b300400107000080fa0096
:100a1400000006000200fa0012c0b3008e00780045
:100a24000040eb00270107001e4278000482fb000f
:100a340061026200e00f52000a0032009e42780018
:100a4400e4cfb30004c26200044f780012c0b300c4
:100a54008e0078000040eb002c010700cde2a900d5
:100a640001003700000000000080fa0000000600ca
:100a74000200fa0012c0b3008e0078000040eb00c0
:100a8400100107001e4278000482fb00620262002b
:100a9400e00f52000a0032009e427800d4cfb30027
:100aa40004c26200044f780012c0b3008e007800c4
:100ab4000040eb0015010700cde2a900010037005a
:100ac400000000000080fa00000006000400fa00a4
:100ad400000f780021479800324798003e4290006a
:100ae400e54f520007003e003e4290006a42420039
:100af4002e4190009e007800044078000301070016
:100b040001003700000000000080fa000000060029
:100b14000400fa00000f780021479800324798003b
:100b24002e429000e54f520007003e002e429000f6
:100b34006a4242003e4190009e00780004407800e2
:100b4400e000070001003700000000000080fa0008
:100b5400000006000200fa00004f780011479800d8
:100b64001e429000e54f52000b003e009e4278006a
:100b740004c2b30084cf520009003e001e4290001c
:100b84007142420012c0b3008e0078000440780025
:100b9400de000700030037000000000001003700fa
:100ba400000000000080fa00000006000400fa00c3
:100bb400204798002e429000e54f52000200360074
:100bc4000042eb00070037002e42900071424200c1
:100bd40012c0b3008e00780004407800b90007000a
:100be4001e427800044078000080fa0000000600ed
:100bf4000000fa0071000700004278000440780009
:100c04000400070000427800044078000080fa00e5
:100c1400000006000200fa00004f78009e427800af
:100c24000582fb006e0262000482d1000442780057
:100c3400044078000080fa00000006000200fa0078
:100c4400000f7800cde2a90052c0b3009e007800e6
:100c5400a0c0b300ad000700cde2a8000080fa00f8
:100c6400000006000200fa00000f780052c0b30032
:100c74009e00780000c1b300a40007000080fa00c1
:100c8400000006000200fa00e4812000144278000b
:100c9400e04f5200020032000042eb00080037002f
:100ca400c4e2a90000c0eb00a2040700000278001f
:100cb400044f7800c4e2a80005c4b3001ec2620059
:100cc400044078000080fa00000006000200fa00e8
:100cd40012c0b3008e00780070c1b3007900070021
:100ce4001e42780070426200044078000080fa00de
:100cf400000006000200fa0012c0b3008e00780063
:100d040070c1b3006f0007001e42780061426200a8
:100d1400044078000080fa00000006000200fa0097
:100d240012c0b3008e00780050c0b3006500070005
:100d34001e427800044078000080fa00000006009b
:100d44000200fa0012c0b3008e00780060c0b30045
:100d54005c0007001e427800044078000080fa001e
:100d6400000006000200fa0012c0b3008e007800f2
:100d740080c0b300530007001e4278000482fb00c9
:100d84004422de0004427800044078000080fa0027
:100d9400000006000200fa0012c0b3008e007800c2
:100da40080c0b300470007001e4278006f42620013
:100db400044078000080fa00000006000000fa00f9
:100dc40000c0eb00110007000042780004407800e6
:100dd4000080fa00000006000200fa0000c0eb00e8
:100de4000a00070000427800044f78009e42780011
:100df4000582fb006e0262000482d1000442780086
:100e0400044078000080fa00000006000400fa00a4
:100e140020479800c4e2a9002e4090004504070032
:100e240000027800044f7800c4e2a8001e42780053
:100e3400044078000080fa00000006000400fa0074
:100e440010079800c4e2a90010c6b30039040700d3
:100e540000027800044f7800020120009e009000f8
:100e64001e0090004c040700c4e2a80001c4b300b3
:100e740070c0b300040007001e42780004407800ec
:100e84000080fa00000006000200fa00004f78001b
:100e940011479800c4e2a9001e427800ff42620094
:100ea40004c2b30004c272000440780021040700a5
:100eb4001e4090001f040700c4e2a8000080fa004e
:100ec400000006000600fa00004f780011079800a1
:100ed40042479800c4e2a9009e4278007fc26200a3
:100ee40004407800130407004e4290000482fb0083
:100ef400040178009e0090001e0090002604070064
:100f0400c4e2a8000080fa00000006000600fa000f
:100f1400004f78001107980042479800c4e2a900e6
:100f24001e427800ff42620004c2b30004c2720091
:100f340004407800ff0307004e4290000482fb0047
:100f4400040178008000eb001e00900012040700ea
:100f5400c4e2a8000080fa00000006000400fa00c1
:100f6400000f78002147980000000000e481200071
:100f740014427800e04f5200fcff3a00cde2a90091
:100f840014c0b300044078001ee8b700e1c4b30005
:100f94000040eb00bcff0700c4e2a90010ceb30080
:100fa400e4030700c4e2a800c4e2a90000cab30035
:100fb400e00307002e4290000482fb000401780045
:100fc4008000eb001e007800f3030700c4e2a800d1
:100fd400cde2a80000052000010020000c04070059
:100fe400cde2a9000080fa00000006003600f800f7
:100ff400809fbe00829fbe00849fbe00869fbe006d
:101004003400f80000002000a00188000200fa006b
:10101400c4e2a90000c0eb00c60307000002780088
:10102400044f7800c4e2a8001e4078008082fb00d0
:101034000402200004826200e00f52000900320022
:10104400412c2800100020006202070001c2b300f6
:1010540070c0b3008cff07000042eb00044078002e
:101064001ee8b7009e4278000582fb007002620011
:10107400e00f520006003200012d2800100020006d
:101084005402070001c1b30070c0b3007eff070023
:101094001e4078000082fb00610262000442780076
:1010a400e04f520003003200012e280010002000ff
:1010b4004802070087a0a9000080fa003400f90064
:1010c4004f03be004f02be004f01be004f00be00e2
:1010d4003600f900004006000200fa00a7030700ea
:1010e40000027800e00f520001003a008303070079
:1010f400cd82a8008000200001002000c403070066
:10110400f1c0b30010c0b300250007000020210087
:10111400a1072000be030700d1c8b300a0c2b300da
:101124001f000700e1c3b300b0c2b3001c000700f6
:10113400e1c1b300d0c2b300190007008040eb0046
:10114400c0c2b3001600070001c4b30050c1b3000d
:1011540013000700d1c3b30010c1b300100007008f
:1011640040c1b3002100070000427800044f78001a
:101174009e4278000582fb0063026200e00f520089
:1011840005003a001e427800634f72009e407800ca
:1011940040c1b300020007000080fa00000006000e
:1011a4000200fa00004f780011479800cd82a90090
:1011b4009e4278000582fb0004024200044278004b
:1011c4000474a100044078005a0307001e409000f4
:1011d40058030700cd82a8008000200001002000f1
:1011e4008b0307000080fa00000006000400fa00e8
:1011f40020479800cd82a9002e4290000482fb0073
:10120400040242008442780004c8b30004c272009d
:1012140004407800470307000040eb004503070043
:1012240000027800044f7800cd82a8001e427800a6
:10123400044078000080fa00000006000400fa0070
:1012440020479800314798002e409000e7ff0700a0
:1012540000427800044f78003e4290001e42720023
:10126400844078002e409000cdff07000080fa00f3
:10127400000006000400fa00204798003147980057
:101284002e409000d9ff070000427800044f7800f8
:101294003e42900084c2ea001e42780004c262000a
:1012a400844078002e409000bdff07000080fa00c3
:1012b400000006001000fa00881f7800400798001c
:1012c400214f980062079800730798000042eb00d2
:1012d400044f78000042eb00644798000042eb00a2
:1012e40014479800240020002407980001c8b30084
:1012f40040c0b300dfff070001c8b300a0c0b300c3
:10130400a7ff07008040eb0010c0b300a4ff070054
:101314000002eb00140798000a0037001e02900038
:10132400ce02900004824200144278008440780087
:1013340090c0b3009aff07001e0290000402e80068
:10134400140798002e4a90008482fb001e0290002d
:10135400848f5200f1ff3c00c1c0b30010c0b30041
:101364008fff070001c8b300d0c0b300b3ff07006c
:10137400047d2000140798000700370040c0b30024
:101384009aff070000427800044f78001e02900084
:101394000402e900140798001e4278008482fb00ce
:1013a4000403200004826200e00f520003003a00ac
:1013b4001e029000e00f5200f0ff3c0001c8b30091
:1013c400d0c0b300abff07001e029000e00f520034
:1013d400340032001400200024079800a0c0b30099
:1013e40082ff07000042780064479800c0c0b30041
:1013f4007eff070000427800144798001e429000c8
:1014040067426200144798001e429000e04f520069
:1014140005003a006e429000350020000522dd00f0
:1014240014479800090037006e4290000482fb00c4
:101434000402e90004427800350020000522dd00a2
:101444009e42900004c24200144798007e0290001d
:101454009e429000054a78000002eb0014079800b1
:101464000a0037001e029000ee029000048442003d
:1014740090c0b3005dff070000427800044c780080
:101484001e0290000402e800140798006e429000c7
:101494008482fb001e029000848f5200f1ff3c0006
:1014a400050037000002eb0024079800fe029000bc
:1014b4000042eb00844a78002e0290000400780079
:1014c4004f0478000080fa00000006000600fa00cd
:1014d4002007980071c0b300d0c0b30030ff0700ec
:1014e400ae02900064c2b300844a78000e82e80021
:1014f400840178002e01900011c0b3002e009000ea
:101504006cff070000027800040f78001e027800c8
:10151400e10f520005003a002e429000f04f5200b5
:101524000200320024002000040f78001e0278001c
:10153400040078000080fa00000006000800fa00a9
:10154400300798000042eb00444798008040eb00cd
:10155400d0c0b30012ff0700be02900034c9b3002c
:10156400844a78003e0290008402e80004c2b3007a
:10157400844a780065024700840178003e019000a7
:1015840021c0b3003e0090004aff0700000278002b
:10159400040f78001e027800e10f520020003a0088
:1015a400de42900084c2b30084cf52001a003a0095
:1015b4000002eb00140798000a0037001e02900096
:1015c400be0290000482420014427800ce42900091
:1015d40004c26a00444798001e0290000402e80016
:1015e400140798001e029000e30f5200f3ff34002a
:1015f4001e029000be0290000482420094427800d1
:101604004e42900084cf5200050032002400200096
:10161400040f78000200370024002000040f780033
:101624001e027800040078000080fa000000060022
:101634001600fa00200f98006402470004007800a6
:10164400a2ff070000027800040f78001e02780051
:10165400e10f520019003a006402470004007800c8
:10166400b6ff070000027800040f78001e0278001d
:10167400e10f520011003a000002eb001407980039
:101684000b0037001e029000ae0a900084824200d4
:10169400640347001e0290000402430014427800d1
:1016a400844a78001e0290000402e800140798009f
:1016b4001e029000e30f5200f2ff34001e02780075
:1016c400040078000080fa00000006000000fa0020
:1016d4002a02070000027800e00f520001003a00dd
:1016e40006020700e900070000027800e00f52003c
:1016f40001003a00ce000700760007000080fa00df
:10170400000006000400fa00100798005416800038
:10171400040f780084ff2f009e0262001e029000d6
:1017240067026200048f72001e027800641688004b
:101734000080fa00000006000200fa00000f7800a2
:101744001e0278000442780004407800f901070082
:101754000000eb00ebff070040002000e9ff07005a
:101764000000eb00e7ff07008012200001002000ca
:10177400270207000080fa00000006000200fa00b9
:10178400000f78001e0278000442780004407800bc
:10179400e801070010002000daff070050002000d5
:1017a400d8ff070010002000d6ff07008012200099
:1017b40001002000160207000080fa000000060065
:1017c4000a00fa003007980041079800040021003d
:1017d400040f78000002eb00240798002200370071
:1017e400be0290001e027800110009008482d80015
:1017f4000002780014079800be0290001e027800d0
:10180400110009008482d80001027800340798008e
:101814001e0278004422de00040f78001e029000ad
:10182400e90f520004003e001e0290000403b000c1
:1018340014079800030037001e0290007403b000e0
:10184400140798002e029000ce0290008482420079
:101854001e02900004427800844a78002e02900010
:101864000402e800240798001e027800e00f5200ea
:10187400dbff3a002e029000ce02900084824200e8
:101884000042eb00844a78000080fa000000060061
:101894000c00fa003007980041079800520798009e
:1018a4008e0078003e009000c5ff07004e029000b5
:1018b400c622dd005e02900004824200040078002b
:1018c400390007000e0078001c0007000080fa00b1
:1018d400000006000000fa008003200096ff0700c5
:1018e40000c4290001002000c90107008003200072
:1018f40091ff070000f4210001002000c40107004b
:10190400800320008cff0700800320008aff07006b
:10191400c000200088ff07006000200086ff070049
:101924001000200084ff070000e8230001002000cd
:10193400b70107000080fa00000006000400fa0066
:10194400100798000002eb00040f78001e029000bc
:10195400e00f520012003200080037001e02780027
:101964009e02900004824200144278000402fb00ac
:101974000400780081ff07001e0fe8001e027800b3
:101984009e0290000482420014427800e04f52000c
:10199400030032001e027800ef0f5200efff340004
:1019a4000080fa00000006000200fa00000f780030
:1019b400040820001e027200040078005eff070085
:1019c4000019200001002000910107000080fa00a6
:1019d400000006000400fa00000f780011079800c8
:1019e4001e027800e00f520003003a000000eb00f2
:1019f400edff07000200370000042000eaff0700a3
:101a04001e009000cdff07000080fa0000000600d1
:101a14000000fa001000200047ff070000e8230040
:101a2400010020007a0107000080fa00000006008f
:101a34000000fa000002eb000427880004002400e0
:101a44001427880004052000041688000446240096
:101a5400441688003b0007000002eb0014198800bc
:101a64000002eb00241988000002eb00041988002e
:101a7400a4a020004419880021e3a8001400200039
:101a8400044088000080fa00000006000000fa000c
:101a940004408000040078000080fa000000060082
:101aa4000400fa002047980014168000044f7800c0
:101ab4009e42780004cfb30084c262002e4290009c
:101ac4006f42620004c27200044f78009e427800a4
:101ad4000582fb00241688000080fa00000006003e
:101ae4000400fa001007980054168000040f7800d0
:101af40074f82f009e0262001e0290004323dd0052
:101b04008407200004026300048f72001e02780020
:101b1400641688000080fa00000006000000fa0045
:101b2400141680007002620004f0a7000402ea00a8
:101b34000402ea004f22de00040078000080fa006c
:101b4400000006000400fa005016800010079800f8
:101b54009e0290000438200004827200140798004a
:101b64001e029000641688000042eb0004407800d6
:101b740002e8b7000002eb00040f7800070037000a
:101b84001e02780084024200448020000482420045
:101b9400451f2000050a78001e0fe8001e02780089
:101ba400eb0f5200f6ff34000080fa00000006003c
:101bb4000800fa000082eb00140798005016800019
:101bc4002007980024802000144278000482fb003f
:101bd40005082000042add000482ea00ae02900019
:101be4000482620024079800ae0090006116880009
:101bf4008000200001002000050107000002eb0026
:101c0400040f780035003700248020001442780047
:101c14000482fb004222dd001e02420034079800c9
:101c24001e027800044278006442420004407800b6
:101c34009bff0700b9ff070000027800e00f520085
:101c44001f003a003e0290008402420044802000bb
:101c540004824200140278008402e9003e029000eb
:101c6400040342004480200004024300050a780073
:101c74003e0290008402420044802000048242001c
:101c840014027800e00f520013003a00e52e2800f9
:101c94003e02900004824200144278000482fb0059
:101ca400140798003e029000840242004480200001
:101cb4000482420085382100050a780006003700b6
:101cc4003e029000840242004480200004824200cc
:101cd400451f2000050a78001e0fe8001e02780048
:101ce400e30f5200c8ff340024802000144278001f
:101cf4000482fb0005082000042add00ae029000e7
:101d040004827200240798002e0290006416880052
:101d140024802000144278000482fb008402e8003e
:101d240034002000110009008402d8000102780068
:101d3400044278000440780002e8b7001e029000d4
:101d440004427800044078000080fa000000060095
:101d54000000fa002023a800000120000100200058
:101d6400ab0007002023a900000000000419800034
:101d740061026200e00f5200fcff32000418800090
:101d8400040078000080fa00000006003000fa0029
:101d94000402200004024700452b28000c0009001f
:101da400355a78000e027800d402b000020009000f
:101db400005aeb000002eb00040f78000500370026
:101dc400660247009e02420000c2eb00844a78008b
:101dd4001e0fe8001e027800ef0f5200f8ff3400d7
:101de4000002eb00040f780011ff070037fe070024
:101df400b9fc0700fef907000040eb007dfa07007c
:101e0400040220000e02420001c1b3000400780065
:101e140052fc0700660247000400780004fe070035
:101e240000027800140798001e029000e10f52008f
:101e340024003a006e4290000482fb0024079800bc
:101e44002e0290004822dd00240798007e42900074
:101e54000482fb00ae029000048242002407980032
:101e640076024700840078002e00900054fe07009c
:101e74000e4a90000482fb00240798002e02900072
:101e84004822dd00240798001e4a90000482fb00cb
:101e9400ae029000048242002407980076024700b4
:101ea40064024200840078002e00900044fe070083
:101eb40076024700840078000000eb00c5fe0700ae
:101ec4000a0037001e029000e20f520004003a009c
:101ed400812928000000eb00befe07000300370044
:101ee400612a28000000eb00bafe07000020210050
:101ef400a107200046000700c6ff37000000fa00d3
:101f040004022000141088000002eb002410880052
:101f14000002eb0034108800040420004410880000
:101f240014c0b300044078001ce8b7000080fa0035
:101f3400000006000400fa00204798000410800006
:101f4400044f78002e4290000482fb0004108800a5
:101f5400000000004410800061026200e00f5200a3
:101f6400fcff320004108000044f78001e42780009
:101f7400044078000080fa00000006000000fa0027
:101f8400c4812000144278000402fb00040078009d
:101f94000080fa00000006000a00fa0020079800fa
:101fa40031079800420798000002eb00040f780004
:101fb400110037001e027800ae0290000482420035
:101fc4001442780004407800daff070000427800e9
:101fd400244798003e029000e00f520005003200b2
:101fe4001e027800be02900004824200ae429000bd
:101ff400054a78001e0fe8009e0278004e02900009
:10200400848f5200ebff39000080fa0000000600c4
:020000040000fa
:10201400f03fb1000180b10006003500ee03090075
:1020240000000000403fb1000180b100fbff3d0013
:102034001000b000203fb00002003500008009000d
:0820440000000000000006008e
:020000040000fa
:10204c00000800001c000000000000001c0800003c
:10205c0002000000000000001e080000020000004a
:08206c0000000000000000006c
:00000001FF
