:020000040000fa
:080000000002040000000000f2
:020000040000fa
:10040000cf9220000ebf20000e01880000000000e7
:1004100000012000200288000c000700409221000b
:100420000100200011000700000020000000e00093
:10043000020032000000020000000000a2190200c9
:10044000000000000040da000000fe004440a90067
:10045000001420000000e000030032000000200033
:10046000a00188004440a800000006009101880017
:10047000800078000000eb0015003700e2804000ab
:1004800032a0b4009101ba00e280400032a0b40072
:100490009102ba00e280400032a0b4000002eb00fa
:1004a000472bde00f507b200602ce10004003a00a3
:1004b0000059eb008301e900fdff3e000400370016
:1004c0006128e100010032000082eb000400070017
:1004d0001101ba000200e000e8ff3a000000060047
:1004e0003159ba008301e9000c0032002159ba00e9
:1004f0008301e900080032000400e00003003a0034
:10050000e280400032a0b400f5ff370011d9ba00f4
:100510008301e900faff3a008100e800e180400031
:1005200032a0b400000006000040da000000fe0027
:020000040000fa
:100008009402000094020000940200009402000090
:100018009402000094020000940200009402000080
:10002800940200009402000094020000b006000050
:100038009402000094020000940200007c07000073
:100048009402000094020000940200009402000050
:100058009402000094020000940200009402000040
:100068009402000094020000940200009402000030
:100078009402000094020000940200009402000020
:10008800940200009402000094020000240b000077
:100098009402000036170000940200009402000049
:1000a80094020000940200009402000094020000f0
:1000b80094020000940200009402000094020000e0
:1000c80094020000940200009402000094020000d0
:1000d80094020000940200009402000094020000c0
:1000e80094020000940200009402000094020000b0
:1000f80094020000940200009402000094020000a0
:10010800940200009402000094020000940200008f
:10011800940200009402000094020000940200007f
:10012800940200009402000094020000940200006f
:10013800940200009402000094020000940200005f
:10014800940200009402000094020000940200004f
:10015800940200009402000094020000940200003f
:10016800940200009402000094020000940200002f
:10017800940200009402000094020000940200001f
:10018800940200009402000094020000940200000f
:1001980094020000940200009402000094020000ff
:1001a80094020000940200009402000094020000ef
:1001b80094020000940200009402000094020000df
:1001c80094020000940200009402000094020000cf
:1001d80094020000940200009402000094020000bf
:1001e80094020000940200009402000094020000af
:0801f8009402000094020000d3
:020000040000fa
:10020800940200009402000094020000940200008e
:10021800940200009402000094020000940200007e
:10022800940200009402000094020000b00600004e
:100238009402000094020000940200007c07000071
:10024800940200009402000094020000940200004e
:10025800940200009402000094020000940200003e
:10026800940200009402000094020000940200002e
:10027800940200009402000094020000940200001e
:10028800940200009402000094020000240b000075
:100298009402000036170000940200009402000047
:1002a80094020000940200009402000094020000ee
:1002b80094020000940200009402000094020000de
:1002c80094020000940200009402000094020000ce
:1002d80094020000940200009402000094020000be
:1002e80094020000940200009402000094020000ae
:1002f800940200009402000094020000940200009e
:10030800940200009402000094020000940200008d
:10031800940200009402000094020000940200007d
:10032800940200009402000094020000940200006d
:10033800940200009402000094020000940200005d
:10034800940200009402000094020000940200004d
:10035800940200009402000094020000940200003d
:10036800940200009402000094020000940200002d
:10037800940200009402000094020000940200001d
:10038800940200009402000094020000940200000d
:1003980094020000940200009402000094020000fd
:1003a80094020000940200009402000094020000ed
:1003b80094020000940200009402000094020000dd
:1003c80094020000940200009402000094020000cd
:1003d80094020000940200009402000094020000bd
:1003e80094020000940200009402000094020000ad
:0803f8009402000094020000d1
:020000040000fa
:0200000401f009
:04001c00fdff0000e4
:020000040000fa
:0200000401f009
:04001800ffff0000e6
:020000040000fa
:0200000401f009
:040014005fff00008a
:020000040000fa
:0200000401f009
:04001000fbff0000f2
:020000040000fa
:0200000401f009
:04000c00d9ff000018
:020000040000fa
:0200000401f009
:04000800ffff0000f6
:020000040000fa
:0200000401f009
:04000000ffff0000fe
:020000040000fa
:10053000526100006e6400006f6d0000697a000077
:10054000650000005365000074000000456e000067
:1005500067610000676500000043000068650000f7
:10056000636b0000004400006561000063740000dc
:1005700069760000617400006500000043790000a6
:10058000636c00006500000053630000616e0000b2
:1005900000440000657000006c6f000079000000ee
:1005a000464c000049500000004500006a6500000c
:1005b0006374000000560000656e000074000000c7
:1005c000466c00006f6f0000640000004372000082
:1005d000616e00006b000000416c00006967000064
:1005e0006e000000426100006467000065000000ca
:1005f0004169000072620000616700000054000061
:1006000068720000757300007465000072000000dd
:1006100056610000706f0000726900007a6500008a
:1006200072000000506900006c6f00007400000050
:10063000496d0000706500006c6c00006572000080
:10064000004300006f6d00006275000073740000cd
:100650006f720000004400006973000074690000bc
:100660006c6c0000657200000053000068690000b7
:10067000656c000064730000004e000065740000ab
:10068000776f0000726b000000520000656600008a
:100690006c650000637400006f720000005300007e
:1006a00065710000756500006e63000065720000f2
:1006b0000050000065720000636f00006c61000074
:1006c000746f000072000000594f00005552000086
:1006d000205300004849000050000000666f0000f1
:1006e00072000000746f0000002000003d20000038
:1006f00000000000576500006c6300006f6d000093
:1007000065200000746f000020530000706100003d
:100710006365000074650000616d00002100000049
:100720005761000069740000696e000067200000d6
:10073000666f0000722000006f74000068650000a2
:1007400072200000706c000061790000657200008a
:10075000732e00002e2e000000470000414d0000c7
:10076000452000004f5600004552000021000000c7
:10077000736500006e640000696e00006720000071
:1007800062650000676900006e200000746f000061
:1007900020310000000000000a07000004010000f2
:1007a00000080000050200000b090000060300001d
:020000040000fa
:1007b0000200fa0014002000844288000002eb00ce
:1007c000040f78000b0037001e027800c322dd0002
:1007d0006485200004824200d5002000050a7800cc
:1007e000a48820009e0242000042eb00844a780068
:1007f0001e0fe8001e027800e40f5200f2ff3400e2
:1008000014c0b300044078008ae8b7000002eb008f
:10081000040f780005003700648820009e02420023
:100820000042eb00844a78001e0fe8001e027800a8
:10083000e30f5200f8ff34000042eb000440780060
:1008400053e8b7000080fa00000006000000fa003c
:10085000d7ff0700b00707003c03070011c0b30033
:100860000040eb00b405070011c0b30010c0b30096
:10087000b1050700a13728000040eb009c040700e9
:100880000139280010c0b30099040700af08070021
:1008900023010700690107000080fa00000006003c
:1008a0000400fa000042eb002447980015003700ce
:1008b0000002eb00040f78000f0037001e027800e2
:1008c000e00f52000b0032001e02780084427800d4
:1008d0000002eb00854178000041eb008000eb0056
:1008e00050002000050a070000502300c10020002e
:1008f000b60a07001e0fe8001e027800e40f52003f
:10090000eeff340084428000e20f5200e8ff3a001c
:100910000080fa00000006000000fa0054080700fa
:10092000000278000508800005026a006442880021
:100930000002eb007442880003003700744280001c
:100940000402e8007442880075428000a4882000f8
:100950000482420014427800e54f5200f7ff3a004b
:10096000240020008442880084c0b3000440780042
:1009700054e8b70010c0b3003405070018000700a2
:100980000080fa00000006000200fa0064428000c5
:10099000c222de006442800084826a0064428000d9
:1009a0004322de0084826a00644280004522de0029
:1009b00004826a00610f6200644280008402d100f8
:1009c0001e0278004f22dd0004827200644288001b
:1009d00064428000040078000080fa0000000600f5
:1009e0000400fa00e8ff070000027800040f780016
:1009f0009e02780054002000110009008482d80073
:100a00000102780014079800e58720000042eb00ff
:100a1000a4429800dcff070000027800040f780071
:100a20009e027800d4002000110009008482d800c2
:100a30000102780084027800e4872000050a78002b
:100a4000d1ff070000027800040f7800e48720003f
:100a500014027800e00f520003003200e10f520050
:100a60000a003200120037009e0278000471220052
:100a7000110009008482d800010278008402780005
:100a8000e4872000250298000d0037009e027800c0
:100a9000b4002000110009008482d800010278000f
:100aa00084027800e48720002502980004003700c3
:100ab000e48720008002eb0025029800000000007f
:100ac000e487200024029000e5872000a5429000e2
:100ad000e687200016037800854178000041eb008e
:100ae000860078000000eb0084090700e4872000fe
:100af00024039000e487200024429000e587200032
:100b0000950278000601780084407800050078009e
:100b10005904070084c0b3000440780052e8b700cd
:100b20000002eb00040888009460a8000080fa002e
:100b3000000006000a00fa002007980061479800ac
:100b4000420798000002eb00040f78003d003700d8
:100b50001e027800c322dd0064852000048242006a
:100b600014027800ed0f520035003a001e027800a2
:100b7000c322dd006485200004824200ae029000a2
:100b8000050a78001e027800c322dd00848520005b
:100b900004824200ee429000054a78001e0278006e
:100ba000c322dd00c48520008482420094c1b300ca
:100bb000844a78002e029000e10f5200190036009e
:100bc000ae029000a49020000482420014427800fb
:100bd00004407800ff060700004278002447980090
:100be0002e429000e04f520007003a001e027800ab
:100bf000c322dd00a48520000482420015002000ed
:100c0000050a7800120037001e027800c322dd00ba
:100c1000a4852000048242008002eb00050a7800cf
:100c20000b0037001e027800c322dd00a4852000df
:100c300004824200ce029000050a780004003700ca
:100c40001e0fe8001e027800e40f5200c0ff3400bf
:100c50000080fa00000006000800fa001007980063
:100c600041479800320798000002eb00040f78001b
:100c7000210037001e0278004322dd008482e80054
:100c80006485200004824200944278004e42900025
:100c900084cf520017003a001e027800c322dd0004
:100ca0006485200004824200940278001e029000b5
:100cb000848f52000f003a001e0278004322dd00ac
:100cc000e40242006485200004824200940278001d
:100cd0003e029000848f520006003a001e02780007
:100ce000c322dd006485200004824200d50020007c
:100cf000050a78001e0fe8001e027800e40f52007b
:100d0000dcff34000080fa00000006000000fa005a
:100d10009460a90032ff07000080fa00000006007e
:100d20000000fa000082eb00140888000002eb00cb
:100d3000040888002405800004c0a10004d0a0009d
:100d400004e0a000240588008460a9009460a90044
:100d500004032800240888000080fa000000060030
:100d60003600f800809fbe00829fbe00849fbe00b8
:100d7000869fbe003400f80000002000a00188001b
:100d80000000fa004907070084428000e20f520089
:100d900020003a0024852000144278000442e90033
:100da0000440780052e8b7002485200014427800ff
:100db000e04f520017003a009460a900e487200039
:100dc00024029000e5872000a5429000e6872000dd
:100dd00016037800854178000041eb00860078001a
:100de00020002000c5080700b101070000027800bc
:100df000e00f520002003200f9fe07000500370044
:100e00006bfe070063030700d13a28000040eb00a7
:100e1000370307008460a900330707000080fa0049
:100e20003400f9004f03be004f02be004f01be0068
:100e30004f00be003600f900004006000000fa0036
:100e400004022000440888000042eb0004407800bf
:100e500006e1b7003405800004c0a00004d0a10062
:100e600004e0a0003405880084e0a90094e0a80014
:100e7000f4072000540888000080fa0000000600f3
:100e80000200fa000002eb00040f780080c0b300fb
:100e90005006070000427800e04f520006003a007a
:100ea00024892000144278000442e90004407800bc
:100eb00092e8b7000300370094c1b3000440780003
:100ec00092e8b7002489200014427800e04f5200d5
:100ed00005003a0014002000040f780094c1b3000c
:100ee0000440780092e8b7001e0278000400780001
:100ef0000080fa00000006003600f800809fbe0067
:100f0000829fbe00849fbe00869fbe003400f80012
:100f100000002000a00188000200fa00e30607009c
:100f200084428000e20f520031003a000002eb00e0
:100f3000040f78002a0037001e027800c322dd006b
:100f4000648520000482420014027800ed0f5200f4
:100f5000220032001e0078003500070000027800f1
:100f6000e00f52001d0032001e0278004322dd0017
:100f7000e4024200648520000482420014027800ea
:100f80009e027800c32add000583e8006585200005
:100f900085024300954278001e037800c333dd00cc
:100fa000668520000683430016037800854178009b
:100fb0000041eb0086007800100020004f08070079
:100fc0001e027800c322dd006485200004824200f6
:100fd000d5002000050a780081fe07001e0fe800fa
:100fe0001e027800e40f5200d3ff340005003700e2
:100ff000a3ff070000027800e00f5200010032005a
:1010000045fe0700ea00070084e0a900b6060700d5
:101010000080fa003400f9004f03be004f02be000a
:101020004f01be004f00be003600f9000040060030
:101030000400fa00100798000002eb00040f78008b
:101040001e029000c322dd0064852000048242005d
:1010500014027800e00f520003003200e10f52004a
:101060000c003200160037001e0290004322dd0003
:10107000e4024200648520000482420014027800e9
:10108000040078001700070000027800040f7800c1
:10109000100037001e0290004322dd00e4024200ef
:1010a0006485200004824200140278000400780065
:1010b000a800070000027800040f78000500370040
:1010c0001e0090006a00070000027800040f7800fc
:1010d000000000001e027800040078000080fa0082
:1010e000000006000c00fa00500798000002eb0018
:1010f000140798000082eb0024079800843e20002b
:1011000034079800f405070000427800044f980067
:101110000e4a9000e14f42003e0032000e4a90001d
:101120000482fb00ea0f520010003200eb0f520065
:1011300028003a000002eb00040f78000500370099
:10114000648820009e0242000042eb00844a78003e
:101150001e0fe8001e027800e30f5200f8ff340073
:101160000002eb0084448800270037000002eb00f7
:10117000240798000002eb00040f780011003700ec
:10118000648820001e024200144278008482fb0022
:101190003e02900004aab90004027800ae0290005a
:1011a0000482420024079800be029000a4002000a0
:1011b000110009008482d8000002780034079800ea
:1011c0001e0fe8001e027800e30f5200ecff34000f
:1011d0000d003700854480006488200004824200ae
:1011e0008e4a9000054a7800844480008402e8001a
:1011f00044002000110009008402d8000102780098
:101200008444880000000000648820000400780006
:101210005c030700ae0290005e029000848f5200d3
:101220000f003a000002eb00040f780005003700c1
:10123000648820009e0242000042eb00844a78004d
:101240001e0fe8001e027800e30f5200f8ff340082
:1012500010c0b300fd02070014002000140798001e
:101260001e029000040078000080fa0000000600d2
:101270000400fa00100798000002eb00040f780049
:101280001e029000c322dd0064852000048242001b
:1012900094027800a4902000048242001442780056
:1012a000044078004b050700004278008482fb0070
:1012b0001e0290004322dd0064034200648520008a
:1012c0000402430014027800848f520017003a0091
:1012d0001e0290004322dd00e602420064852000e9
:1012e00004824200144278000442e9009e02900009
:1012f000432bdd00c585200085024300844a780029
:101300001e0290004322dd00e602420064852000b8
:101310000482420014427800e04f520009003a0073
:1013200014002000040f7800060037001e02900011
:10133000c322dd00c48520008482420094c1b30032
:10134000844a78001e027800040078000080fa00c9
:10135000000006000600fa00200798000002eb00db
:10136000040f7800c20507000002780014079800f7
:101370009e02900044062000110009008482d800db
:1013800000027800140798009e0290002e02900040
:10139000848f520002003a0014002000040f7800ed
:1013a0001e027800040078000080fa0000000600a9
:1013b0000000fa0084428000e20f52001f003a0051
:1013c000358520009542780024852000144278005d
:1013d00084cf52000d00390034852000144278007b
:1013e000e74f52000e00360034852000144278008a
:1013f0008482fb0044852000144278000482fb00b4
:1014000068024200848f520005003d0034852000b0
:10141000144278000482fb0004007800f9040700fd
:1014200034852000144278000442e8006f426200d4
:101430000440780053e8b7001b0037008442800066
:10144000e10f520018003a00348520001442780061
:101450008482fb00a48820000482420014427800a9
:10146000e14f520005003a00348520001442780014
:101470000482fb0004007800e204070034852000a9
:10148000144278000482fb008402e800540020002b
:10149000110009008402d80001027800044278009b
:1014a0000440780053e8b7000080fa00000006000e
:1014b0000200fa0014002000040f78004485200088
:1014c000144278000442e9000440780054e8b70070
:1014d0004485200014427800e04f520002003a0098
:1014e0000002eb00040f78001e0278000400780070
:1014f0000080fa00000006000200fa00004f7800a9
:101500001e4278008482fb00a4882000848242006e
:1015100014c0b300844a78000080fa00000006007e
:101520000000fa00a4882000040078000080fa007f
:10153000000006000000fa008442800004427800a7
:10154000044078000080fa00000006000000fa0065
:10155000b906070000027800e00f520001003a00cf
:10156000830607008604070000027800e00f52009f
:1015700001003a00680407000041eb0011c2b3000b
:10158000008020001e0207000041eb0011c2b300e2
:10159000108220001a0207000042eb00044078008d
:1015a00044e8b7000042eb000440780045e8b7008b
:1015b0000042eb000440780042e8b7000042eb0034
:1015c0000440780043e8b7000042eb000440780094
:1015d00046e8b7000042eb000440780047e8b70057
:1015e0000042eb000440780048e8b7000042eb00fe
:1015f0000440780049e8b70003000700170107001e
:101600000080fa00000006000000fa00f40f20003d
:10161000a40888000002eb0094088800840580007c
:1016200004c0a10004d0a10004e0a000840588004b
:101630008760a9009760a800f4072000b40888001c
:101640000080fa00000006003600f800809fbe000f
:10165000829fbe00849fbe00869fbe003400f800bb
:1016600000002000a00188000000fa00648420002f
:1016700014427800e14f520009003200a584200096
:1016800095427800b4c3b30084cf520009003a00f9
:101690004484200014427800e14f520005003a00d3
:1016a0000040eb00290007000042eb0004407800f6
:1016b00046e8b7007484200014427800e14f5200dd
:1016c00009003200a584200095427800b4c3b3001d
:1016d00084cf520009003a0054842000144278005c
:1016e000e14f520005003a0010c0b3001700070098
:1016f0000042eb000440780047e8b700a4842000d3
:10170000144278000482fb008402e800c403200035
:10171000110009008402d800010278000442780018
:10172000044078004ae8b7008760a9000080fa000a
:101730003400f9004f03be004f02be004f01be004f
:101740004f00be003600f900004006000e00fa000f
:10175000404f98000042eb00244f98004e4a900002
:10176000e04f52000c003a0004802000040f780083
:10177000248420001407980044c8bf004047980004
:101780000042eb006447980081842000914078007b
:10179000514798000c00370014822000040f780095
:1017a00034842000140798005484200014427800e8
:1017b0004447980004c4b30064479800958420000f
:1017c00095427800554798006e409000bd00070094
:1017d0004e429000e14f520013003a005e429000ea
:1017e000f04f5200100036001e02900014407800a6
:1017f000204f98002e4a90000482fb008402e800eb
:101800005e4290000482fb000402e800110009001f
:101810008402d80001027800044278009e02900001
:10182000844a78000200370004c1b300544798008e
:101830000002eb0044079800130037002e4a900086
:101840000482fb001e02420014427800044078002b
:101850002e0007002e4a90000482fb008402e8005c
:101860005e4290000482fb000402e80011000900bf
:101870008402d80001027800244f98004e029000a4
:101880000402e800440798004e029000ef0f520057
:10189000eaff34000080fa00000006000400fa00ad
:1018a0001007980054168000040f780084ff2f0062
:1018b0009e0262001e02900067026200048f7200a6
:1018c0001e027800641688000080fa0000000600fe
:1018d0000200fa00004f78001e407800cd05070096
:1018e0000000eb00edff070040002000ebff0700c9
:1018f0000000eb00e9ff070080122000010020003b
:10190000b20607000080fa00000006000200fa009c
:10191000004f78001e427800e04f52000300320072
:101920001e407800bb0507000200370000c2b3006c
:10193000b805070010002000d8ff07005000200065
:10194000d6ff070010002000d4ff070080122000ff
:10195000010020009d0607000080fa00000006003c
:101960000a00fa003007980041079800040021009f
:10197000040f78000002eb002407980022003700d3
:10198000be0290001e027800110009008482d80077
:101990000002780014079800be0290001e02780032
:1019a000110009008482d8000102780034079800f1
:1019b0001e0278004422de00040f78001e02900010
:1019c000e90f520004003e001e0290000403b00024
:1019d00014079800030037001e0290007403b00043
:1019e000140798002e029000ce02900084824200dc
:1019f0001e02900004427800844a78002e02900073
:101a00000402e800240798001e027800e00f52004c
:101a1000dbff3a002e029000ce029000848242004a
:101a20000042eb00844a78000080fa0000000600c3
:101a30000a00fa0030079800014f98008e007800e5
:101a40003e009000c6ff07008e0078000e48900010
:101a5000270007000080fa00000006000000fa00de
:101a600080c3b3009aff070000c4290001002000d2
:101a70005606070080c3b30095ff070000f421005d
:101a8000010020005106070080c3b30090ff07004b
:101a900080c3b3008eff0700c0c0b3008cff0700f7
:101aa00060c0b3008aff070010c0b30088ff0700c2
:101ab00000e8230001002000440607000080fa002f
:101ac000000006000200fa00004f780004c8b300ce
:101ad0001e427200044078007dff070000192000bc
:101ae00001002000390607000080fa00000006000f
:101af0000c00fa00004f9800510798000e4a900021
:101b0000e04f520009003a0004802000040f7800e2
:101b1000648420001407980084842000240798001f
:101b20002484200034079800080037001482200025
:101b3000040f780074842000140798009484200017
:101b4000240798003484200034079800be029000d7
:101b50000042eb00844a78000041eb0001c2b30070
:101b60001e007800a60007009e0078005e0090002e
:101b7000cc00070000427800ae029000844a780052
:101b80009e02900014c0b300844a78000080fa00de
:101b9000000006000000fa0010c0b3004cff070070
:101ba00000e8230001002000080607000080fa007a
:101bb000000006000c00fa0040079800510798004a
:101bc000843e2000040f78000042eb002447980078
:101bd0004e009000200798001c003700ae029000d5
:101be0001e027800110009008482d80000027800eb
:101bf00064479800ae0290001e02780011000900b0
:101c00008482d80001027800240798009e027800a0
:101c1000a4002000110009008482d800000278008e
:101c2000040f78002e4290000482fb00de02900038
:101c3000848242006e4290000443b000844a7800df
:101c40002e4290000442e800244798001e027800cb
:101c5000e00f5200e1ff3a002e4290000482fb00a8
:101c6000de029000848242000042eb00844a780049
:101c70000080fa00000006003200fa0060179800a9
:101c8000616f9800021f98000042eb00044f78003b
:101c90006e12900084024200a48920000482420057
:101ca00094027800150798006e129000840242009a
:101cb000648b20000482420094027800250798007b
:101cc000640220000e024200840078000e1890008a
:101cd000b8ff0700660247000041eb0001c2b300f5
:101ce00004007800460007009e4278000582fb0051
:101cf000e602470004824200840078001e00900043
:101d000068000700004278001e4f42009e427800a3
:101d10000582fb008402470004c2b300e44298003d
:101d20001e4fe8009e4278000582fb00e602470055
:101d300004824200840078002e00900059000700c1
:101d4000004278001e4f42006e129000e10f5200d8
:101d500025003e009e4278000582fb008402470079
:101d600004c2b300e44298001e4fe8009e4278008f
:101d70000582fb00e6024700848242006e1290005a
:101d80000403420044892000040243001402780046
:101d900085007800040078004200070000427800c7
:101da0001e4f42009e4278000582fb0084024700dd
:101db00004c2b300e44298001e4fe8009e4278003f
:101dc0000582fb00e6024700848242006402200094
:101dd0000e02420085007800040078003100070000
:101de000004278001e4f42006602470084007800df
:101df0000040eb003eff07000080fa0000000600f4
:101e00000600fa00100798004147980052479800d2
:101e10000002eb00040f7800060037001e02780075
:101e20009e029000848242005e429000844a7800c4
:101e30001e0fe8004e4290000482fb009e0f5200ed
:101e4000f6ff3c000080fa00000006000200fa00e5
:101e5000004f78001e427800e04f520008003a0020
:101e60000041eb0001c2b30000802000e4ff070046
:101e700014c0b3000440780046e8b70007003700fc
:101e80000041eb0001c2b30010822000dcff07001c
:101e900014c0b3000440780047e8b7000080fa009f
:101ea000000006000600fa001007980021079800bd
:101eb0000042eb00044f78000b0037009e42780090
:101ec0000582fb00ae029000848242001e4378002f
:101ed0000682fb001e0390000402430014427800b7
:101ee000844a78001e4fe8009e4278000582fb007d
:101ef0009e0290000482420014427800e04f52009b
:101f0000030032001e427800ff4f5200ebff360004
:101f10001e4378000682fb00ae02900084824200dd
:101f20000042eb00844a78001e42780004407800aa
:101f30000080fa00000006000200fa00004f78005e
:101f4000114798001e427800e04f520006003a0008
:101f50001e40900044e8b7000042eb0004407800c7
:101f600042e8b700050037001e40900045e8b70082
:101f70000042eb000440780043e8b7000080fa001c
:101f8000000006002a00fa00401798000042eb000b
:101f900024479800630247000041eb0001c2b300f0
:101fa0000400780096ff07000002eb00040f7800a1
:101fb0000a0037001e027800ce1290000482420010
:101fc000144278000443b000350220008e824200a3
:101fd0009e824200844a78001e0fe8001e027800ac
:101fe000e30f5200f3ff3400340220000e024200df
:101ff0009e0242000042eb00844a7800b445800013
:10200000e30247008500780004007800a5ff070080
:1020100000427800ae42900004c24200244798007b
:102020002e4290000482fb00e3024700048242003b
:1020300084007800503728009aff0700004278009b
:10204000ae42900004c24200244798002e42900005
:102050000482fb00e3024700848242003402200035
:102060000e02420085007800040078008dff070012
:1020700000427800ae42900004c24200244798001b
:10208000630247008400780010c0b30098fe070088
:102090000080fa00000006000c00fa0050079800cb
:1020a0005e0290000402e800144278008402fb0003
:1020b0005e029000144278000402fb004822dd001a
:1020c000048242008e0078000400780024fe07009d
:1020d0005e02900063024200144278008402fb001a
:1020e0005e0290000482e800144278000402fb00c3
:1020f0004822dd0004824200e402470085007800a7
:102100000400780016fe07000042eb00044f980020
:102110008e00780010c0b30075fe07000080fa0042
:10212000000006000200fa00c30307000002780066
:10213000e00f520001003a008d030700cd82a80095
:102140008000200001002000a0040700f1c0b300bf
:1021500010c0b3002500070000202100a1072000c7
:102160009a040700d1c8b300a0c2b3001f00070043
:10217000e1c3b300b0c2b3001c000700e1c1b3006b
:10218000d0c2b300190007008040eb00c0c2b3000a
:102190001600070001c4b30050c1b30013000700cc
:1021a000d1c3b30010c1b3001000070040c1b30099
:1021b0002100070000427800044f78009e4278001a
:1021c0000582fb0063026200e00f520005003a0046
:1021d0001e427800634f72009e40780040c1b300f9
:1021e000020007000080fa00000006000200fa006a
:1021f000004f780011479800cd82a9009e427800d8
:102200000582fb0004024200044278000474a1002d
:10221000044078007f0307001e4090007d03070004
:10222000cd82a80080002000010020006704070084
:102230000080fa00000006000400fa002047980021
:10224000cd82a9002e4290000482fb0004024200cd
:102250008442780004c8b30004c2720004407800cd
:102260006c0307000040eb006a030700004278009f
:10227000044f7800cd82a8001e4278000440780008
:102280000080fa00000006000400fa0020479800d1
:10229000314798002e409000e7ff07000042780089
:1022a000044f78003e4290001e4272008440780045
:1022b0002e409000cdff07000080fa0000000600cd
:1022c0000400fa0020479800314798002e40900003
:1022d000d9ff070000427800044f78003e4290008a
:1022e00084c2ea001e42780004c262008440780082
:1022f0002e409000bdff07000080fa00000006009d
:102300001000fa00881f780040079800214f9800bd
:1023100062079800730798000042eb00044f7800b2
:102320000042eb00644798000042eb00144798001d
:10233000240020002407980001c8b30040c0b30067
:10234000dfff070001c8b300a0c0b300a7ff07006c
:102350008040eb0010c0b300a4ff07000002eb00b8
:10236000140798000a0037001e029000ce02900069
:1023700004824200144278008440780090c0b30088
:102380009aff07001e0290000402e800140798005c
:102390002e4a90008482fb001e029000848f52001f
:1023a000f1ff3c00c1c0b30010c0b3008fff0700b5
:1023b00001c8b300d0c0b300b3ff0700047d200004
:1023c000140798000700370040c0b3009aff0700c9
:1023d00000427800044f78001e0290000402e900d9
:1023e000140798001e4278008482fb00040320003a
:1023f00004826200e00f520003003a001e029000c7
:10240000e00f5200f0ff3c0001c8b300d0c0b300a1
:10241000abff07001e029000e00f520034003200b4
:102420001400200024079800a0c0b30082ff07001a
:102430000042780064479800c0c0b3007eff0700e8
:1024400000427800144798001e42900067426200e4
:10245000144798001e429000e04f520005003a00d9
:102460006e429000350020000522dd0014479800e0
:10247000090037006e4290000482fb000402e9006c
:1024800004427800350020000522dd009e429000c5
:1024900004c24200144798007e0290009e429000c1
:1024a000054a78000002eb00140798000a00370084
:1024b0001e029000ee0290000484420090c0b3001f
:1024c0005dff070000427800044c78001e02900077
:1024d0000402e800140798006e4290008482fb001a
:1024e0001e029000848f5200f1ff3c00050037006f
:1024f0000002eb0024079800fe0290000042eb006f
:10250000844a78002e029000040078004f0478007e
:102510000080fa00000006000600fa00200798007c
:1025200071c0b300d0c0b30030ff0700ae0290000e
:1025300064c2b300844a78000e82e8008401780007
:102540002e01900011c0b3002e0090006cff070018
:1025500000027800040f78001e027800e10f52009c
:1025600005003a002e429000f04f52000200320067
:1025700024002000040f78001e0278000400780078
:102580000080fa00000006000800fa0030079800fa
:102590000042eb00444798008040eb00d0c0b300fd
:1025a00012ff0700be02900034c9b300844a7800cd
:1025b0003e0290008402e80004c2b300844a78001e
:1025c00065024700840178003e01900021c0b300fd
:1025d0003e0090004aff070000027800040f7800d8
:1025e0001e027800e10f520020003a00de42900007
:1025f00084c2b30084cf52001a003a000002eb00fc
:10260000140798000a0037001e029000be029000d6
:102610000482420014427800ce42900004c26a0054
:10262000444798001e0290000402e8001407980036
:102630001e029000e30f5200f3ff34001e029000d0
:10264000be02900004824200944278004e42900004
:1026500084cf52000500320024002000040f7800cf
:102660000200370024002000040f78001e027800ca
:10267000040078000080fa00000006001600fa004e
:10268000200f98006402470004007800a2ff0700b2
:1026900000027800040f78001e027800e10f52005b
:1026a00019003a006402470004007800b6ff0700f2
:1026b00000027800040f78001e027800e10f52003b
:1026c00011003a000002eb00140798000b003700dd
:1026d0001e029000ae0a900084824200640347000c
:1026e0001e0290000402430014427800844a7800dd
:1026f0001e0290000402e800140798001e029000d9
:10270000e30f5200f2ff34001e027800040078004c
:102710000080fa00000006000000fa000002eb0052
:1027200004278800040024001427880004052000e2
:102730000416880004402400441688004b0007005b
:102740000002eb00141988000002eb002419880035
:102750000002eb0004198800a4a02000441988009e
:1027600021e3a800c4e2a800cd82a8003f00070032
:1027700014002000944688000080fa000000060043
:102780000000fa0094468000040078000080fa00ff
:10279000000006000400fa0020479800141680008c
:1027a000044f78009e42780004cfb30084c26200d8
:1027b0002e4290006f42620004c27200044f780003
:1027c0009e4278000582fb00241688000080fa00f3
:1027d000000006000200fa00004f78001e4078005a
:1027e000ecff07000019200001002000f70207009d
:1027f0001300070000427800044078000080fa00cf
:10280000000006000400fa0010079800541680002b
:10281000040f780074f82f009e0262001e029000e0
:102820004323dd008407200004026300048f72004c
:102830001e027800641688000080fa00000006007e
:102840000200fa00141680004422de006142620099
:102850000482fb00040f78001e0278000442780016
:10286000044078000080fa00000006000400fa002e
:1028700050168000100798009e0290000438200037
:1028800004827200140798001e02900064168800eb
:102890000042eb0004407800d4e8b7000002eb00ef
:1028a000040f7800070037001e02780084024200ff
:1028b000648d20000482420095012000050a780002
:1028c0001e0fe8001e027800eb0f5200f6ff3400e6
:1028d0000080fa00000006000800fa0000c2eb00c9
:1028e000244798005016800020079800448d20004f
:1028f000144278000482fb0005082000042add0051
:102900000482ea00ae02900004826200240798006c
:10291000ae009000611688000002eb00040f780002
:1029200037003700448d2000144278000482fb00f9
:102930004222dd001e024200340798001e02780089
:1029400004427800644242000440780091ff07008e
:1029500000192000010020009c020700b8ff0700ba
:1029600000427800e04f52001e003a003e02900004
:1029700084024200648d2000048242001402780028
:102980008402e9003e02900004034200648d2000ae
:1029900004024300050a78003e02900084024200cf
:1029a000648d20000482420014027800e00f52007f
:1029b00012003a00c53c28003e029000048242000a
:1029c00094427800254798003e029000840242001d
:1029d000648d200004824200451f2000050a780013
:1029e000060037003e02900084024200648d200001
:1029f0000482420095012000050a78001e0fe800bd
:102a00001e027800e30f5200c6ff3400448d200000
:102a1000144278000482fb0005082000042add002f
:102a2000ae02900004827200240798002e009000ed
:102a300060168800448d2000144278000482fb0058
:102a40008402e80034002000110009008402d8004c
:102a5000010278000442780004407800d4e8b7000e
:102a60002e429000044078000080fa00000006002a
:102a70000000fa002023a80000012000010020002f
:102a8000520207002023a900000000000419800062
:102a900061026200e00f5200fcff32000418800067
:102aa000040078000080fa00000006000000fa0030
:102ab000141680004722de00614262000440780064
:102ac000eee8b700541680004c22de00614262003e
:102ad00004407800efe8b700c4e2a800cd82a80067
:102ae0000080fa00000006000000fa00e48e2000da
:102af00014427800614262000482fb0061026200bd
:102b00004722dd0026168000f5f72f0085026300be
:102b10000482720024168800f48e2000144278008b
:102b2000614262000482fb00610262004c22dd000f
:102b300066168000f5ff2e00850263000482720095
:102b4000641688000080fa00000006000600fa0003
:102b5000cde2a900c4e2a800370107000002780016
:102b6000e00f520001003a000101070001c7b30065
:102b700070c0b30078000700048f200004007800c4
:102b80002900070021c0b30050c0b3007200070045
:102b900061c2b30060c0b3006f00070061c0b30042
:102ba000d0c1b3006c00070011c0b300c0c1b300b6
:102bb000690007008041eb000001eb008000eb00a2
:102bc00010ceb3002f0007008041eb000001eb00a6
:102bd0008000eb0020ceb3002a0007000042eb008b
:102be0000440780018e9b700940580000440a00074
:102bf0000450a0000460a0009405880087a0a900ec
:102c00008240a80097a0a80001c3b30040c0b30051
:102c10005100070000a8210061002000eb0107001f
:102c20000080fa00000006000200fa00000f7800a1
:102c300052c0b3009e007800a0c0b3003700070068
:102c400052c0b3009e00780000c1b30033000700fb
:102c50000080fa00000006000200fa00c4e2a900a9
:102c600000c0eb00eb00070000427800044f780042
:102c7000c4e2a8001e427800044078000080fa00f8
:102c8000000006000800fa00004f780011079800c5
:102c90002207980063479800c4e2a9001e4078000c
:102ca000dc0007006e419000ae0090001e00900016
:102cb000e8000700c4e2a8000080fa000000060057
:102cc0000600fa00004f780011079800424798006c
:102cd0009e4278007fc26200ce4190001e019000ab
:102ce0008000eb0004407800e6ff07000080fa0057
:102cf000000006000400fa002047980012c0b3004c
:102d00008e0078002e409000edff07001e427800f4
:102d1000044078000080fa00000006000600fa0077
:102d2000004f780011079800424798001e42780033
:102d3000ff42620004c2b30004c27200ce419000a0
:102d40000001eb009e00900004407800cdff0700da
:102d50000080fa00000006000400fa0020479800f6
:102d6000314798003e429000044f780012c0b300f3
:102d70008e0078002e409000e8ff07000080fa00e7
:102d8000000006000200fa00000f780083c0b300c4
:102d90001e0178008000eb0010c6b300b9ff0700e9
:102da0000080fa00000006000400fa00000f78001e
:102db00011079800cde2a900e1c0b3000040eb008c
:102dc000e5ff0700068f20001e0290006522b90073
:102dd00004027800040243000400780092ff070018
:102de0008041eb000001eb008000eb0010ceb3004f
:102df000a4ff070083c0b3000001eb009e00780031
:102e000000cab3009fff0700100007000080fa000f
:102e1000000006000200fa00000f78008041eb007d
:102e20000001eb008000eb0010ceb30095ff07001f
:102e300083c0b3000001eb009e00780080cab3009d
:102e400090ff07000080fa00000006000000fa0072
:102e5000cde2a80000052000010020005b01070072
:102e6000cde2a9000080fa00000006003600f8005c
:102e7000809fbe00829fbe00849fbe00869fbe00d2
:102e80003400f80000002000a00188000200fa00d1
:102e900071ff070000427800044f78001e4278005e
:102ea0008482fb000402200004826200e00f5200d2
:102eb0000300320001c2b30070c0b300a6ff0700d8
:102ec0009e4278000582fb0070026200e00f520013
:102ed0000300320001c1b30070c0b3009eff0700c1
:102ee0001e4278008482fb000404200004826200f9
:102ef000e00f520015003200a49120000400780079
:102f0000a0ff070001c4b30070c0b30092ff070028
:102f1000a491200034029000a59120003543900038
:102f2000a5912000a5429000a791200027009000c5
:102f3000a79120009703780086417800054178002a
:102f400080007800070078009200070087a0a900a1
:102f50000080fa003400f9004f03be004f02be00ab
:102f60004f01be004f00be003600f90000400600d1
:102f70000000fa0004022000141088000002eb0098
:102f8000241088000002eb003410880004042000a4
:102f90004410880014c0b300044078002ae9b70048
:102fa0000080fa00000006000400fa0020479800a4
:102fb000314798003e429000e04f5200010032003d
:102fc000ff3ffc0004108000044f78002e42900068
:102fd0000482fb0004108800000000004410800000
:102fe00061026200e00f5200fcff3200041080001a
:102ff000044f78003e429000e04f52000100320042
:103000000000fc001e427800044078000080fa00b6
:10301000000006000200fa00004f780011c0b30063
:103020001e407800e0ff070000427800044078006e
:103030000080fa00000006000000fa00a4922000c0
:10304000144278000402fb00040078000080fa00bb
:10305000000006000a00fa002007980031079800d7
:10306000024f9800ff3ffc000002eb00040f7800c5
:103070001b0037002e029000e00f52000a003200c1
:103080001e027800ae0290000482420014427800d2
:103090008040eb0004407800c3ff07000042780046
:1030a00024479800050037008040eb000040eb000b
:1030b000bdff070000427800244798003e029000c0
:1030c000e00f5200050032001e027800be029000a0
:1030d00004824200ae429000054a78001e0fe800cc
:1030e0000e4a90000482fb009e0f5200e1ff3c005c
:1030f0000000fc000080fa00000006000800fa0052
:10310000000f780011079800424798005347980035
:10311000340798005e429000e04f520007003a00ea
:103120003e029000de4190004e4190009e009000d3
:103130001e007800170007001400370024922000ba
:103140001e0a780024922000ce429000254298006a
:1031500024922000de429000354298002492200004
:103160009e0290002502980024922000be0290004a
:10317000350298005e4290008482fb002492200079
:10318000850078000400780007ff07000080fa003f
:10319000000006000a00fa001007980021079800b6
:1031a0006247980073479800440798000002eb00bc
:1031b000040f78001e029000050020006600200029
:1031c00007002000860f5200878f5a0019003e002a
:1031d00004600100060037001800370009003700be
:1031e000160037000c0037000d0037000f003700c5
:1031f0004e019000ee4090002e0090004df607002a
:103200000f0037004e019000ee4090002e0090001d
:1032100091f607000a003700a5f8070008003700fc
:103220006e409000b4f8070005003700baf50700bb
:10323000030037000000000001003700000000001c
:083240000080fa000000060006
:020000040000fa
:10324800d20800001e0000000000000094080000e2
:103258003e0000000200000072836e00837283004b
:10326800a282c40082e68200be82b30082a68200e7
:10327800db82980082ad8200c982d50082d08200ac
:10328800e082ec0082ff8200f2822b008308830038
:103298003d835900832183004f83180083f88200ff
:1032a8001283640083458300358300000008000012
:1032b8004c000000000000002a0900000200000085
:1032c80000000000180900000a00000000000000cb
:1032d800f00800001a0000000200000000010200cf
:1032e80003040100020304000502030004050600ac
:1032f800030405000607040005060700080000008f
:103308004c08000048000000000000000a09000006
:103318000e00000002000000ffff0b00020d00007d
:103328000f0309000c0e0a0001000000220900002a
:0c33380008000000000000000000000081
:020000040000fa
:103344000400fa0040f5070054f5070073f807007d
:10335400000278001407980014002000040f78007d
:10336400150037001e0278009e029000048242007d
:1033740014427800e14f52000e003a00813b2800cd
:1033840010c0b300d9f907001e0278008442780007
:103394000002eb00854178000041eb008000eb0067
:1033a4006000200054ff070000502300c1002000eb
:1033b400050007001e0fe8001e027800e40f52000b
:0833c400e8ff3400ffff3700b1
:020000040000fa
:1033cc00f03fb1000180b10006003500ee030900aa
:1033dc0000000000403fb1000180b100fbff3d0048
:1033ec001000b000203fb000020035000080090042
:0833fc000000000000000600c3
:00000001FF
