:020000040000fa
:080000000002040000000000f2
:020000040000fa
:10040000af9720000ebf20000e0188000000000002
:1004100000012000200288000c000700e0a5210058
:100420000100200011000700000020000000e00093
:10043000020032000000020000000000ee1a02007c
:10044000000000000040da000000fe004440a90067
:10045000e01520000000e000030032000000200052
:10046000a00188004440a800000006009101880017
:10047000800078000000eb0015003700e2804000ab
:1004800032a0b4009101ba00e280400032a0b40072
:100490009102ba00e280400032a0b4000002eb00fa
:1004a000472bde00f507b200602ce10004003a00a3
:1004b0000059eb008301e900fdff3e000400370016
:1004c0006128e100010032000082eb000400070017
:1004d0001101ba000200e000e8ff3a000000060047
:1004e0003159ba008301e9000c0032002159ba00e9
:1004f0008301e900080032000400e00003003a0034
:10050000e280400032a0b400f5ff370011d9ba00f4
:100510008301e900faff3a008100e800e180400031
:1005200032a0b400000006000040da000000fe0027
:020000040000fa
:100008009402000094020000940200009402000090
:100018009402000094020000940200009402000080
:100028009402000094020000940200009a06000066
:100038009402000094020000940200006607000089
:100048009402000094020000940200009402000050
:100058009402000094020000940200009402000040
:100068009402000094020000940200009402000030
:100078009402000094020000940200009402000020
:10008800940200009402000094020000f00b0000ab
:1000980094020000de1500009402000094020000a3
:1000a80094020000940200009402000094020000f0
:1000b80094020000940200009402000094020000e0
:1000c80094020000940200009402000094020000d0
:1000d80094020000940200009402000094020000c0
:1000e80094020000940200009402000094020000b0
:1000f80094020000940200009402000094020000a0
:10010800940200009402000094020000940200008f
:10011800940200009402000094020000940200007f
:10012800940200009402000094020000940200006f
:10013800940200009402000094020000940200005f
:10014800940200009402000094020000940200004f
:10015800940200009402000094020000940200003f
:10016800940200009402000094020000940200002f
:10017800940200009402000094020000940200001f
:10018800940200009402000094020000940200000f
:1001980094020000940200009402000094020000ff
:1001a80094020000940200009402000094020000ef
:1001b80094020000940200009402000094020000df
:1001c80094020000940200009402000094020000cf
:1001d80094020000940200009402000094020000bf
:1001e80094020000940200009402000094020000af
:0801f8009402000094020000d3
:020000040000fa
:10020800940200009402000094020000940200008e
:10021800940200009402000094020000940200007e
:100228009402000094020000940200009a06000064
:100238009402000094020000940200006607000087
:10024800940200009402000094020000940200004e
:10025800940200009402000094020000940200003e
:10026800940200009402000094020000940200002e
:10027800940200009402000094020000940200001e
:10028800940200009402000094020000f00b0000a9
:1002980094020000de1500009402000094020000a1
:1002a80094020000940200009402000094020000ee
:1002b80094020000940200009402000094020000de
:1002c80094020000940200009402000094020000ce
:1002d80094020000940200009402000094020000be
:1002e80094020000940200009402000094020000ae
:1002f800940200009402000094020000940200009e
:10030800940200009402000094020000940200008d
:10031800940200009402000094020000940200007d
:10032800940200009402000094020000940200006d
:10033800940200009402000094020000940200005d
:10034800940200009402000094020000940200004d
:10035800940200009402000094020000940200003d
:10036800940200009402000094020000940200002d
:10037800940200009402000094020000940200001d
:10038800940200009402000094020000940200000d
:1003980094020000940200009402000094020000fd
:1003a80094020000940200009402000094020000ed
:1003b80094020000940200009402000094020000dd
:1003c80094020000940200009402000094020000cd
:1003d80094020000940200009402000094020000bd
:1003e80094020000940200009402000094020000ad
:0803f8009402000094020000d1
:020000040000fa
:0200000401f009
:04001c00fdff0000e4
:020000040000fa
:0200000401f009
:04001800ffff0000e6
:020000040000fa
:0200000401f009
:040014005fff00008a
:020000040000fa
:0200000401f009
:04001000fbff0000f2
:020000040000fa
:0200000401f009
:04000c00d9ff000018
:020000040000fa
:0200000401f009
:04000800ffff0000f6
:020000040000fa
:0200000401f009
:04000000ffff0000fe
:020000040000fa
:10053000526100006e6400006f6d0000697a000077
:10054000650000005365000074000000456e000067
:1005500067610000676500000043000068650000f7
:10056000636b0000004400006561000063740000dc
:1005700069760000617400006500000043790000a6
:10058000636c00006500000053630000616e0000b2
:1005900000440000657000006c6f000079000000ee
:1005a000464c000049500000004500006a6500000c
:1005b0006374000000560000656e000074000000c7
:1005c000466c00006f6f0000640000004372000082
:1005d000616e00006b000000416c00006967000064
:1005e0006e000000426100006467000065000000ca
:1005f0004169000072620000616700000054000061
:1006000068720000757300007465000072000000dd
:1006100056610000706f0000726900007a6500008a
:1006200072000000506900006c6f00007400000050
:10063000496d0000706500006c6c00006572000080
:10064000004300006f6d00006275000073740000cd
:100650006f720000004400006973000074690000bc
:100660006c6c0000657200000053000068690000b7
:10067000656c000064730000004e000065740000ab
:10068000776f0000726b000000520000656600008a
:100690006c650000637400006f720000005300007e
:1006a00065710000756500006e63000065720000f2
:1006b0000050000065720000636f00006c61000074
:1006c000746f000072000000594f00005552000086
:1006d000205300004849000050000000666f0000f1
:1006e00072000000746f0000002000003d20000038
:1006f00000000000576500006c6300006f6d000093
:1007000065200000746f000020530000706100003d
:100710006365000074650000616d00002100000049
:100720005761000069740000696e000067200000d6
:10073000666f0000722000006f74000068650000a2
:1007400072200000706c000061790000657200008a
:10075000732e00002e2e000000470000414d0000c7
:10076000452000004f5600004552000021000000c7
:1007700050410000434b000045540000205300004e
:10078000454e00005400000050410000434b000063
:1007900045540000204e00004f540000205300003c
:1007a000454e0000540000004a75000073740000bc
:1007b000696e000020480000616d00006d6500005a
:1007c0007221000000000000880100000203000008
:1007d000040000000a0700000401000000080000f7
:0c07e000050200000b09000006030000e9
:020000040000fa
:1007ec000200fa000002eb00244088000002eb003b
:1007fc00040f78000b0037001e027800c322dd00c6
:10080c00a480200004824200e5002000050a780044
:10081c00b48520009e02420084c0b300844a780054
:10082c001e0fe8001e027800e70f5200f2ff3400a2
:10083c0014c0b300044078005be8b7000002eb0082
:10084c00040f780005003700348520009e0242001a
:10085c000042eb00844a78001e0fe8001e0278006c
:10086c00e30f5200f8ff34000042eb000440780024
:10087c0052e8b7000080fa00000006000000fa0001
:10088c00d7ff0700180907009303070011c0b30036
:10089c000040eb000b06070011c0b30010c0b30002
:1008ac0008060700a13728000040eb00f3040700fe
:1008bc000139280010c0b300f00407007c060700c3
:1008cc00090107004f0107000080fa000000060034
:1008dc000000fa00da090700000278000508800021
:1008ec0005026a00044088000002eb0014408800f6
:1008fc0003003700144080000402e8001440880014
:10090c0015408000b4852000048242001442780017
:10091c00e84f5200f7ff3a001400200024408800f2
:10092c0084c0b3000440780008e8b70010c0b300de
:10093c00a9050700180007000080fa000000060057
:10094c000200fa0004408000c222de000440800055
:10095c0084826a00044080004322de0084826a00a4
:10096c00044080004522de0004826a00610f6200b0
:10097c00044080008402d1001e0278004f22dd006a
:10098c000482720004408800044080000400780057
:10099c000080fa00000006000400fa00e8ff0700df
:1009ac0000027800040f78001e00780067026000d7
:1009bc0014079800a584200014c0b300a44298002a
:1009cc00dfff070000027800040f78009e02780019
:1009dc00e4002000110009008482d8000102780094
:1009ec0084027800a4842000050a7800d4ff070054
:1009fc0000027800040f7800a48420001402780010
:100a0c00e10f520017003200e10f520003003900d1
:100a1c00e20f52000a003200170037009e027800e5
:100a2c0004712200110009008482d80001027800b0
:100a3c0084027800a484200025029800120037005c
:100a4c009e027800b4002000110009008482d800b6
:100a5c000102780084027800a4842000250298000a
:100a6c00090037001e027800e3026200a484200013
:100a7c002502980004003700a48420008002eb00bb
:100a8c002502980000000000a4842000240290009d
:100a9c00a5842000a5429000a684200016037800af
:100aac008541780012c0b300860078000000eb008e
:100abc009a090700a484200024039000a484200039
:100acc0024429000a584200095027800060178004d
:100adc008440780005007800ca04070084c0b30085
:100aec000440780006e8b7000002eb000408880018
:100afc009460a8000080fa00000006000a00fa00ca
:100b0c002007980061479800420798000002eb000c
:100b1c00040f78003d0037001e027800c322dd0070
:100b2c00a48020000482420014027800ee0f5200d0
:100b3c0035003a001e027800c322dd00a48020009c
:100b4c0004824200ae029000050a78001e02780072
:100b5c00c322dd00c480200004824200ee429000db
:100b6c00054a78001e027800c322dd0004812000b3
:100b7c008482420094c1b300844a78002e02900013
:100b8c00e20f520019003600ae029000848a200059
:100b9c000482420014427800044078008108070067
:100bac0000427800244798002e429000e04f5200fb
:100bbc0007003a001e027800c322dd00e48020000a
:100bcc000482420015002000050a7800120037004c
:100bdc001e027800c322dd00e48020000482420063
:100bec008002eb00050a78000b0037001e0278002b
:100bfc00c322dd00e480200004824200ce0290007b
:100c0c00050a7800040037001e0fe8001e02780069
:100c1c00e70f5200c0ff34000080fa00000006000d
:100c2c000800fa0010079800414798003207980016
:100c3c000002eb00040f7800210037001e02780040
:100c4c004322dd008482e800a4802000048242005c
:100c5c00944278004e42900084cf520017003a0024
:100c6c001e027800c322dd00a48020000482420012
:100c7c00940278001e029000848f52000f003a00fc
:100c8c001e0278004322dd00e4024200a480200012
:100c9c0004824200940278003e029000848f52003d
:100cac0006003a001e027800c322dd00a48020005a
:100cbc0004824200e5002000050a78001e0fe800bf
:100ccc001e027800e70f5200dcff34000080fa00af
:100cdc00000006000000fa009460a9002eff070037
:100cec000080fa00000006000000fa000082eb0011
:100cfc00140888000002eb0004088800240580001a
:100d0c0004c0a10004d0a00004e0a00024058800c9
:100d1c008460a9009460a9000403280024088800ba
:100d2c000080fa00000006003600f800809fbe002c
:100d3c00829fbe00849fbe00869fbe003400f800d8
:100d4c0000002000a00188000000fa00cb0807007a
:100d5c0024408000e10f520020003a006480200003
:100d6c00144278000442e9000440780006e8b70019
:100d7c006480200014427800e04f520017003a00c3
:100d8c009460a900a484200024029000a584200073
:100d9c00a5429000a68420001603780085417800b7
:100dac0012c0b3008600780020002000db0807008a
:100dbc000e02070000027800e00f52000200320021
:100dcc00f5fe07000500370085fe0700d403070079
:100ddc00d13a28000040eb00a80307008460a9006a
:100dec00b50807000080fa003400f9004f03be007c
:100dfc004f02be004f01be004f00be003600f9008e
:100e0c00004006000000fa0004022000440888009c
:100e1c000042eb000440780006e1b7003405800086
:100e2c0004c0a00004d0a10004e0a0003405880098
:100e3c0084e0a90094e0a800f4072000540888007e
:100e4c000080fa00000006000200fa000002eb002d
:100e5c00040f780080c0b300d2070700004278006e
:100e6c00e04f520006003a006486200014427800dd
:100e7c000442e9000440780066e8b700030037003c
:100e8c0094c1b3000440780066e8b7006486200083
:100e9c0014427800e04f520005003a001400200084
:100eac00040f780094c1b3000440780066e8b700e2
:100ebc001e027800040078000080fa000000060092
:100ecc003600f800809fbe00829fbe00849fbe004b
:100edc00869fbe003400f80000002000a0018800ae
:100eec000200fa006508070024408000e10f520060
:100efc0032003a000002eb00040f78002a003700a1
:100f0c001e027800c322dd00a4802000048242006f
:100f1c0014027800ee0f5200220032001e007800fe
:100f2c003500070000027800e00f52001d0032006f
:100f3c001e0278004322dd00e4024200a48020005f
:100f4c0004824200140278009e027800c32add005d
:100f5c000583e800a58020008502430095427800b7
:100f6c001e037800c333dd00a680200006834300f7
:100f7c00160378008541780012c0b3008600780013
:100f8c0010002000650807001e027800c322dd0057
:100f9c00a480200004824200e5002000050a7800ad
:100fac007dfe07001e0fe8001e027800e70f5200be
:100fbc00d3ff34004d01070005003700a2ff0700e6
:100fcc0000027800e00f52000100320040fe0700e2
:100fdc0084e0a900380807000080fa003400f9000a
:100fec004f03be004f02be004f01be004f00be00bb
:100ffc003600f900004006000400fa0010079800c3
:10100c000002eb00040f78001e029000c322dd00ea
:10101c00a48020000482420014027800e10f5200e8
:10102c0010003200e10f520003003900e20f5200b1
:10103c0017003200210037001e0290004322dd0011
:10104c00e4024200a48020000482420014027800d2
:10105c00040078002200070000027800040f7800da
:10106c001b0037001e0290004322dd00e402420008
:10107c00a48020000482420014027800040078004e
:10108c007a00070000027800040f78001000370087
:10109c001e0290004322dd00e4024200a4802000e6
:1010ac00048242001402780004007800f800070063
:1010bc0000027800040f7800050037001e00900035
:1010cc00ba00070000027800040f7800000000004e
:1010dc001e027800040078000080fa000000060070
:1010ec000c00fa00500798000002eb00140798005f
:1010fc000082eb0024079800843e200034079800ff
:10110c006907070000427800044f98000e4a9000cf
:10111c00e14f42003e0032000e4a90000482fb0078
:10112c00ea0f520010003200eb0f520028003a0078
:10113c000002eb00040f7800050037003485200016
:10114c009e0242000042eb00844a78001e0fe80029
:10115c001e027800e30f5200f8ff34000002eb008f
:10116c0024438800270037000002eb002407980076
:10117c000002eb00040f78001100370034852000ca
:10118c001e024200144278008482fb003e02900052
:10119c0004aab90004027800ae0290000482420056
:1011ac0024079800be029000a40020001100090042
:1011bc008482d80000027800340798001e0fe800e3
:1011cc001e027800e30f5200ecff34000d003700d4
:1011dc002543800034852000048242008e4a900012
:1011ec00054a7800244380008402e8004400200073
:1011fc00110009008402d800010278002443880001
:10120c00000000003485200004007800c0030700b3
:10121c00ae0290005e029000848f52000f003a00e4
:10122c000002eb00040f7800050037003485200025
:10123c009e0242000042eb00844a78001e0fe80038
:10124c001e027800e30f5200f8ff340010c0b30008
:10125c006103070014002000140798001e02900080
:10126c00040078000080fa00000006000c00fa0070
:10127c00500798000002eb00140798000002eb00e6
:10128c002407980014c0b3000440780052e8b7005b
:10129c000002eb00040f78000f003700748520006b
:1012ac001e024200944278005e0290004222dd0051
:1012bc001e0342008486200004024300144278007e
:1012cc0084cf520003003a002e0290000402e80082
:1012dc00240798001e0fe8001e027800e30f52004e
:1012ec00eeff34002e029000e40f520012003a0080
:1012fc0014002000140798000002eb00040f780083
:10130c0005003700748520009e0242000042eb006d
:10131c00844a78001e0fe8001e027800e30f52008a
:10132c00f8ff34000042eb000440780052e8b700ac
:10133c0010c0b300280307001e02900004007800c0
:10134c000080fa00000006000000fa00248520004e
:10135c00144278000482fb00040078000080fa003c
:10136c00000006000400fa00100798000002eb00d1
:10137c00040f7800080037001e0278009e029000cf
:10138c000482420014427800758520009e8242003f
:10139c00844a78001e0fe8001e027800e30f52000a
:1013ac00f5ff34000080fa00000006000400fa008b
:1013bc00100798000002eb00040f78001e0290004a
:1013cc00c322dd00a4802000048242009402780035
:1013dc00848a200004824200144278000440780081
:1013ec0070060700004278008482fb001e02900009
:1013fc004322dd0064034200a48020000402430069
:10140c0014027800848f520017003a001e029000dc
:10141c004322dd00e6024200a48020000482420048
:10142c00144278000442e9009e029000432bdd0038
:10143c000581200085024300844a78001e0290003a
:10144c004322dd00e6024200a48020000482420018
:10145c0014427800e04f520009003a0014002000ba
:10146c00040f7800060037001e029000c322dd0036
:10147c00048120008482420094c1b300844a780025
:10148c001e027800040078000080fa0000000600bc
:10149c000600fa00200798000002eb00040f780009
:1014ac00e706070000027800140798009e029000df
:1014bc0044062000110009008482d8000002780044
:1014cc00140798009e0290002e029000848f520008
:1014dc0002003a0014002000040f78001e0278006d
:1014ec00040078000080fa00000006000000fa00fa
:1014fc0024408000e10f52001f003a00758020004c
:10150c0095427800648020001442780084cf520009
:10151c000d0039007480200014427800e74f52000f
:10152c000e00360074802000144278008482fb0088
:10153c0084802000144278000482fb006802420080
:10154c00848f520005003d00748020001442780006
:10155c000482fb00040078001e0607007480200043
:10156c00144278000442e8006f42620004407800a4
:10157c0007e8b7001b00370024408000e00f520042
:10158c0018003a0074802000144278008482fb001a
:10159c00b48520000482420014427800e84f5200c7
:1015ac000500320074802000144278000482fb0095
:1015bc0004007800070607007480200014427800ad
:1015cc000482fb008402e800840020001100090062
:1015dc008402d800010278000442780004407800ac
:1015ec0007e8b7000080fa00000006000200fa00cd
:1015fc0014002000040f780084802000144278002e
:10160c000442e9000440780008e8b7008480200018
:10161c0014427800e04f520002003a000002eb0046
:10162c00040f78001e027800040078000080fa0095
:10163c00000006000600fa00404798000002eb008c
:10164c00040f78000002eb00140798000900370023
:10165c001e0fe800b48520001e0242009442780060
:10166c004e42900084cf520002003a001400200039
:10167c0014079800b48520001e0242001442780022
:10168c00e84f5200f2ff3a001e029000e00f5200a9
:10169c0004003a00b48520001e024200ce429000a5
:1016ac00054a78000080fa00000006000000fa00ed
:1016bc00b4852000040078000080fa0000000600c9
:1016cc000000fa00244080000442780004407800b6
:1016dc000080fa00000006000000fa004307070033
:1016ec0000027800e00f520001003a000d070700dd
:1016fc009705070000027800e00f520001003a0045
:10170c00790507000041eb0011c2b300608b20008b
:10171c001e0207000041eb0011c2b300708d2000c7
:10172c001a0207000042eb0004407800fae8b70008
:10173c000042eb0004407800fbe8b7000042eb00ed
:10174c0004407800f8e8b7000042eb000440780051
:10175c00f9e8b7000042eb0004407800fce8b70061
:10176c000042eb0004407800fde8b7000042eb00bb
:10177c0004407800fee8b7000042eb00044078001b
:10178c00ffe8b70003000700170107000080fa000c
:10179c00000006000000fa00f40f2000a4088800e6
:1017ac000002eb00940888008405800004c0a100ae
:1017bc0004d0a10004e0a000840588008760a90083
:1017cc009760a800f4072000b40888000080fa0095
:1017dc00000006003600f800809fbe00829fbe000d
:1017ec00849fbe00869fbe003400f80000002000dd
:1017fc00a00188000000fa00c48f20001442780079
:10180c00e14f52000900320005902000954278000b
:10181c00b4c3b30084cf520009003a00a48f200057
:10182c0014427800e14f520005003a000040eb00f2
:10183c00290007000042eb0004407800fce8b700e8
:10184c00d48f200014427800e14f5200090032007e
:10185c000590200095427800b4c3b30084cf5200a9
:10186c0009003a00b48f200014427800e14f520076
:10187c0005003a0010c0b300170007000042eb004f
:10188c0004407800fde8b700049020001442780072
:10189c000482fb008402e800c4032000110009004c
:1018ac008402d800010278000442780004407800d9
:1018bc0000e9b7008760a9000080fa003400f90045
:1018cc004f03be004f02be004f01be004f00be00d2
:1018dc003600f900004006000e00fa00404f980058
:1018ec000042eb00244f98004e4a9000e04f52000b
:1018fc000c003a00648b2000040f7800848f2000c9
:10190c0014079800fac8bf00404798000042eb004b
:10191c0064479800e18f200091407800514798006f
:10192c000c003700748d2000040f7800948f200079
:10193c0014079800b48f2000144278004447980094
:10194c0004c4b30064479800f58f200095427800da
:10195c00554798006e409000bd0007004e42900025
:10196c00e14f520013003a005e429000f04f5200db
:10197c00100036001e02900014407800204f980092
:10198c002e4a90000482fb008402e8005e42900024
:10199c000482fb000402e800110009008402d80054
:1019ac0001027800044278009e029000844a78007c
:1019bc000200370004c1b300544798000002eb004a
:1019cc0044079800130037002e4a90000482fb0055
:1019dc001e02420014427800044078002e000700da
:1019ec002e4a90000482fb008402e8005e429000c4
:1019fc000482fb000402e800110009008402d800f4
:101a0c0001027800244f98004e0290000402e80076
:101a1c00440798004e029000ef0f5200eaff34008a
:101a2c000080fa00000006000400fa00100798007d
:101a3c0054168000040f780084ff2f009e02620071
:101a4c001e02900067026200048f72001e02780072
:101a5c00641688000080fa00000006000200fa00fc
:101a6c00004f78001e407800570607000000eb007e
:101a7c00edff070040002000ebff07000000eb002b
:101a8c00e9ff07008012200001002000f806070083
:101a9c000080fa00000006000200fa00004f7800f7
:101aac001e427800e04f5200030032001e407800c6
:101abc00450607000200370000c2b30042060700cb
:101acc0010002000d8ff070050002000d6ff0700b0
:101adc0010002000d4ff070080122000010020001d
:101aec00e30607000080fa00000006000a00fa0076
:101afc00300798004107980004002100040f78007b
:101b0c000002eb002407980022003700be02900070
:101b1c001e027800110009008482d80000027800af
:101b2c0014079800be0290001e02780011000900f4
:101b3c008482d80001027800340798001e027800d5
:101b4c004422de00040f78001e029000e90f5200c0
:101b5c0004003e001e0290000403b000140798001d
:101b6c00030037001e0290007403b00014079800a5
:101b7c002e029000ce029000848242001e02900041
:101b8c0004427800844a78002e0290000402e80097
:101b9c00240798001e027800e00f5200dbff3a0089
:101bac002e029000ce029000848242000042eb0094
:101bbc00844a78000080fa00000006000a00fa004f
:101bcc0030079800014f98008e0078003e0090007e
:101bdc00c6ff07008e0078000e4890002700070013
:101bec000080fa00000006000000fa0080c3b30079
:101bfc009aff070000c42900010020009c06070082
:101c0c0080c3b30095ff070000f421000100200001
:101c1c009706070080c3b30090ff070080c3b30092
:101c2c008eff0700c0c0b3008cff070060c0b3007c
:101c3c008aff070010c0b30088ff070000e82300ec
:101c4c00010020008a0607000080fa000000060050
:101c5c000200fa00004f780004c8b3001e42720064
:101c6c00044078007dff07000019200001002000cf
:101c7c007f0607000080fa00000006000c00fa0046
:101c8c00004f9800510798000e4a9000e04f520008
:101c9c0009003a00648b2000040f7800c48f2000e8
:101cac0014079800e48f200024079800848f2000ec
:101cbc003407980008003700748d2000040f78005a
:101ccc00d48f200014079800f48f2000240798006c
:101cdc00948f200034079800be0290000042eb0065
:101cec00844a78000041eb0001c2b3001e0078006a
:101cfc00a60007009e0078005e009000cc00070054
:101d0c0000427800ae029000844a78009e02900057
:101d1c0014c0b300844a78000080fa00000006006a
:101d2c000000fa0010c0b3004cff070000e82300cd
:101d3c00010020004e0607000080fa00000006009b
:101d4c000c00fa004007980051079800843e2000d0
:101d5c00040f78000042eb00244798004e009000de
:101d6c00200798001c003700ae0290001e0278007d
:101d7c00110009008482d8000002780064479800a2
:101d8c00ae0290001e027800110009008482d80077
:101d9c0001027800240798009e027800a40020001d
:101dac00110009008482d80000027800040f78002a
:101dbc002e4290000482fb00de02900084824200de
:101dcc006e4290000443b000844a78002e4290008a
:101ddc000442e800244798001e027800e00f5200ed
:101dec00e1ff3a002e4290000482fb00de029000dc
:101dfc00848242000042eb00844a78000080fa00a2
:101e0c00000006003200fa0060179800616f98001d
:101e1c00021f98000042eb00044f78006e129000f5
:101e2c0084024200849020000482420094027800d4
:101e3c00150798006e129000840242004492200014
:101e4c000482420094027800250798006402200066
:101e5c000e024200840078000e189000b8ff0700b4
:101e6c00660247000041eb0001c2b3000400780099
:101e7c00460007009e4278000582fb00e602470000
:101e8c0004824200840078001e0090006800070065
:101e9c00004278001e4f42009e4278000582fb00f3
:101eac008402470004c2b300e44298001e4fe800cd
:101ebc009e4278000582fb00e60247000482420045
:101ecc00840078002e009000590007000042780032
:101edc001e4f42006e129000e20f520025003e0091
:101eec009e4278000582fb008402470004c2b300c6
:101efc00e44298001e4fe8009e4278000582fb00e9
:101f0c00e6024700848242006e12900004034200f5
:101f1c00249020000402430014027800850078000d
:101f2c000400780042000700004278001e4f420077
:101f3c009e4278000582fb008402470004c2b30075
:101f4c00e44298001e4fe8009e4278000582fb0098
:101f5c00e602470084824200640220000e02420026
:101f6c0085007800040078003100070000427800fa
:101f7c001e4f420066024700840078000040eb00d0
:101f8c003eff07000080fa00000006000600fa0081
:101f9c001007980041479800524798000002eb0048
:101fac00040f7800060037001e0278009e02900095
:101fbc00848242005e429000844a78001e0fe80042
:101fcc004e4290000482fb009e0f5200f6ff3c0034
:101fdc000080fa00000006000200fa00004f7800b2
:101fec001e427800e04f520008003a000041eb001e
:101ffc0001c2b300608b2000e4ff070014c0b300e3
:10200c0004407800fce8b700070037000041eb0003
:10201c0001c2b300708d2000dcff070014c0b300b8
:10202c0004407800fde8b7000080fa0000000600cc
:10203c000600fa0010079800210798000042eb00f8
:10204c00044f78000b0037009e4278000582fb009d
:10205c00ae029000848242001e4378000682fb0090
:10206c001e0390000402430014427800844a780056
:10207c001e4fe8009e4278000582fb009e029000f5
:10208c000482420014427800e04f520003003200f8
:10209c001e427800ff4f5200ebff36001e437800c3
:1020ac000682fb00ae029000848242000042eb00ec
:1020bc00844a78001e427800044078000080fa00c0
:1020cc00000006000200fa00004f7800114798004b
:1020dc001e427800e04f520006003a001e4090006d
:1020ec00fae8b7000042eb0004407800f8e8b700cb
:1020fc00050037001e409000fbe8b7000042eb00e3
:10210c0004407800f9e8b7000080fa0000000600ef
:10211c002a00fa00401798000042eb002447980070
:10212c00630247000041eb0001c2b30004007800d9
:10213c0096ff07000002eb00040f78000a0037003e
:10214c001e027800ce1290000482420014427800e5
:10215c000443b000350220008e8242009e82420071
:10216c00844a78001e0fe8001e027800e30f52002c
:10217c00f3ff3400340220000e0242009e024200a3
:10218c000042eb00844a780024498000e3024700b7
:10219c008500780004007800a5ff07000042780055
:1021ac00ae42900004c24200244798002e42900098
:1021bc000482fb00e30247000482420084007800a2
:1021cc00503728009aff070000427800ae4290007a
:1021dc0004c24200244798002e4290000482fb0067
:1021ec00e302470084824200340220000e024200c7
:1021fc0085007800040078008dff0700004278000d
:10220c00ae42900004c2420024479800630247008b
:10221c008400780010c0b30098fe07000080fa001c
:10222c00000006000c00fa00500798005e029000b7
:10223c000402e800144278008402fb005e02900065
:10224c00144278000402fb004822dd0004824200a4
:10225c008e0078000400780024fe07005e029000d7
:10226c0063024200144278008402fb005e0290007c
:10227c000482e800144278000402fb004822dd00ce
:10228c0004824200e40247008500780004007800d4
:10229c0016fe07000042eb00044f98008e007800f9
:1022ac0010c0b30075fe07000080fa0000000600a5
:1022bc000200fa004d04070000027800e00f520003
:1022cc0001003a0017040700cd82a800800020000e
:1022dc0001002000e6040700f1c0b30010c0b300f9
:1022ec002500070000202100a1072000e0040700c2
:1022fc00d1c8b300a0c2b3001f000700e1c3b300f4
:10230c00b0c2b3001c000700e1c1b300d0c2b300df
:10231c00190007008040eb00c0c2b3001600070094
:10232c0001c4b30050c1b30013000700d1c3b30004
:10233c0010c1b3001000070040c1b300210007001a
:10234c0000427800044f78009e4278000582fb0022
:10235c0063026200e00f520005003a001e42780052
:10236c00634f72009e40780040c1b300020007002a
:10237c000080fa00000006000200fa00004f78000e
:10238c0011479800cd82a9009e4278000582fb007f
:10239c0004024200044278000474a1000440780056
:1023ac00090407001e40900007040700cd82a80016
:1023bc008000200001002000ad0407000080fa001e
:1023cc00000006000400fa0020479800cd82a90006
:1023dc002e4290000482fb000402420084427800ea
:1023ec0004c8b30004c2720004407800f60307006e
:1023fc000040eb00f403070000427800044f780023
:10240c00cd82a8001e427800044078000080fa00bb
:10241c00000006000400fa0020479800314798009d
:10242c002e409000e7ff070000427800044f780030
:10243c003e4290001e427200844078002e40900074
:10244c00cdff07000080fa00000006000400fa002f
:10245c0020479800314798002e409000d9ff070084
:10246c0000427800044f78003e42900084c2ea009b
:10247c001e42780004c26200844078002e40900016
:10248c00bdff07000080fa00000006001000fa00f3
:10249c00881f780040079800214f98006207980029
:1024ac00730798000042eb00044f78000042eb00e9
:1024bc00644798000042eb00144798002400200069
:1024cc002407980001c8b30040c0b300dfff070029
:1024dc0001c8b300a0c0b300a7ff07008040eb0009
:1024ec0010c0b300a4ff07000002eb001407980013
:1024fc000a0037001e029000ce02900004824200b7
:10250c00144278008440780090c0b3009aff070012
:10251c001e0290000402e800140798002e4a900056
:10252c008482fb001e029000848f5200f1ff3c005d
:10253c00c1c0b30010c0b3008fff070001c8b300c7
:10254c00d0c0b300b3ff0700047d2000140798002f
:10255c000700370040c0b3009aff07000042780024
:10256c00044f78001e0290000402e9001407980042
:10257c001e4278008482fb00040320000482620067
:10258c00e00f520003003a001e029000e00f5200d0
:10259c00f0ff3c0001c8b300d0c0b300abff070094
:1025ac001e029000e00f5200340032001400200094
:1025bc0024079800a0c0b30082ff070000427800f7
:1025cc0064479800c0c0b3007eff0700004278004b
:1025dc00144798001e42900067426200144798000e
:1025ec001e429000e04f520005003a006e429000ef
:1025fc00350020000522dd00144798000900370043
:10260c006e4290000482fb000402e9000442780050
:10261c00350020000522dd009e42900004c24200dd
:10262c00144798007e0290009e429000054a780064
:10263c000002eb00140798000a0037001e029000fd
:10264c00ee0290000484420090c0b3005dff0700ce
:10265c0000427800044c78001e0290000402e8004e
:10266c00140798006e4290008482fb001e029000ba
:10267c00848f5200f1ff3c00050037000002eb0094
:10268c0024079800fe0290000042eb00844a780078
:10269c002e029000040078004f0478000080fa00ad
:1026ac00000006000600fa002007980071c0b30075
:1026bc00d0c0b30030ff0700ae02900064c2b3007c
:1026cc00844a78000e82e800840178002e01900084
:1026dc0011c0b3002e0090006cff070000027800c0
:1026ec00040f78001e027800e10f520005003a003a
:1026fc002e429000f04f52000200320024002000c5
:10270c00040f78001e027800040078000080fa00a4
:10271c00000006000800fa00300798000042eb00a9
:10272c00444798008040eb00d0c0b30012ff070074
:10273c00be02900034c9b300844a78003e02900077
:10274c008402e80004c2b300844a780065024700a2
:10275c00840178003e01900021c0b3003e0090003f
:10276c004aff070000027800040f78001e02780070
:10277c00e10f520020003a00de42900084c2b30008
:10278c0084cf52001a003a000002eb0014079800a4
:10279c000a0037001e029000be0290000482420024
:1027ac0014427800ce42900004c26a00444798005c
:1027bc001e0290000402e800140798001e0290000c
:1027cc00e30f5200f3ff34001e029000be02900093
:1027dc0004824200944278004e42900084cf520012
:1027ec000500320024002000040f7800020037009e
:1027fc0024002000040f78001e02780004007800ea
:10280c000080fa00000006001600fa00200f980065
:10281c006402470004007800a2ff07000002780061
:10282c00040f78001e027800e10f520019003a00e4
:10283c006402470004007800b6ff0700000278002d
:10284c00040f78001e027800e10f520011003a00cc
:10285c000002eb00140798000b0037001e029000da
:10286c00ae0a900084824200640347001e0290006e
:10287c000402430014427800844a78001e0290003f
:10288c000402e800140798001e029000e30f5200a7
:10289c00f2ff34001e027800040078000080fa0079
:1028ac00000006000800fa0030079800cde2a900ed
:1028bc00c4e2a800cd02070000027800e00f52002d
:1028cc0001003a009702070001c7b30070c0b300c3
:1028dc006d0007003e0090002300070021c0b300ec
:1028ec0050c0b3006800070061c2b30060c0b30001
:1028fc006500070061c0b300d0c1b30062000700df
:10290c0011c0b300c0c1b3005f0007000042eb0070
:10291c00044078005ee9b700940580000440a000f4
:10292c000450a0000460a0009405880087a0a900b2
:10293c008240a80097a0a80001c1b30010c1b30049
:10294c0051000700f1c0b3000040eb004e0007003f
:10295c00cde2a80000a8210061002000440307007c
:10296c000080fa00000006000200fa00000f780058
:10297c0052c0b3009e007800a0c0b3003300070023
:10298c000080fa00000006000200fa00c4e2a90070
:10299c0000c0eb008c02070000427800044f780066
:1029ac00c4e2a8001e427800044078000080fa00bf
:1029bc00000006000800fa00004f7800110798008c
:1029cc002207980063479800c4e2a9001e407800d3
:1029dc007d0207006e419000ae0090001e0090003a
:1029ec0089020700c4e2a8000080fa00000006007b
:1029fc000600fa00004f7800110798004247980033
:102a0c009e4278007fc26200ce4190001e01900071
:102a1c008000eb0004407800e6ff07000080fa001d
:102a2c00000006000400fa002047980012c0b30012
:102a3c008e0078002e409000edff07001e427800bb
:102a4c00044078000080fa00000006000600fa003e
:102a5c00004f780011079800424798001e427800fa
:102a6c00ff42620004c2b30004c27200ce41900067
:102a7c000001eb009e00900004407800cdff0700a1
:102a8c000080fa00000006000400fa0020479800bd
:102a9c00314798003e429000044f780012c0b300ba
:102aac008e0078002e409000e8ff07000080fa00ae
:102abc00000006000200fa00000f780003c1b3000a
:102acc001e0178008000eb0010c6b300b9ff0700b0
:102adc000080fa00000006000400fa00000f7800e5
:102aec001107980000000000e495200014427800c3
:102afc00e04f5200fcff3a00cde2a90014c0b30035
:102b0c00044078005ee9b700e1c0b3000040eb0080
:102b1c00ddff07008041eb000001eb008000eb00c3
:102b2c0010ceb300a3ff070003c1b3000001eb00fc
:102b3c009e00780000cab3009eff07001400070037
:102b4c000080fa00000006000400fa00000f780074
:102b5c00214798008041eb000001eb008000eb0066
:102b6c0010ceb30093ff0700ae42900084cab300ae
:102b7c0004c2720003c1b3000001eb009e00780098
:102b8c00044078008bff07000080fa00000006006c
:102b9c000000fa00cde2a800000520000100200092
:102bac00b3020700cde2a9000080fa000000060085
:102bbc003600f800809fbe00829fbe00849fbe003e
:102bcc00869fbe003400f80000002000a0018800a1
:102bdc000200fa00641680004c22de0061426200a2
:102bec00044f7800cd82a80067ff070000427800f0
:102bfc00144798001e4290008482fb0004022000bf
:102c0c0004826200e00f520009003200813b280070
:102c1c000040eb0019fc070001c2b30070c0b30008
:102c2c0099ff07000042eb00044078005ee9b70012
:102c3c001e4290000482fb0070026200e00f520002
:102c4c0007003200413c28000040eb000bfc070061
:102c5c0001c1b30070c0b3008bff0700ccff0700ad
:102c6c001e4290008482fb00040420000482620057
:102c7c00e00f520009003200f09520008dff070094
:102c8c00f49520008400780010c0b300fbfb070013
:102c9c0001c4b30070c0b3007bff07009e427800f4
:102cac0061c262000482fb00610262004c22dd0002
:102cbc0066168000f5ff2e00850263000482720008
:102ccc006416880087a0a9000080fa003400f9007f
:102cdc004f03be004f02be004f01be004f00be00ae
:102cec003600f900004006000000fa000002eb007c
:102cfc000427880004002400142788000405200001
:102d0c000416880004402400441688004b00070079
:102d1c000002eb00141988000002eb002419880053
:102d2c000002eb0004198800a4a0200044198800bc
:102d3c0021e3a800c4e2a800cd82a8003f00070050
:102d4c0014002000044a88000080fa0000000600ed
:102d5c000000fa00044a8000040078000080fa00a9
:102d6c00000006000400fa002047980014168000aa
:102d7c00044f78009e42780004cfb30084c26200f6
:102d8c002e4290006f42620004c27200044f780021
:102d9c009e4278000582fb00241688000080fa0011
:102dac00000006000200fa00004f78001e40780078
:102dbc00ecff070000192000010020002c02070086
:102dcc001300070000427800044078000080fa00ed
:102ddc00000006000400fa0010079800541680004a
:102dec00040f780074f82f009e0262001e029000ff
:102dfc004323dd008407200004026300048f72006b
:102e0c001e027800641688000080fa00000006009c
:102e1c000200fa00141680004422de0061426200b7
:102e2c000482fb00040f78001e0278000442780034
:102e3c00044078000080fa00000006000400fa004c
:102e4c0050168000100798009e0290000438200055
:102e5c0004827200140798001e0290006416880009
:102e6c000042eb000440780042e9b7000002eb009e
:102e7c00040f7800070037001e027800840242001d
:102e8c00449420000482420095012000050a780039
:102e9c001e0fe8001e027800eb0f5200f6ff340004
:102eac000080fa00000006000800fa0000c2eb00e7
:102ebc002447980050168000200798002494200086
:102ecc00144278000482fb0005082000042add006f
:102edc000482ea00ae02900004826200240798008b
:102eec00ae009000611688000002eb00040f780021
:102efc003700370024942000144278000482fb0031
:102f0c004222dd001e024200340798001e027800a7
:102f1c0004427800644242000440780091ff0700ac
:102f2c000019200001002000d1010700b8ff0700a4
:102f3c0000427800e04f52001e003a003e02900022
:102f4c00840242004494200004824200140278005f
:102f5c008402e9003e0290000403420044942000e5
:102f6c0004024300050a78003e02900084024200ed
:102f7c00449420000482420014027800e00f5200b6
:102f8c0012003a00a53e28003e0290000482420046
:102f9c0094427800254798003e029000840242003b
:102fac004494200004824200451f2000050a78004a
:102fbc00060037003e029000840242004494200038
:102fcc000482420095012000050a78001e0fe800db
:102fdc001e027800e30f5200c6ff34002494200038
:102fec00144278000482fb0005082000042add004e
:102ffc00ae02900004827200240798002e0090000c
:10300c006016880024942000144278000482fb008f
:10301c008402e80034002000110009008402d8006a
:10302c0001027800044278000440780042e9b700bd
:10303c002e429000044078000080fa000000060048
:10304c000000fa002023a80000012000010020004d
:10305c00870107002023a90000000000041980004c
:10306c0061026200e00f5200fcff32000418800085
:10307c00040078000080fa00000006000000fa004e
:10308c00141680004722de00614262000440780082
:10309c005ce9b700541680004c22de0061426200ed
:1030ac00044078005de9b700c4e2a800cd82a80016
:1030bc000080fa00000006000000fa00c495200011
:1030cc0014427800614262000482fb0061026200db
:1030dc004722dd0026168000f5f72f0085026300dd
:1030ec000482720024168800d495200014427800c3
:1030fc00614262000482fb00610262004c22dd002e
:10310c0066168000f5ff2e008502630004827200b3
:10311c00641688000080fa00000006000800fa001f
:10312c00000f780011079800424798005347980009
:10313c00340798005e429000e14f520007003a00bd
:10314c003e029000de4190004e4190009e009000a7
:10315c001e007800150007001200370004972000ad
:10316c001e0a780004972000ce4290002542980059
:10317c0004972000de42900035429800049720000e
:10318c009e0290002502980004972000be02900039
:10319c0035029800049720008040eb000400780072
:1031ac0069fe07000080fa00000006000e00fa001d
:1031bc003007980041079800224f9800334f980031
:1031cc00640798000002eb00140798000002eb0063
:1031dc00040f78003e4a9000e14f52000700320085
:1031ec006e029000be4990002e499000ce009000d7
:1031fc003e009000c9ff0700480037003e029000d7
:10320c00050020006600200007002000860f5200f9
:10321c00878f5a0019003e00046001000600370039
:10322c001800370009003700160037000c00370073
:10323c000d0037000f0037006e019000ae48900073
:10324c004e0090002df607000f0037006e01900025
:10325c00ae4890004e00900071f607000a0037004f
:10326c00e2f80700080037002e489000f1f807003c
:10327c000500370096f5070003003700000000003a
:10328c0001003700000000001e029000e00f520009
:10329c002200320005f9070000027800240798008c
:1032ac00180037001e027800ae0290000482420023
:1032bc0014427800e04f5200110032001e027800d8
:1032cc00ae02900004824200944278002e4a900094
:1032dc0084cf52000a0032001e027800ae02900029
:1032ec0004824200944278006e029000854178007e
:1032fc002e499000ce0090003e00900087ff070002
:10330c001e0fe8001e027800ae02900004824200fc
:10331c0014427800e84f5200e2ff3a000080fa00b5
:10332c00000006000000fa000402200014108800bf
:10333c000002eb00241088000002eb00341088001f
:10334c00040420004410880014c0b300044078002a
:10335c0078e9b7000080fa00000006000400fa00cb
:10336c0020479800314798003e429000e04f5200b1
:10337c0001003200ff3ffc0004108000044f780075
:10338c002e4290000482fb00041088000000000014
:10339c004410800061026200e00f5200fcff32001a
:1033ac0004108000044f78003e429000e04f520021
:1033bc00010032000000fc001e427800044078003e
:1033cc000080fa00000006000200fa00004f7800ae
:1033dc0011c0b3001e407800e0ff070000427800e7
:1033ec00044078000080fa00000006000000fa009b
:1033fc0084972000144278000402fb00040078003b
:10340c000080fa00000006000a00fa00200798006d
:10341c0031079800024f9800ff3ffc000002eb00c0
:10342c00040f78001b0037002e029000e00f5200b2
:10343c000a0032001e027800ae02900004824200a4
:10344c00144278008040eb0004407800c3ff070072
:10345c000042780024479800050037008040eb00bc
:10346c000040eb00bdff07000042780024479800a5
:10347c003e029000e00f5200050032001e02780060
:10348c00be02900004824200ae429000054a7800d1
:10349c001e0fe8000e4a90000482fb009e0f5200a3
:1034ac00e1ff3c000000fc000080fa000000060078
:020000040000fa
:1034bc00400900001e00000000000000020900008e
:1034cc003e0000000200000072836e0083728300d5
:1034dc00a282c40082e68200be82b30082a6820071
:1034ec00db82980082ad8200c982d50082d0820036
:1034fc00e082ec0082ff8200f2822b0083088300c2
:10350c003d835900832183004f83180083f8820088
:10351c00128364008345830035830000b6080000e5
:10352c004c000000000000007809000002000000c0
:10353c00000000005e090000120000000000000006
:10354c00000800006800000000000000680800008f
:10355c004e00000002000000f5029d00e285b9005b
:10356c003be3f40083975b00448197005baaaa00bd
:10357c00aaaaaa00aaaaaa00aaaaaa00aaaaaa0047
:10358c00aaaaaa00aaaaaa00aaaaaa00aaaaaa0037
:10359c00aaaaaa00aaaaaa00aaaaaa00aaaaaa0027
:1035ac00aaaaaa00aaaaaa00aaaaaa00aaffff006d
:1035bc00ff0b02000d000f0003090c000e0a0100a6
:1035cc00700900000800000000000000000000006e
:020000040000fa
:1035dc002a00fa006402470096242700f7e626002a
:1035ec00068abe006402420006d2240017e62600ba
:1035fc00068abe006402420016022000070020006a
:10360c00068abe00640242006033b800068abe001f
:10361c0074024700453d28000e000900355a780019
:10362c000042eb003467980044022000040247007b
:10363c00453e280004000900355a780026f807009a
:10364c00440220000e0242000400780095fc0700a2
:10365c00740247008040eb00040078003afd07003c
:10366c0000502300c100200001000700fcff3700c0
:020000040000fa
:10367c00f03fb1000180b10006003500ee030900f7
:10368c0000000000403fb1000180b100fbff3d0095
:10369c001000b000203fb00002003500008009008f
:0836ac00000000000000060010
:00000001FF
