:020000040000fa
:080000000002040000000000f2
:020000040000fa
:10040000ef8120000ebf20000e01880000000000d8
:1004100000012000200288000c00070040a22000fc
:100420000100200011000700000020000000e00093
:10043000020032000000020000000000c8080200b4
:10044000000000000040da000000fe004440a90067
:10045000c00320000000e000030032000000200084
:10046000a00188004440a800000006009101880017
:10047000800078000000eb0015003700e2804000ab
:1004800032a0b4009101ba00e280400032a0b40072
:100490009102ba00e280400032a0b4000002eb00fa
:1004a000472bde00f507b200602ce10004003a00a3
:1004b0000059eb008301e900fdff3e000400370016
:1004c0006128e100010032000082eb000400070017
:1004d0001101ba000200e000e8ff3a000000060047
:1004e0003159ba008301e9000c0032002159ba00e9
:1004f0008301e900080032000400e00003003a0034
:10050000e280400032a0b400f5ff370011d9ba00f4
:100510008301e900faff3a008100e800e180400031
:1005200032a0b400000006000040da000000fe0027
:020000040000fa
:100008009402000094020000940200009402000090
:100018009402000094020000940200009402000080
:100028009402000094020000940200009402000070
:100038009402000094020000940200009402000060
:020000040000fa
:020000040000fa
:0200000401f009
:04001c00fdff0000e4
:020000040000fa
:0200000401f009
:04001800ffff0000e6
:020000040000fa
:0200000401f009
:040014005fff00008a
:020000040000fa
:0200000401f009
:04001000fbff0000f2
:020000040000fa
:0200000401f009
:04000c00d9ff000018
:020000040000fa
:0200000401f009
:04000800ffff0000f6
:020000040000fa
:0200000401f009
:04000000ffff0000fe
:020000040000fa
:10053000524600004944000020450000525200008d
:100540004f520000004e00004f20000043410000c9
:1005500052440000204600004f5500004e44000069
:10056000006c00006f6f0000702000003d20000054
:1005700078000000000000000a00000007000000f2
:10058000040000000100000000000000080000005e
:1005900005000000020000000b0000000900000040
:0805a00006000000030000004a
:020000040000fa
:1005a8000200fa009103070000027800e00f5200f1
:1005b80001003a006e030700cd82a800c4e2a8003b
:1005c80080002000010020008f030700f1002000b8
:1005d800100020002400070000202100a1072000af
:1005e80089030700d1082000a00220001e00070090
:1005f800e1032000b00220001b000700e1012000f9
:10060800d0022000180007008000eb00c002200084
:100618001500070001042000500120001200070007
:10062800d1032000100120000f0007004001200026
:100638002000070000027800040f78009e0278006e
:1006480063826200e00f520005003a001e02780043
:10065800630f72009e00780040012000020007002e
:100668000080fa00000006000400fa00000f78007d
:1006780011079800cd82a9001e02780004024200ea
:1006880084027800f4f72f000482620004007800e6
:10069800450307001e00900043030700cd82a80011
:1006a8008000200001002000570307000080fa00a6
:1006b800000006000400fa0010079800cd82a90087
:1006c8001e02900004024200840278000408200000
:1006d8000482720004007800330307000000eb0076
:1006e8003103070000027800040f7800cd82a800cb
:1006f8001e027800040078000080fa00000006005e
:100708000600fa0010079800210798001e009000c4
:10071800e8ff070000027800040f78002e0290001e
:100728001e027200840078001e009000ceff0700b1
:100738000080fa00000006000600fa001007980082
:10074800210798001e009000daff070000027800d9
:10075800040f78002e0290000482ea001e02620054
:10076800840078001e009000bfff07000080fa0098
:10077800000006001200fa00881f78005007980051
:100788006107980072079800030f98000002eb00b9
:10079800040f78000002eb00440798000002eb0009
:1007a800140798002400200034079800010820004e
:1007b80040002000e0ff070001082000a000200002
:1007c800a9ff07008000eb0010002000a6ff07002b
:1007d8000002eb00240798000b0037002e0290005f
:1007e80004024200de0290000482420014027800f3
:1007f80084007800900020009bff07002e029000e4
:100808000402e80024079800ae0290006e029000ef
:10081800848f5200f1ff3900c10020001000200031
:1008280091ff070001082000d0002000b4ff070056
:10083800047d2000240798000700370040002000ae
:100848009cff070000027800040f78002e02900039
:100858000402e90024079800040320001e02620035
:10086800e00f520003003a002e029000e00f520001
:10087800f2ff3c0001082000d0002000aeff070076
:100888002e029000e00f52003100320014002000c8
:1008980034079800a000200086ff070000027800b7
:1008a80044079800c000200082ff0700000278007b
:1008b800140798001e02900067026200140798004f
:1008c8001e029000e00f520004003a004e02900011
:1008d8004322dd001407980007003700ce0290007d
:1008e800f4ff2100048242004322dd009e029000b2
:1008f80004824200140798000e0a90009e0290009d
:10090800050a78000002eb00240798000b00370066
:100918002e02900004024200fe029000048442006d
:100928009000200063ff070000027800040c7800a4
:100938002e0290000402e80024079800ae029000fe
:100948004e029000848f5200f1ff390005003700f5
:100958000002eb00340798000e0a90008002eb00ba
:10096800050a78003e029000040078004f047800e1
:100978000080fa00000006000600fa002007980030
:1009880071002000d000200037ff07002e029000e1
:1009980065022000050a78000e82e80084017800cc
:1009a8002e019000110020002e00900071ff07001a
:1009b80000027800040f78001e027800e10f520050
:1009c80005003a001e029000f00f520002003200ab
:1009d80024002000040f78001e027800040078002c
:1009e8000080fa00000006000a00fa00400798009c
:1009f8000002eb00240798008000eb00d0002000e4
:100a080019ff07004e02900035092000050a7800fa
:100a18004e0290000482e80005022000050a7800d2
:100a280066024700840178004e01900021002000f2
:100a38004e0090004fff070000027800040f780076
:100a48001e027800e10f520022003a00be02900018
:100a580084022000848f52001c003a000002eb0040
:100a6800140798000b0037001e0290000402420091
:100a7800ce0290000482420014027800ae02900078
:100a880004826a00240798001e0290000402e8000d
:100a9800140798001e029000e30f5200f2ff340082
:100aa8001e02900004024200ce029000048242001e
:100ab800940278002e029000848f520005003200c4
:100ac80024002000040f78000200370024002000d2
:100ad800040f78001e027800040078000080fa00f5
:100ae800000006000000fa000002eb00042788005e
:100af800040024001427880004012000041688003c
:100b080004462c0044168800470007000002eb004a
:100b1800141988000002eb00241988000002eb0079
:100b280004198800a4a020004419880021e3a80023
:100b380014002000044088000080fa00000006002d
:100b48000000fa0004408000040078000080fa00e9
:100b5800000006000400fa00100798001e0290002a
:100b6800ef0f520002003600140020000b0037007f
:100b780014168000040f7800040f20009e02620003
:100b88001e039000f4f02f0004026300048f72002b
:100b98001e027800241688000002eb00040078008a
:100ba8000080fa00000006000400fa001007980010
:100bb8001e029000ef0f52000200360014002000c1
:100bc8000c00370054168000040f780074f82f00ca
:100bd8009e0262001e0290004323dd00840720006d
:100be80004026300048f72001e02780064168800f5
:100bf8000002eb00040078000080fa000000060004
:100c08000000fa00141680007002620004f0a700c9
:100c18000402ea000402ea004f22de000400780021
:100c28000080fa00000006000400fa005416800054
:100c3800140798009e029000043820000482720075
:100c4800140798001e029000641688000002eb004a
:100c5800144088000002eb00040f780007003700fa
:100c68001e02780084024200448020000482420070
:100c7800451f2000050a78001e0fe8001e027800b4
:100c8800eb0f5200f6ff34000080fa000000060067
:100c98000800fa000082eb00140798005016800044
:100ca800200798001440800005082000042add0071
:100cb8000482ea00ae0290000482620024079800d1
:100cc800ae0090006116880080002000010020001e
:100cd800cd0107000002eb00040f78003300370055
:100ce80014408000c222dd001e0278000482420007
:100cf800340798009e02780064824200040078005d
:100d080094ff0700beff070000027800e00f5200c2
:100d18001f003a003e0290008402420044802000f6
:100d280004824200140278008402e9003e02900026
:100d3800040342004480200004024300050a7800ae
:100d48003e02900084024200448020000482420057
:100d580014027800e00f520013003a003e0290009f
:100d680084024200c42b2800048242001400780048
:100d7800100798003e029000840242004480200040
:100d88000482420085382100050a780006003700f1
:100d98003e02900084024200448020000482420007
:100da800451f2000050a78001e0fe8001e02780083
:100db800e30f5200caff34001440800005082000e9
:100dc800042add00ae029000048272002407980015
:100dd800ae00900061168800144080008402e8008c
:100de80034002000110009008482d8000102780034
:100df800144088001e029000040078000080fa0069
:100e0800000006000000fa002023a80000012000ce
:100e1800010020007c0107002023a9000000000039
:100e28000419800061026200e00f5200fcff3200ea
:100e380004188000040078000080fa000000060012
:100e48000000fa006901070000027800e00f520074
:100e580001003a004601070039ff07000002780048
:100e6800e00f520001003a001eff07007200070061
:100e78000080fa00000006000400fa00100798003d
:100e880054168000040f780084ff2f009e02620031
:100e98001e02900067026200048f72001e02780032
:100ea800641688000080fa00000006000200fa00bc
:100eb800000f78001e0078003b0107000000eb00df
:100ec800edff070040002000ebff07000000eb00eb
:100ed800e9ff070080122000010020004a010700f6
:100ee8000080fa00000006000200fa00000f7800f7
:100ef8001e0078002c01070010002000deff07000c
:100f080050002000dcff070010002000daff070077
:100f180080122000010020003b0107000080fa0039
:100f2800000006000a00fa00300798004107980000
:100f380004002100040f78000002eb002407980049
:100f480022003700be0290001e027800110009003e
:100f58008482d8000002780014079800be0290002e
:100f68001e027800110009008482d800010278006e
:100f7800340798001e0278004422de00040f78002f
:100f88001e029000e90f520004003e001e0290006d
:100f98000403b00014079800030037001e029000f5
:100fa8007403b000140798002e029000ce0290003f
:100fb800848242001e02900004427800844a78002d
:100fc8002e0290000402e800240798001e02780010
:100fd800e00f5200dbff3a002e029000ce02900094
:100fe800848242000042eb00844a78000080fa00c4
:100ff800000006000c00fa0030079800410798002e
:10100800520798008e0078003e009000c5ff070048
:101018004e029000c622dd005e029000048242006b
:1010280004007800390007000e0078001c00070053
:101038000080fa00000006000000fa00800320008b
:101048009aff070000c4290001002000ee000700f5
:101058008003200095ff070000f421000100200014
:10106800e90007008003200090ff070080032000ac
:101078008eff0700c00020008cff070060002000e2
:101088008aff07001000200088ff070000e82300ff
:1010980001002000dc0007000080fa0000000600c4
:1010a8000400fa00100798000002eb00040f780013
:1010b8001e029000e00f52001200320008003700b4
:1010c8001e0278009e0290000482420014427800ba
:1010d8000402fb000400780083ff07001e0fe800ed
:1010e8001e0278009e02900004824200144278009a
:1010f800e04f5200030032001e027800ef0f52004a
:10110800efff34000080fa00000006000200fa0039
:10111800000f7800040820001e0272000400780006
:1011280062ff07000080fa00000006000400fa00d1
:10113800000f7800110798001e027800e00f520097
:1011480003003a000000eb00f0ff07000200370040
:1011580000042000edff07001e009000d0ff0700ec
:101168000080fa00000006000000fa0010002000cd
:101178004eff070000e8230001002000a20007003e
:101188000080fa00000006003e00fa000002eb00b2
:1011980014079800a002200000004700112b280027
:1011a80009000900315878000002eb00040f7800ac
:1011b800070037001e0278000402420004024700bc
:1011c8006a024200f50f2000050a78001e0fe800a9
:1011d8001e027800ef0f5200f6ff34000002eb0009
:1011e800040f78003ffe070015ff0700ecfc07001e
:1011f800700320002ffd07000002780024079800e4
:101208000001eb008000eb002e00900079ff070042
:1012180000202100a10720007b000700d2ff070063
:101228006a02470004007800d3fd07000002780036
:10123800340798003e029000e10f52002f003a0058
:101248006a02470004007800e7fd07000002780002
:10125800340798003e029000e10f520023003a0044
:101268005e029000440798004e0290004822dd007c
:10127800440798006e029000ce029000048242005b
:1012880044079800440320000e02420084007800be
:101298004e00900023ff0700fe02900045079800cb
:1012a8004e0290004822dd00440798000e0a900084
:1012b800ce029000048242004407980044032000b4
:1012c8000e02420064024200840078004e00900042
:1012d80014ff0700440320000e0242008400780037
:1012e8000000eb0091ff07000e003700812928005d
:1012f8000000eb008dff07000a0037003e02900057
:10130800e20f520004003a00812928000000eb0097
:1013180086ff070003003700312a28000000eb0091
:1013280082ff07001e027800044278000443b000e0
:10133800147798009e02e800a4002000110009001c
:101348008402d80001027800040f7800a40220006b
:101358000e024200840078001000200073ff07008e
:1013680000202100a107200027000700abff37005d
:101378000000fa0004022000141088000002eb00ac
:10138800241088000002eb003410880004042000b8
:101398004410880014c0b300044078001ce8b7006b
:1013a8000080fa00000006000400fa001007980008
:1013b80004108000040f78001e02900004108800ba
:1013c800000000004410800061026200e00f52003b
:1013d800fcff320004108000040f78001e02780021
:1013e800040078000080fa00000006000000fa00ff
:1013f800c4812000144278000402fb000400780035
:081408000080fa00000006005c
:020000040000fa
:10141000f03fb1000180b10006003500ee03090085
:1014200000000000403fb1000180b100fbff3d0023
:101430001000b000203fb00002003500008009001d
:0814400000000000000006009e
:020000040000fa
:10144800000800001c000000000000001c0800004c
:0c14580002000000000000000000000086
:00000001FF
